:020000040800F2
:10000000F81602204D030008492A0008D5170008F9
:10001000452A000871070008173900080000000091
:100020000000000000000000000000009502000831
:100030006D16000800000000E9020008F930000811
:1000400071030008710300087103000871030008C0
:1000500071030008710300087103000871030008B0
:1000600071030008710300087103000871030008A0
:100070007103000871030008710300087103000890
:100080007103000871030008710300087103000880
:100090007507000871030008710300087103000868
:1000A0007103000871030008710300087103000860
:1000B00071030008B13100087103000871030008E2
:1000C0007103000871030008710300087103000840
:1000D00071030008E9350008710300087103000886
:1000E0007103000871030008710300087103000820
:1000F0007103000871030008710300087103000810
:100100007103000871030008E13100087103000861
:1001100071030008710300087103000871030008EF
:1001200071030008710300087103000871030008DF
:1001300071030008710300087103000871030008CF
:10014000590B0008710300087103000871030008CF
:1001500059120008710300087103000809360008ED
:10016000710300087103000871030008710300089F
:10017000710300087103000871030008000000000B
:10018000710300087103000871030008710300087F
:10019000710300087103000871030008710300086F
:1001A00000000000000000007103000800F002F8E9
:1001B00000F061F80AA090E8000C82448344AAF1A0
:1001C0000107DA4501D100F056F8AFF2090EBAE89E
:1001D0000F0013F0010F18BFFB1A43F0010318477B
:1001E00080800000A08000000A444FF0000C10F84E
:1001F000013B13F0070408BF10F8014B1D1108BFA5
:1002000010F8015B641E05D010F8016B641E01F844
:10021000016BF9D113F0080F1EBF10F8014BAD1C94
:100220000C1B09D16D1E58BF01F801CBFAD505E0B2
:1002300014F8016B01F8016B6D1EF9D59142D6D30C
:10024000704700000023002400250026103A28BF34
:1002500078C1FBD8520728BF30C148BF0B60704738
:10026000632900F0B581002070471FB507F06BFFD0
:100270001FBD10B510BD00F01FFA1146FFF7F5FFC6
:1002800004F080FE00F03DFA03B4FFF7F2FF03BC78
:1002900004F062F82A4B19680868B0E8F04F80F360
:1002A0000988BFF36F8F4FF0000080F3118870470B
:1002B0000000000006480068006880F3088862B605
:1002C00061B6BFF34F8FBFF36F8F00DF00BF00BF7A
:1002D00008ED00E0DFF80C00016841F470010160F6
:1002E000704700BF88ED00E0EFF30980BFF36F8F28
:1002F000134B1A681EF0100F08BF20ED108A20E97A
:10030000F04F106008B44FF0500080F31188BFF335
:100310004F8FBFF36F8F06F0D3FA4FF0000080F3DA
:10032000118808BC19680868B0E8F04F1EF0100F7B
:1003300008BFB0EC108A80F30988BFF36F8F704755
:100340005C000020EFF30580704700000C48016856
:1003500041F4700101600B4880470B480047FEE7FD
:10036000FEE7FEE7FEE7FEE7FEE7FEE7FEE7FEE765
:10037000FEE7000005480649044A064B70470000A6
:1003800088ED00E009310008AD010008F8120220F4
:10039000F8160220F8120220704700000FB404493A
:1003A00010B503AA029800F01FF910BC5DF814FB09
:1003B000300300202DE9F0410E4604460020206263
:1003C0002046E168884730B3252805D0D4E90121CB
:1003D0009047206A401CF2E7E168204600278847E2
:1003E000050018D0A5F14100192802D820354FF496
:1003F00000673246294620462760FFF731FF40B1AB
:10040000012804D0F61D26F007060836D8E7361D69
:10041000D6E72846DAE7206ABDE8F08170B50C46D9
:100420000546012A05D02878800600D5EA69002310
:1004300002E0012305E05B1C934202D2E05C00284D
:10044000F9D1A869E618C01AA861286A1844286278
:100450002846AFF3008004E0D5E9012114F8010B30
:100460009047B442F8D32846AFF3008070BD032A0A
:1004700040F2308010F0030C00F0158011F8013BC1
:10048000BCF1020F624498BF11F801CB00F8013BA8
:1004900038BF11F8013BA2F1040298BF00F801CB6C
:1004A00038BF00F8013B11F0030300F02580083A43
:1004B000C0F0088051F8043B083A51F804CBA0E89A
:1004C0000810F5E7121D5CBF51F8043B40F8043BEF
:1004D000AFF30080D20724BF11F8013B11F801CB24
:1004E00048BF11F8012B24BF00F8013B00F801CBF5
:1004F00048BF00F8012B704710B5203AC0F00B80C0
:10050000B1E81850203AA0E81850B1E81850A0E817
:100510001850BFF4F5AF5FEA027C24BFB1E8185071
:10052000A0E8185044BF18C918C0BDE810405FEAE1
:10053000827C24BF51F8043B40F8043B08BF70475D
:10054000D20728BF31F8023B48BF11F8012B28BF62
:1005500020F8023B48BF00F8012B704702F0FF0370
:1005600043EA032242EA024200F052B87047704761
:100570007047704710B500F06BF8006810BD10B5FB
:10058000044600F065F8046010BD000001694A1CD3
:1005900002610878704700B58FB0CDE901310021C4
:1005A000059105497944CDE9031011466846FFF7E6
:1005B00001FF0FB000BD0000E5FFFFFF10B543696C
:1005C00013B1AFF3008001E0FFF728FF012010BD59
:1005D000127800F124010A7000224A700122EDE72E
:1005E00011684FF0FF32E9E7074B70B50D467B44C9
:1005F000FFF7D1FF0446284600F02EF810B14FF067
:10060000FF3070BD204670BD5F4600004FF0000215
:100610000429C0F0128010F0030C00F02380CCF10C
:10062000040CBCF1020F18BF00F8012BA8BF20F882
:10063000022BA1EB0C0100F015B85FEAC17C24BFCE
:1006400000F8012B00F8012B48BF00F8012B704780
:100650000048704798120220007B00F0800070472D
:100660004FF0000200B5134694469646203922BF4B
:10067000A0E80C50A0E80C50B1F12001BFF4F7AF96
:10068000090728BFA0E80C5048BF0CC05DF804EB78
:10069000890028BF40F8042B08BF704748BF20F8E6
:1006A000022B11F0804F18BF00F8012B704700009B
:1006B00000487047981202207546FFF7F9FFAE46D2
:1006C00005006946534620F00700854618B020B55E
:1006D000FFF750FEBDE820404FF000064FF0000746
:1006E0004FF000084FF0000B21F00701AC46ACE8DA
:1006F000C009ACE8C009ACE8C009ACE8C0098D4647
:10070000704710B50446AFF300802046BDE81040A6
:10071000FFF7BABD08B54FF4407002F0D3F94FF4BB
:100720007A7004F01FFA04F0C9FB02F0BDFE05F078
:1007300063FD04F02FFC002005231A4601210090E0
:1007400000F082F9002005231A460121009000F0F4
:1007500077FA02F027FB302002F0DEFB02F0F2F81D
:1007600002F0BAF9642002F071FE02F001FD08BD4A
:1007700000BFFEE700B585B000218E4800F001FC07
:1007800010B9002005B000BD6A460021894800F07C
:1007900007FC0098A0F20120092825D2DFE800F02C
:1007A0000525456585A5C524E5009DF80C009DF847
:1007B0000B1040EA012000B27F4908809DF80E101E
:1007C0009DF80D0041EA002000B27B4948809DF869
:1007D00010109DF80F0041EA002000B27649888091
:1007E0009DF8110040B28871DFE09DF80C009DF883
:1007F0000B1040EA012000B2704908809DF80E10ED
:100800009DF80D0041EA002000B26C4948809DF837
:1008100010109DF80F0041EA002000B2674988805F
:100820009DF8110040B28871BFE09DF80C009DF862
:100830000B1040EA012000B2614908809DF80E10BB
:100840009DF80D0041EA002000B25D4948809DF806
:1008500010109DF80F0041EA002000B2584988802E
:100860009DF8110040B288719FE09DF80C009DF842
:100870000B1040EA012000B2524908809DF80E108A
:100880009DF80D0041EA002000B24E4948809DF8D5
:1008900010109DF80F0041EA002000B249498880FD
:1008A0009DF8110040B288717FE09DF80C009DF822
:1008B0000B1040EA012000B2434908809DF80E1059
:1008C0009DF80D0041EA002000B23F4948809DF8A4
:1008D00010109DF80F0041EA002000B23A498880CC
:1008E0009DF8110040B288715FE09DF80C009DF802
:1008F0000B1040EA012000B2344908809DF80E1028
:100900009DF80D0041EA002000B2304948809DF872
:1009100010109DF80F0041EA002000B22B4988809A
:100920009DF8110040B288713FE09DF80C009DF8E1
:100930000B1040EA012000B2254908809DF80E10F6
:100940009DF80D0041EA002000B2214948809DF841
:1009500010109DF80F0041EA002000B21C49888069
:100960009DF8110040B288711FE09DF80C009DF8C1
:100970000B1040EA012000B2164908809DF80E10C5
:100980009DF80D0041EA002000B2124948809DF810
:1009900010109DF80F0041EA002000B20D49888038
:1009A0009DF8110040B2887100BF00BF9DF80A0099
:1009B000E8E6000000640040C0000020C8000020FD
:1009C000D0000020D8000020E0000020E800002037
:1009D000F0000020F80000202DE9F04186B0074625
:1009E000884615460024019700208DF80C008DF8EC
:1009F0000D008DF80E5000BF06E018F804100DF140
:100A00000F000155601C84B2AC42F6DB01A90D4811
:100A100000F03EFB0646002401E0601C84B2314633
:100A2000084800F0C9FB18B940F6FF708442F4DBB7
:100A300040F6FF70844203DB012006B0BDE8F08180
:100A40000020FAE7006400402DE9F0418AB0044636
:100A50000D4616461F46DDF840800121082002F0B1
:100A6000DDF80121480602F0E9F80121480602F00C
:100A7000F5F800214FF0007002F0F0F80320089024
:100A800002208DF8240000208DF8260003208DF828
:100A9000250001208DF8270008A92D4800F0E7FD6A
:100AA000092200212A4800F02AFE092201212848B3
:100AB00000F025FE00208DF81A0001208DF81B00A3
:100AC00000208DF81C008DF81D008DF81E008DF89B
:100AD0001F008DF816808DF817408DF818608DF87E
:100AE0001950ADF8147005A91A4800F0C0F900209B
:100AF0008DF80E008DF80F0001208DF810000020F9
:100B0000ADF80400ADF80600ADF80800ADF80A0035
:100B1000ADF80C0001208DF8110001A800F01AF9C1
:100B2000012202210B4800F099F914208DF80000F1
:100B300004208DF8010000208DF8020001208DF8BE
:100B40000300684601F082FF00200AB0BDE8F08192
:100B5000000C02400064004000B585B000211A4836
:100B600000F00FFA10B9002005B000BD6A46002160
:100B7000154800F015FA0098A0F20A20F8B99DF87F
:100B80000C009DF80B1040EA012000B20F490880CC
:100B90009DF80E109DF80D0041EA002000B20B49AF
:100BA00048809DF810109DF80F0041EA002000B227
:100BB000064988809DF8110040B2887100BF00BFCF
:100BC0009DF80A00D0E70000006800400001002006
:100BD0002DE9F0410746884615460024164807606F
:100BE00000201549087248720846857200BF06E069
:100BF00018F8041010480B300155601C84B2AC4248
:100C0000F6DB0D490D4800F043FA0646002401E0EA
:100C1000601C84B23146094800F0CEFA18B940F69B
:100C2000FF708442F4DB40F6FF70844202DB012057
:100C3000BDE8F0810020FBE72808022000680040A2
:100C40002DE9F0418AB004460D4616461F46DDF8F0
:100C500040800121022001F0E1FF0121880601F01E
:100C6000EDFF0121880601F0F9FF00214FF08060BF
:100C700001F0F4FF4FF44050089002208DF824005A
:100C800000208DF8260003208DF8250001208DF826
:100C9000270008A92D4800F0EAFC09220C212B4866
:100CA00000F02DFD09220D21284800F028FD00202C
:100CB0008DF81A0001208DF81B0000208DF81C0013
:100CC0008DF81D008DF81E008DF81F008DF8168020
:100CD0008DF817408DF818608DF81950ADF8147024
:100CE00005A91B4800F0C3F80E208DF80E00002067
:100CF0008DF80F0001208DF810000020ADF80400E1
:100D0000ADF80600ADF80800ADF80A00ADF80C002B
:100D100001208DF8110001A800F01CF80122022129
:100D20000B4800F09BF840208DF8000004208DF85F
:100D3000010000208DF8020001208DF803006846B4
:100D400001F084FE00200AB0BDE8F08100040240FA
:100D50000068004010B50021837A012202FA03F1F5
:100D60003D4A126842F001023B4B1A603A4A1C327B
:100D700012688A43384B1C331A60027BCAB9364A60
:100D80000C3212688A43344B0C331A604288C38891
:100D900042EA0343304A4032847A42F834300288CF
:100DA000838842EA03432C4A4032847A02EBC4022D
:100DB0005360027B012A19D1274A0C3212680A4378
:100DC000254B0C331A604288038842EA0343224AC7
:100DD0004032847A42F83430C288838842EA03433E
:100DE0001D4A4032847A02EBC4025360C27A3AB997
:100DF000194A121D12688A43174B1B1D1A6006E020
:100E0000154A121D12680A43134B1B1D1A600289F2
:100E100032B9114A143212688A430F4B14331A60E4
:100E20000289012A06D10C4A143212680A430A4B7D
:100E300014331A60427B012A06D1074A1C32126819
:100E40000A43054B1C331A60034A126822F0010260
:100E5000014B1A6010BD0000006600401AB14369E2
:100E60000B43436102E043698B434361704730B5F4
:100E7000024600200023146824F002041460146861
:100E800044F00104146000E05B1C546804F00104A9
:100E90001CB94FF6FF74A342F6D1546804F0010464
:100EA0000CB900206CE08C79012C04D1146844F05A
:100EB0008004146003E0146824F080041460CC798A
:100EC000012C04D1146844F04004146003E0146859
:100ED00024F0400414600C7A012C04D1146844F00E
:100EE0002004146003E0146824F0200414604C7A99
:100EF000012C04D1146844F01004146003E0146859
:100F000024F0100414608C7A012C04D1146844F08D
:100F10000804146003E0146824F008041460CC7A18
:100F2000012C04D1146844F00404146003E0146834
:100F300024F0040414608C78A407CD7844EA056496
:100F40000D7944EA05444D7944EA05540D886D1E37
:100F50002C43D461146824F001041460002300E0E1
:100F60005B1C546804F001041CB14FF6FF74A342EB
:100F7000F6D1546804F001040CB1002000E0012017
:100F800030BD0246002019B9D36803F0030006E023
:100F9000012903D1136903F0030000E0002070472A
:100FA00010B500F5D87303EB01131B6803F00403BD
:100FB0001372137A53B900F5D87303EB01131B684E
:100FC00040F2FF7404EA5353136009E000F5D8734C
:100FD00003EB01131B686FF0604404EAD303536012
:100FE00000F5D87303EB01131B6803F0020353727F
:100FF00000F5D87303EB01135B6803F00F039372E2
:1010000000F5D87303EB01135B681B0AD37400F57A
:10101000D87303EB01139B68D37200F5D87303EB0D
:1010200001139B681C0A147300F5D87303EB0113BA
:101030009B681C0C547300F5D87303EB01139B6879
:101040001B0E937300F5D87303EB0113DB68D373A6
:1010500000F5D87303EB0113DB681C0A147400F568
:10106000D87303EB0113DB681C0C547400F5D873C0
:1010700003EB0113DB681B0E937421B9C36843F0C3
:101080002003C36003E0036943F02003036110BD44
:1010900010B502460020936803F08063B3F1806FBF
:1010A00000D110E0936803F00063B3F1006F01D149
:1010B000012008E0936803F08053B3F1805F01D111
:1010C000022000E00420042874D002F5C07303EB72
:1010D00000131B6803F0010402F5C07303EB001357
:1010E0001C600B7A7BB94B7A0C8843EA445302F5B7
:1010F000C07404EB00142468234302F5C07404EBAD
:101100000014236010E00B7A4C6843EAC4034C7A65
:10111000234302F5C07404EB00142468234302F552
:10112000C07404EB001423608B7A03F00F038B72FE
:1011300002F5C07303EB00135B6823F00F0402F5A4
:10114000C07303EB00135C6002F5C07303EB001384
:101150005B688C7A234302F5C07404EB001463606F
:101160008B7B1C064B7B44EA03440B7B44EA032342
:10117000CC7A234302F5C07404EB0014A3608B7C8B
:101180001C064B7C44EA03440B7C44EA0323CC7BDF
:10119000234302F5C07404EB0014E36002F5C0734E
:1011A00003EB00131B6843F0010402F5C07303EB6B
:1011B00000131C6010BD000010B50246002321B1D1
:1011C000012907D002290FD109E090681D4C00EADF
:1011D00004030BE090681C4C00EA040306E09068EE
:1011E0001A4C00EA040301E0002300BF00BF184CC2
:1011F000181BA34216D007DC83B16FF0806018443F
:1012000070B1022818D111E0B0F5007F10D0114C58
:10121000204448B1B0F5003F0ED10BE002230DE0B1
:1012200000230BE0002309E0002307E0012305E091
:10123000012303E0012301E0002300BF00BFD8B277
:1012400010BD0000030000040003000800000310AC
:10125000000100080001FFF710B54B494B4800F0B2
:1012600089F900287ED04A49484800F097F8464955
:10127000464800F0ADF8474800784649497840EACA
:101280000120C0F30A004449086042484078C01079
:101290004049897840EA4110C0F30A003E4948605D
:1012A0003C48807880113B49C97840EA810039493F
:1012B000097940EA8120C0F30A003749886035483F
:1012C000007940103349497940EAC110C0F30A005F
:1012D0003149C8602F484079C0F3011008752D4886
:1012E00040790011800848752A4880792949C979D0
:1012F00040EA012000B22849C8822648007A2549E0
:10130000497A40EA012001B2234801832148807ACA
:101310002049C97A40EA012001B21F4841831D4893
:10132000017B1D4801771B48417B1B4841771948C9
:10133000807B1849C97B40EA01201749C8831548BA
:10134000007C1449497C40EA0120134908610846A1
:101350000068A0F58060086008464068A0F58060DD
:10136000486000E00EE008468068A0F58060886074
:101370000846C068A0F58060C86008460069A0F50E
:101380008060086110BD0000008800208864024071
:10139000000800205C120220751202200246094B50
:1013A0009A4201D2084801E00648103801F0005383
:1013B0001BB1064B0B40C36002E0044B0B40836043
:1013C0007047000010640240006002407D0F7D0FF6
:1013D0000246094B9A4201D2084801E006481038FB
:1013E00001F000531BB1064B0B40C36002E0044BFD
:1013F0000B408360704700001064024000600240B0
:101400007D0F7D0F21B1026842F00102026003E00E
:10141000026822F00102026070470000016821F0BA
:10142000010101600021016041608160C1600161D2
:10143000212141614A49884204D13D21484A103A5C
:1014400091608CE046491831884205D14FF47461AF
:10145000434A103A916082E041493031884205D1D7
:101460004FF474113E4A103A916078E03C4948319B
:10147000884205D14FF07461394A103A91606EE0AC
:1014800037496031884204D13649354A103AD16033
:1014900065E033497831884204D13349304A103A03
:1014A000D1605CE02E499031884204D12F492C4A0A
:1014B000103AD16053E02A49A831884205D14FF053
:1014C0003D51274A103AD16049E02949884204D168
:1014D0003D21274A083A116041E0254918318842E8
:1014E00005D14FF47461224A083A116037E020496F
:1014F0003031884205D14FF474111D4A083A116009
:101500002DE01B494831884205D14FF07461184ADB
:10151000083A116023E016496031884204D111492C
:10152000134A121F11601AE011497831884204D120
:101530000D490F4A121F116011E00D499031884288
:1015400004D10A490A4A121F116008E00849A8316B
:10155000884204D14FF03D51054A121F1160704777
:10156000106002403D000020400F002000003D20A0
:101570001064024070B50246002000240025124E7F
:10158000B24201D2114B01E00F4B103B104E0E4006
:1015900036B11E2606EAD124166806EA040502E0E2
:1015A000566906F0800501F000560EB15C6800E057
:1015B0001C68084E344004EA010616B10DB1012042
:1015C00000E0002070BD0000106402400060024096
:1015D0003C0F3C0F7D0F7D0F10B501F080034BB128
:1015E00022B1436943F08003436103E0436923F080
:1015F0008003436180290BD02AB1036801F01E04E7
:101600002343036004E0036801F01E04A343036066
:1016100010BD000010B500220268134B1A40CC68C0
:101620000B6823434C6923438C692343CC692343D0
:101630000C6A23434C6A23438C6A23434C6B234339
:101640008C6B23431A430260426922F00702D1E9FE
:101650000B3423431A4342610B6943604B68836038
:101660008B68C36010BD00003F801CF07047F0B570
:101670000A4600210023002400BF3DE0012505FAB1
:1016800001F3156805EA03049C4234D105684F0054
:101690000326BE40B543056015794E00B540066887
:1016A000354305601579012D02D01579022D16D12B
:1016B00085684F000326BE40B543856055794E00CE
:1016C000B540866835438560456801268E40B54340
:1016D0004560456896798E40B6B235434560C56829
:1016E0004F000326BE40B543C560D5794E00B540D6
:1016F000C6683543C560491C1029BFD3F0BDF0B59D
:10170000002300244D07ED0E02FA05F3CE1000F180
:10171000200555F826504E07F70E0F26BE40B5435C
:10172000CF1000F1200646F82750CE1000F120051A
:1017300055F8265045EA0304CE1000F1200545F87F
:101740002640F0BD01837047184890ED030A184801
:1017500080ED040A154890ED040AB1EE400A1448E1
:1017600080ED050A114890ED050A114880ED060A42
:10177000104890ED000A104880ED000A0F4890EDE7
:10178000000A0C4880ED000A90ED000A0C4880ED3C
:10179000000A0A4890ED010A0A4880ED000A07484D
:1017A00090ED020A084880ED000A70473C080220CC
:1017B000C4080220600200206C0200207008022091
:1017C000BC010020C0010020C40100204FF0804077
:1017D000406A704700BFFEE700B52DED108B93B057
:1017E000FE4890ED000AD0ED000A20EE200A8DEDB3
:1017F000080A90ED000AFA48D0ED000A20EE200A0F
:10180000B0EE40FAF54890ED000AF648D0ED000A37
:1018100020EE200AF0EE40AAF04890ED000AF248CF
:10182000D0ED000A20EE200A8DED070AEC4890ED7D
:10183000000AD0ED000A20EE200AF0EE40FA90ED0A
:10184000000AE848D0ED000A20EE200A8DED060AD5
:10185000E34890ED000AE448D0ED000A20EE200AAB
:10186000B0EE40BADF4890ED000AD0ED000A20EE5D
:10187000200AF0EE40BA90ED000ADB48D0ED000AF5
:1018800020EE200A8DED050A90ED000AD0ED000A49
:1018900020EE200A8DED040AD44890ED030ADFED16
:1018A000D40A20EE200ADFEDD30A80EE201AD248B7
:1018B00080ED001ACD4890ED040ADFEDCD0A20EE50
:1018C000200ADFEDCC0A80EE201ACC4880ED001A09
:1018D000C64890ED050ADFEDC60A20EE200ADFEDCE
:1018E000C50A80EE201AC64880ED001ABF4890ED68
:1018F000000AC44880ED000ABC4890ED010AC248C5
:1019000080ED000AB94890ED020AC04880ED000A57
:10191000B64890ED060ABE4880ED000AB34890ED47
:10192000070ABC4880ED000AB04890ED080ABA48A2
:1019300080ED000AFFF74AFFB849086008460068D2
:10194000B749096888420CD3B4480068B4490968AB
:10195000401A00EE100AB8EE400ADFEDB20AC0EEFF
:10196000208AAE480068AE490860A648D0ED000A5B
:1019700090ED001A60EE810AA34890ED001AD0EDB8
:10198000001A41EE210AA14890ED001AD0ED001A8C
:1019900041EE210AB0EE600A03F072FAB0EE408A1E
:1019A000984890ED000A20EE080A80ED000A96485B
:1019B00090ED000A20EE080A80ED000A934890EDB1
:1019C000000A20EE080A80ED000A9148D0ED000AD6
:1019D00090ED001A60EE810A8E4890ED001AD0ED6D
:1019E000001A41EE210A8C4890ED001AD0ED001A41
:1019F00041EE210AB0EE600A03F042FAB0EE408AEE
:101A0000834890ED000A20EE080A80ED000A814824
:101A100090ED000A20EE080A80ED000A7E4890ED65
:101A2000000A20EE080A80ED000A794890ED000ACD
:101A3000F0EE000A60EE200AB6EE000A30EE6B1AF5
:101A40009DED040A31EE400A20EE800A7148D0ED87
:101A5000000AB0EE001A60EE811ADDED060A9DED77
:101A6000071A70EEC10A01EEA00A6B48D0ED000A19
:101A7000B0EE001A60EE810A3BEE2A1A00EE810AEF
:101A80008DED110A624890ED000AF0EE000A20EE9A
:101A9000201A9DED060ADDED070A30EE200A21EE40
:101AA000000A5C48D0ED000AB0EE001A20EE811A60
:101AB000F6EE000A70EEEF1ADDED040A71EEE00AB0
:101AC00001EE200A5448D0ED000AB0EE001A20EED4
:101AD000811ADDED050A70EECF0A01EE200A8DEDC8
:101AE000100A4B4890ED000AF0EE000A20EE200AA2
:101AF0007BEE6A0A60EE200A464890ED000AB0EEDE
:101B0000001A20EE011A9DED050A70EE0F1AB0EED4
:101B1000600A01EE210A4048D0ED000AB0EE001A3A
:101B200060EE810AB6EE001A31EE6F1A31EE6B1AD2
:101B3000B0EE409A00EE819A9DED110A60EE000A27
:101B40009DED100A40EE000A10EE901A084606F0CD
:101B500089FACDE900019DED000B02F00DFB8DED42
:101B6000020B9DED020B51EC100B05F043FD09EE4D
:101B7000900AB0EE49AA3BEE6A0AF0EE000A20EEA7
:101B8000200A8DED0F0A9DED050A3FEE000AF0EEEA
:101B9000000A20EE200A8DED0E0A9DED080A30EEB7
:101BA0006F0A70EE6B0A9DED040A30EE800A8DED2F
:101BB0000D0AB0EE000A69EE800AB6EE000A30EEB9
:101BC0006B1A9DED040A31EE400A20EE800AB0EE59
:101BD0004A9AF0EE000A69EE200A25E0240200206D
:101BE000280200202C020020300200203C080220A5
:101BF000DB0F49400000344334020020380200204B
:101C00003C02002040020020440200204802002044
:101C10004C02002050020020540200205C020020F0
:101C2000580200200024F4493BEE6A1A00EE810AB3
:101C30008DED0C0AB0EE000A29EE801A9DED060A21
:101C4000DDED070A30EE600A21EE000AB0EE4A9A96
:101C5000F0EE000A29EE201ADDED050A7FEE200ADB
:101C600001EE200A8DED0B0AB0EE000A29EE800A83
:101C70007AEE8B0A20EE200AB0EE4A9AF0EE000AC5
:101C800069EE200AB6EE001A31EE6F1A31EE6B1AC9
:101C900000EE810A8DED0A0AAF48D0ED000A9DEDF5
:101CA0000D0A60EE800AAD4890ED001A9DED0E0A17
:101CB00041EE400AAA4890ED001A9DED0A0A21EE75
:101CC000001AA848D0ED001A9DED0B0A01EEC01ACB
:101CD00030EE81CAA148D0ED000A9DED0F0A60EEFA
:101CE000800AA14890ED001A9DED0D0A41EE400AD0
:101CF0009C4890ED001A9DED0C0A21EE001A9B48BD
:101D0000D0ED001A9DED0A0A01EEC01A70EE81CAEC
:101D10009548D0ED000A9DED0E0A60EE800A8E48CF
:101D200090ED001A9DED0F0A41EE400A8F4890EDAC
:101D3000001A9DED0B0A21EE001A8948D0ED001A19
:101D40009DED0C0A01EEC01A30EE81DAB5EEC0CA84
:101D5000F1EE10FA57D0F5EEC0CAF1EE10FA52D0FB
:101D6000B5EEC0DAF1EE10FA4DD09FED810A6CEEBF
:101D7000000A804890ED000A00EEA80A80ED000AF3
:101D80009FED7B0A6CEE800A7B4890ED000A00EE26
:101D9000A80A80ED000A9FED760A6DEE000A7748EA
:101DA00090ED000A00EEA80A80ED000A744890ED5C
:101DB000000AF0EE000A00EE8C0A6E48D0ED000A30
:101DC00030EE200A6E4880ED000A6E4890ED000A61
:101DD000F0EE000A00EEAC0A6748D0ED000A30EEE3
:101DE000200A684880ED000A674890ED000AF0EE8E
:101DF000000A00EE8D0A6148D0ED000A30EE200A9C
:101E0000614880ED000A614890ED000AB1EE400A99
:101E10005B48D0ED000A20EE200A5D48D0ED000AB4
:101E2000584890ED001A00EEC10A5A4890ED001A89
:101E30005548D0ED001AF0EE400A41EE610A5648CE
:101E400090ED000A00EEA80A8DED090A90ED000A57
:101E50004B48D0ED000A20EE200A4D48D0ED000A94
:101E6000494890ED001A00EE810A4A48D0ED000A78
:101E7000444890ED001A00EEC10A4448D0ED000A33
:101E8000F0EE60DA40EE28DA434890ED000A3D4873
:101E9000D0ED000A20EE200A3C48D0ED000A3A4876
:101EA00090ED001A00EEC10A3A48D0ED000A34481D
:101EB00090ED001A00EE810A3548D0ED000AB0EE30
:101EC00060EA00EE28EA344890ED000A2E48D0ED92
:101ED000000A20EE200A2D48D0ED000A294890ED96
:101EE000001A00EE810A2A48D0ED000A244890ED3D
:101EF000001A00EEC10A2748D0ED000AF0EE60EAB1
:101F000040EE28EADDED090A60EEA00A4DEEAD0ACA
:101F10004EEE0E0A4EEEAE0AB0EE600A02F0B0FFD0
:101F2000B0EE408A9DED090A20EE080A1A4880EDBD
:101F3000000A2DEE880A154880ED000A2EEE080AE8
:101F4000134880ED000A2EEE880A124880ED000A40
:101F500013B0BDEC108B00BD4402002048020020ED
:101F60005002002054020020400200204C020020B9
:101F70000AD7233C180200201C0200202002002067
:101F800034020020380200203C02002028020020F9
:101F90002C020020300200202402002010B504464C
:101FA0000C4800F021F8FFF717FC0B4890ED000AF1
:101FB00084ED000A094890ED000A84ED010A084802
:101FC00090ED000A84ED020A064890ED000A84EDC7
:101FD000030A10BD3C080220240200202802002031
:101FE0002C020020300200202DE9FF470646002485
:101FF00000250020FB490860BB2000F061FF3B206A
:1020000000F0ECFC8DF800003C2000F0E7FC8DF8BF
:1020100001009DF801009DF8001040EA012000B287
:10202000F14908803D2000F0D9FC8DF802003E20E7
:1020300000F0D4FC8DF803009DF803009DF8021019
:1020400040EA012000B2E84948803F2000F0C6FC89
:102050008DF80400402000F0C1FC8DF805009DF8CB
:1020600005009DF8041040EA012000B2DE49888096
:10207000412000F0B3FC8DF80600422000F0AEFCD9
:102080008DF807009DF807009DF8061040EA012032
:1020900000B2D549C880432000F0A0FC8DF80800AC
:1020A000442000F09BFC8DF809009DF80900CF4901
:1020B0000989401A9DF8081040EA012000B2CA4977
:1020C0000881452000F08AFC8DF80A00462000F0C7
:1020D00085FC8DF80B009DF80B00C4494989401A16
:1020E0009DF80A1040EA012000B2BF49488147200C
:1020F00000F074FC8DF80C00482000F06FFC8DF8A7
:102100000D009DF80D00B9498989401A9DF80C1001
:1021100040EA012000B2B44988810120B449C1F8E5
:102120009802012434E0B34850F82410601EB14AEC
:1021300042F8201002F5CA7050F82420601EAE4903
:1021400041F8202001F5CA7050F82420601E01F5E6
:10215000CA7141F8202001F5CA7050F82420601E91
:1021600001F5CA7141F8202001F5CA7050F8242009
:10217000601E01F5CA7141F8202001F5CA7050F8BF
:102180002420601E01F5CA7141F82020601CC4B2F1
:10219000642CC8DB9448B0F900009649C1F88C0162
:1021A0009148B0F902109348C0F820138E48B0F956
:1021B00004109048C0F8B4148B48B0F908108D484A
:1021C000C0F848168848B0F90A108A48C0F8DC17E9
:1021D0008548B0F90C108748C0F87019002405E054
:1021E000844850F824000544601CC4B2642CF7DB1A
:1021F000642095FBF0F07F49C1F890010025002490
:1022000005E07D4850F824000544601CC4B2642CED
:10221000F7DB642095FBF0F17648C0F82413002525
:10222000002405E0754850F824000544601CC4B241
:10223000642CF7DB642095FBF0F16E48C0F8B8140D
:102240000025002405E06E4850F824000544601C79
:10225000C4B2642CF7DB642095FBF0F16548C0F84C
:102260004C160025002405E0664850F8240005447B
:10227000601CC4B2642CF7DB642095FBF0F15D4870
:10228000C0F8E0170025002405E05F4850F824005E
:102290000544601CC4B2642CF7DB642095FBF0F1AC
:1022A0005448C0F87419002590ED640AB8EEC00ACD
:1022B000564880ED000A4F4890EDC90AB8EEC00AB2
:1022C000524880ED010A4D4890ED640AB8EEC00A0C
:1022D0004E4880ED020A4A4890ED640AB8EEC00A02
:1022E0004A4880ED040A474890ED640AB8EEC00AF7
:1022F000464880ED050A444890ED640AB8EEC00AED
:10230000424880ED060A00272EE04048D0ED040A3E
:102310003F4830F9170000EE100AB8EEC00AF4EE9C
:10232000400AF1EE10FA05D1394830F81700394962
:1023300008801BE0354890ED040AF1EE400A34486D
:1023400030F9170000EE100AB8EEC00AF4EE400AA9
:10235000F1EE10FA07D12E4830F81700404200B2D3
:102360002C49088002E07F1C322FCEDB00BF4FF0EB
:1023700000082FE02548D0ED050A254830F918005F
:1023800000EE100AB8EEC00AF4EE400AF1EE10FAC0
:1023900005D11F4830F818001F4908801DE01B4870
:1023A00090ED050AF1EE400A194830F9180000EEE8
:1023B000100AB8EEC00AF4EE400AF1EE10FA07D1A6
:1023C000134830F81800404200B21349088004E076
:1023D00008F10108B8F1190FCCDB00BF4FF000097C
:1023E0004CE00000988242427C08022090080220C3
:1023F00000804242E4080220780A02200C0C0220ED
:10240000A00D0220340F0220C8100220A4080220D0
:10241000880200207A0200207C020020A648D0ED2D
:10242000060AA64830F9190000EE100AB8EEC00AF4
:10243000F4EE400AF1EE10FA05D1A04830F8190088
:102440009F4908801DE09C4890ED060AF1EE400A85
:102450009A4830F9190000EE100AB8EEC00AF4EEFE
:10246000400AF1EE10FA07D1944830F819004042C2
:1024700000B29349088004E009F10109B9F1170F8E
:10248000CCDB00BF8F4890ED000A80ED000A8E483B
:1024900090ED000ADFED8D0A30EE200A80ED000A93
:1024A00090ED000ADFED8A0A30EE200AD0ED000A36
:1024B00080EE801A874880ED001A7F4890ED000A70
:1024C000854880ED000A90ED000A7E48D0ED000AB4
:1024D00070EE600A90ED000A7E4890ED001A01EE61
:1024E000200A784880ED000A7A4890ED000AF7EE5D
:1024F000000A30EEC00A7448D0ED000A20EE200A2F
:1025000080ED000A754890ED000A80ED000A7448DD
:1025100090ED000ADFED6D0A30EE200A80ED000A32
:1025200090ED000ADFED6A0A30EE200AD0ED000AD5
:1025300080EE801A6B4880ED001A5F4890ED010A2A
:10254000694880ED000A90ED000A6448D0ED000A69
:1025500070EE600A90ED000A624890ED001A01EEFC
:10256000200A5E4880ED000A5E4890ED000AF7EE12
:10257000000A30EEC00A5A48D0ED000A20EE200AC8
:1025800080ED000A594890ED000A80ED000A584895
:1025900090ED000ADFED4D0A30EE200A80ED000AD2
:1025A00090ED000ADFED4A0A30EE200AD0ED000A75
:1025B00080EE801A4F4880ED001A3F4890ED020AE5
:1025C0004D4880ED000A90ED000A4848D0ED000A21
:1025D00070EE600A90ED000A464890ED001A01EE98
:1025E000200A424880ED000A424890ED000AF7EECA
:1025F000000A30EEC00A3E48D0ED000A20EE200A64
:1026000080ED000A2F4890ED000A86ED000A33485D
:1026100090ED000A86ED010A344890ED000A86ED3F
:10262000020A2548D0ED040A3448B0F9000000EE53
:10263000100AB8EEC00A30EEC00A1F4880ED040A46
:1026400090ED040ADFED2E0A80EE201A80ED041AC8
:1026500086ED031AD0ED050A2A48B0F9000000EE15
:10266000100AB8EEC00A30EEC00A134880ED050A21
:1026700090ED050ADFED220A80EE201A80ED051AA2
:1026800086ED041AD0ED060A0D48B0F9000000EE00
:10269000100AB8EEC00A30EEC00A074880ED060AFC
:1026A00090ED060ADFED160A80EE201A80ED061A7C
:1026B00086ED051ABDE8FF87A408022088020020E5
:1026C0007E020020D8010020E8010020BC74933C69
:1026D00083C00A3FEC010020E0010020100200202E
:1026E000F8010020FC010020F0010020140200206D
:1026F000080200200C020020000200207A020020C4
:10270000333303427C02002010B52DED0C8B0446C0
:102710008748FFF743FC864890ED020AF8EE000A6E
:1027200020EE200AD0ED020A20EE200AD0ED030AA6
:10273000B0EE001A60EE810A90ED031A00EEC10AB5
:10274000F7EE000A30EE200A10EE101A084605F0E7
:1027500089FC41EC1C0B764890ED010AF0EE000A72
:1027600020EE200AD0ED020A20EE200AD0ED000A69
:10277000B0EE001A60EE810A90ED031A00EE810AB5
:1027800010EE101A084605F06DFC41EC1D0BB0EE82
:102790004C1AF0EE6C1AB0EE4D0AF0EE6D0A01F034
:1027A000F3FBB0EE40BAF0EE60BA51EC1B0B04F054
:1027B00015FF41EC1A0B9FED5F0B53EC102B05F04E
:1027C00091F941EC190B9FED5D0B53EC102B04F0CC
:1027D000EBFF41EC180B04F00DFF00EE100A84ED46
:1027E000000A534890ED010AF8EE000A20EE200A94
:1027F000D0ED030A20EE200AD0ED000AB0EE001A58
:1028000060EE810A90ED021A00EE810A10EE101AB5
:10281000084605F027FC41EC1C0BB0EE4C0AF0EE2C
:102820006C0A01F095F8B0EE40BAF0EE60BA51ECE7
:102830001B0B04F0D3FE41EC1A0B9FED3E0B53EC47
:10284000102B05F04FF941EC190B9FED3C0B53ECAD
:10285000102B04F0A9FF41EC180B04F0CBFE00EEA6
:10286000100A84ED010A324890ED010AF8EE000AE0
:1028700020EE200AD0ED010A20EE200AD0ED020A57
:10288000B0EE001A60EE810A90ED021A00EEC10A65
:10289000F7EE000A30EE200A10EE101A084605F096
:1028A000E1FB41EC1B0B224890ED020AF0EE000A1E
:1028B00020EE200AD0ED030A20EE200AD0ED000A17
:1028C000B0EE001A60EE810A90ED011A00EE810A66
:1028D00010EE101A084605F0C5FB41EC1C0BB0EEDB
:1028E0004B1AF0EE6B1AB0EE4C0AF0EE6C0A01F0E7
:1028F0004BFBB0EE40AAF0EE60AA9FED0E0B53EC3E
:10290000102B51EC1A0B05F0EDF841EC190B9FED73
:102910000B0B53EC102B04F047FF41EC180B04F0A9
:1029200069FE00EE100A84ED020ABDEC0C8B10BDAE
:102930006008022000000000008066400000006087
:10294000FB21094010B586B000241422104901A8CB
:10295000FDF7D2FD642002F03BF9752000F01CF871
:102960000C49087000BF0DE001AA02EB4402517847
:1029700001AA12F8140000F045F8012002F028F92D
:10298000601CC4B20A2CEFDB002006B010BD0000B2
:102990005C8100087802002010B5044600200B4935
:1029A000086044F080000A4908700846007800F08A
:1029B00087FA44F0800000F083FA0649087001208D
:1029C0000549C1F898020348007810BD9882424238
:1029D0002A030020290300200080424210B504464B
:1029E00044F08000054908700846007800F068FA55
:1029F000034908700846007810BD00002C03002031
:102A00002B03002070B505460C4600200A490860DB
:102A100005F07F00094908700846007800F050FA78
:102A200006480470007800F04BFA01200449C1F810
:102A30009802002070BD00009882424228030020C6
:102A40000080424200BFFEE77047000070B50021E1
:102A500000230F22C4781CB3174C246804F4E064EC
:102A6000C4F5E064C4F30721C1F10404E3B20A41F0
:102A700044789C40E1B28478144021430C07210E35
:102A80000E4C05786155047804F01F050124AC4014
:102A900005786D11AD0005F1E025C5F8004109E0AC
:102AA000047804F01F050124AC40054D067876112A
:102AB00045F8264070BD00000CED00E000E400E0A9
:102AC00080E100E002490143024A116070470000C2
:102AD0000000FA050CED00E000B58BB001210846BE
:102AE00000F09CF80121102000F098F80121084620
:102AF00000F0C4F8012208214448FEF700FE01223C
:102B00000E214348FEF7FBFD4FF480700990022030
:102B10008DF8280000208DF829008DF82A008DF806
:102B20002B0009A93948FEF7A2FD4FF48040099017
:102B300009A93748FEF79BFD0121084600F0AEF8D1
:102B40000021012000F0AAF844F61F600790B3208E
:102B5000ADF818000020ADF81A00ADF8200006A965
:102B60002C4800F031FC6020ADF804000120ADF8E5
:102B700006000020ADF81000ADF808000820ADF800
:102B800012004001ADF814000020ADF816004FF41B
:102B90007A70039001A91F4800F080FB01A91D482D
:102BA00000F0C4FB08211B4800F0B6FB08211948BF
:102BB00000F0F8FB0121174800F028FB012115481F
:102BC00000F042FB0121134800F032FB03F008F84B
:102BD0000121202000F022F84FF4806009900020AD
:102BE0008DF828008DF82A0003208DF82900012097
:102BF0008DF82B0009A90848FEF739FD4FF48061D4
:102C00000548FEF79FFD0BB000BD0000000002402C
:102C100000100240000001400014024029B1064AA1
:102C200012680243044B1A6004E0034A12688243AC
:102C3000014B1A60704700003038024029B1064A43
:102C400012680243044B1A6004E0034A126882438C
:102C5000014B1A60704700004038024029B1064A13
:102C600012680243044B1A6004E0034A126882436C
:102C7000014B1A60704700002038024029B1064A13
:102C800012680243044B1A6004E0034A126882434C
:102C9000014B1A60704700004438024029B1064ACF
:102CA00012680243044B1A6004E0034A126882432C
:102CB000014B1A607047000024380240F0B5002133
:102CC00000220024022500260223324F3F6807F02D
:102CD0000C0121B1042905D0082937D105E02E4F78
:102CE000076036E02D4F076033E02A4F3F1F3F68F3
:102CF000C7F38056274F3F1F3F6807F03F036EB171
:102D0000264FB7FBF3F7DFF88CC0ACF1040CDCF80E
:102D100000C0CCF3881C07FB0CF40CE01E4FB7FB83
:102D2000F3F7DFF870C0ACF1040CDCF800C0CCF3B2
:102D3000881C07FB0CF4174F3F1F3F68C7F3014780
:102D40007F1C7D00B4FBF5F7076002E0124F0760BF
:102D500000BF00BF0F4F3F6807F0F0010909104F97
:102D60007A5C0768D74047600A4F3F6807F4E05134
:102D7000890A0B4F7A5C4768D7408760054F3F68E8
:102D800007F46041490B064F7A5C4768D740C7603B
:102D9000F0BD0000083802400024F400001BB7001A
:102DA0001400002000B587B001212020FFF736FF76
:102DB00001210220FFF732FF01210805FFF75EFF26
:102DC0004FF46070059002208DF8180000208DF8F7
:102DD0001A0003208DF8190000208DF81B0005A9AA
:102DE0003448FEF744FC4FF48070059002208DF8C3
:102DF000180000208DF81A0003208DF8190000201B
:102E00008DF81B0005A92C48FEF731FC40200590E9
:102E100001208DF8180000208DF81A0003208DF88D
:102E2000190000208DF81B0005A92248FEF71FFCA1
:102E3000052207211F48FEF762FC052206211D48D6
:102E4000FEF75DFC052209211A48FEF758FC052211
:102E500008211848FEF753FC01210805FFF71EFF63
:102E600000214FF48010FFF719FF0020ADF800009B
:102E70004FF48270ADF802000020ADF80400ADF808
:102E80000600ADF808004FF40070ADF80A003020DD
:102E9000ADF80C000020ADF80E000A20ADF81000CF
:102EA0006946064800F066F80121044800F048F839
:102EB00007B000BD00140240000402400050014071
:102EC00070B505460126002422E0012E0FD1022113
:102ED000104800F041F850B1002401E0601CC4B279
:102EE000C82CFBDB29460B4800F042F800267EB9CF
:102EF0000121084800F030F850B1002401E0601CC6
:102F0000C4B2C82CFBDB034800F02FF8C0B270BD80
:102F1000DBE700000050014010B504460748008878
:102F20004FF6C771084005490880084600882043CD
:102F300008800121014800F003F810BD0050014055
:102F400021B1028842F04002028004E002884FF67C
:102F5000BF731A40028070470246002013890B405D
:102F60000BB1012000E000207047014688897047BE
:102F70008181704710B50022028802F441520B880B
:102F80004C8823438C882343CC8823430C892343D8
:102F90004C8923438C892343CC8923431A430280E1
:102FA000838B4FF2FF74234083830B8A038210BD0F
:102FB0000CB50020019000904148006840F480303A
:102FC0003F49086000BF3E48006800F400300090B0
:102FD0000198401C0190009818B90198B0F5A04FD5
:102FE000F1D13748006800F4003010B101200090A2
:102FF00001E0002000900098012860D13048403066
:10300000006840F080502E49403108602D4800682B
:1030100040F440402B49086029480830006828499E
:10302000083108600846006840F40040086008461F
:10303000006840F4A05008602348091F0860081F7A
:10304000006840F08070091F086000BF1C480068DD
:1030500000F000700028F9D01A48006840F4803071
:103060001849086000BF1748406800F48030002805
:10307000F9D01448006840F400301249086000BFDD
:103080001048406800F400300028F9D040F2057084
:103090000E4908600A480830006820F0030008491B
:1030A000083108600846006840F00200086000BF70
:1030B00003480830006800F00C000828F8D10CBD67
:1030C0000038024000700040062D4008003C0240DD
:1030D000042808D14FF0E021096941F004014FF0C4
:1030E000E022116107E04FF0E021096921F00401BD
:1030F0004FF0E0221161704710B504F017F8012875
:1031000001D003F0C1FC10BD10B51548006840F4B3
:103110007000134908601348006840F0010011492D
:10312000086000200F49083108600E4800680E4909
:1031300008400C4908600D48091D0860081F006818
:1031400020F48020091F0860002006490C31086027
:10315000FFF72EFF4FF0006001498039086010BD75
:1031600088ED00E000380240FFFFF6FE103000243A
:103170000EB569464FF0804000F026F9012108465F
:10318000FFF75CFD5420ADF800000020ADF8020010
:1031900042F2107001900020ADF80800012188076C
:1031A00000F046F869464FF0804000F00DF90EBD82
:1031B00010B50121084800F056F860B10121064819
:1031C00000F030F8054802684068521C40F10000E9
:1031D00002490A60486010BD00040040400300201E
:1031E00010B50121074800F03EF8012804D1064837
:1031F000FFF78AFAFEF7A8FA0121024800F015F855
:1032000010BD0000000C00407008022021B10288AF
:1032100042F08002028004E002884FF67F731A4079
:1032200002807047CA4302827047CA4302827047D5
:1032300021B1028842F00102028004E002884FF6C8
:10324000FE731A400280704731B1B0F8442042F456
:103250000042A0F8442005E0B0F84420C2F30E027A
:10326000A0F84420704730B5024600200023002417
:10327000158A05EA0103958905EA010413B10CB129
:10328000012000E0002030BD1AB183890B43838107
:1032900002E083898B4383817047000070B500246E
:1032A00000220023058C4FF6FE7635400584028C03
:1032B0008388048B4FF68F752C40B51E2C400D88EB
:1032C0002C43751E2A408D892A434D882A43104D70
:1032D000A84202D00F4DA84213D14FF6F7752A40ED
:1032E000CD892A434FF6FB752A408D882A434FF635
:1032F000FF652B404FF6FF552B400D8A2B434D8A1F
:103300002B43838004838D684563028470BD000075
:1033100000000140000401400A460021018B4FF6E5
:10332000F7731940114301837047000070B5002204
:1033300000230024058C4EF6FF7635400584038C6F
:103340008488828B48F6FF752A404FF6FF452A4055
:103350000D884FF6FF7606EA05252A434DF6FF75E0
:103360002B408D8906EA05352B434D8806EA053545
:103370002B430A4DA84202D0094DA84208D14BF672
:10338000FF752C400D8A4FF6FF7606EA85152C4313
:10339000848082838D680564038470BD00000140D1
:1033A000000401400A460021818B4FF2FF7319404F
:1033B0004FF6FF7303EA0223194381837047416389
:1033C000704701647047000000220288184B984241
:1033D0000ED0184B98420BD0B0F1804F08D0164B4E
:1033E000984205D0154B984202D0154B984204D113
:1033F0004FF68F731A404B881A43124B984207D0EE
:10340000114B984204D04FF6FF431A400B891A43E0
:1034100002804B68C3620B880385054B984202D03B
:10342000044B984201D18B7A038601238382704733
:10343000000001400004014000040040000800407A
:10344000000C004000100040001400401FB504466E
:1034500001210820FFF7F2FB029440F25130ADF851
:1034600004000020ADF80600ADF80C0001A90D48DD
:10347000FFF7AAFF012211460A48FFF705FF0121C5
:103480000848FFF7D5FE32208DF8000003208DF8A4
:1034900001008DF8020001208DF803006846FFF757
:1034A000D5FA1FBD000C004000B597B00121484877
:1034B000FFF7B4FB01211020FFF7E0FB07221146C4
:1034C0004448FEF71CF98020119002208DF8480036
:1034D00000208DF84A0003208DF8490000208DF867
:1034E0004B0011A93B48FEF7C2F83B4800F0DCF85E
:1034F0003A4813900020ADF85000ADF852004FF458
:103500008060ADF854000420ADF856000020ADF8FE
:10351000580013A9304800F08FF9002240F22551DD
:103520002D4800F063F901212B4800F0A7F8012293
:103530004021294800F0AEF844208DF840000120D9
:103540008DF8410000208DF8420001208DF84300E5
:1035500010A8FFF77BFA00212148FDF753FF00BFB9
:103560001F48006800F001000028F9D11C48FDF751
:1035700055FF4FF0006001901748001D0290194858
:1035800003900020049012200590002006904FF434
:10359000806007900020089009904FF480700A9096
:1035A0004FF440300B9000200C900D900E900F9037
:1035B00001A90B48FEF72EF8012210210848FEF75A
:1035C0000BF801210648FDF71DFF17B000BD0000F4
:1035D000020040000004024000100140A0860100EB
:1035E000886402405C12022010B540F22551054863
:1035F00000F0D2F820B140F22551024800F02FF837
:1036000010BD00000010014010B540F225510C48DB
:1036100000F0C2F801280CD140F22551084800F012
:103620001EF8074800F072F9C4B2214605A0FCF765
:10363000B5FE40F22551024800F011F810BD00001F
:103640000014014025630D0A0000000001F400721F
:10365000B2F5007F00D100BFCA430280704710B5A9
:103660000022002340F66A14A14200D100BF0A12D2
:1036700001249440A3B2DC43048010BD21B18289AF
:1036800042F40052828104E082894DF6FF731A40B1
:10369000828170471AB1838A0B43838202E0838A56
:1036A0008B4383827047000010B504463248844241
:1036B00008D101211020FFF7F1FA00211020FFF7B7
:1036C000EDFA57E02D48844209D101214804FFF763
:1036D000C5FA00214FF40030FFF7C0FA4AE028484D
:1036E000844209D101218804FFF7B8FA00214FF480
:1036F0008020FFF7B3FA3DE02248844209D101213E
:10370000C804FFF7ABFA00214FF40020FFF7A6FA38
:1037100030E01D48844209D101210805FFF79EFAD7
:1037200000214FF48010FFF799FA23E017488442F4
:1037300008D101212020FFF7B1FA00212020FFF756
:10374000ADFA17E01248844209D101218807FFF73A
:1037500085FA00214FF08040FFF780FA0AE00D481B
:10376000844207D101214005FFF778FA0021600566
:10377000FFF774FA10BD0000001001400044004043
:1037800000480040004C0040005000400014014040
:1037900000780040007C004070B502460024002301
:1037A0000025002040F66A16B14200D100BFC1F3E7
:1037B000421501F01F03012606FA03F3012D02D181
:1037C0009689334006E0022D02D1168A334001E08B
:1037D000968A33400C12012606FA04F41688344007
:1037E00013B10CB1012000E0002070BDF0B503461C
:1037F000002400260025002040F66A17B94200D1B7
:1038000000BF1846C1F3421401F01F06012707FA52
:1038100006F5012C01D10C3004E0022C01D110304E
:1038200000E014301AB107682F43076002E0076810
:10383000AF430760F0BD00002DE9FF4705460E4687
:103840000024A14600BFA046B08900B100BF2C8A69
:1038500024F44054F08804432C82AC8941F20C607B
:103860008443B08831890843718908430443AC819B
:10387000AC8A24F44074B0890443AC826846FFF7F4
:103880001DFA2048854202D01F48854202D1DDF84A
:103890000C9001E0DDF80890A88900F4004040B1E8
:1038A00009EBC90000EB091031684900B0FBF1F7E2
:1038B00007E009EBC90000EB091031688900B0FB93
:1038C000F1F76420B7FBF0F004012009642101FB4B
:1038D0001078A88900F4004040B1322000EBC80005
:1038E000B0FBF1F000F00700044308E0322000EBE9
:1038F00008106421B0FBF1F000F00F0004432C81AC
:10390000BDE8FF870010014000140140014688888F
:10391000C0F30800704700BFFEE703B40198410000
:10392000009850EAC12018BF04204A0D18BF40F08B
:10393000010040F2FF72B2EB515F08BF40F002009D
:10394000012808BF052002B07047000000000000F9
:1039500070B5C1482DED020B2DED0E8B82B0119D7F
:1039600025F000449FEDBEDB9FEDBFEB84423EDBC4
:10397000A4F140511098A1F17F6108430FD0BC48D9
:10398000844202DC28D1109830B39DED100B02B0B8
:10399000BDEC0E8B02B0BDE8704000F0A6BC9DED02
:1039A000100B53EC1D2B51EC100B04F09BF89DED0C
:1039B000100B41EC180B53EC1E2B51EC100B04F0C8
:1039C00091F853EC182B03F047FE41EC100B02B0BA
:1039D000BDEC0E8B02B070BD0120FCF7D0FD02B033
:1039E000BDEC0E8B02B0BDE8704000F095BCA14864
:1039F0009FEDA18B844256DA9DED100BB4F1795FF7
:103A00000ADA51EC100BFFF788FF042808BF00F01A
:103A100093FC9DED100BDAE753EC102B51EC100BDF
:103A200004F060F841EC190B95480621B0EE490A04
:103A3000F0EE690A784400F0DCFB53EC192B51ECF2
:103A4000100B04F04FF841EC1A0B8E48B0EE490A07
:103A5000F0EE690A0421784400F0CBFB53EC192BFB
:103A600051EC100B04F03EF853EC182B03F0F4FD6E
:103A700041EC100B51EC1A0B53EC102B03F094FE9D
:103A8000CDE900019DED000B53EC102B9DED100BCB
:103A900051EC100B04F026F89DED101B53EC112B8C
:103AA00003F0DAFDD2E09DED100B51EC100B01F0AC
:103AB000B7F853EC182B04F013F99FED730BCDE915
:103AC000000153EC102B9DED000B51EC100B04F09A
:103AD00009F841EC190B6E480621B0EE490AF0EEE8
:103AE000690A784400F085FB53EC192B51EC100B5C
:103AF00003F0F8FF41EC1B0B6648B0EE490AF0EE0C
:103B0000690A0421784400F074FB53EC192B51EC42
:103B1000100B03F0E7FF53EC182B03F09DFD41EC75
:103B20001C0B51EC190B02F0CBFA41EC180B5A4864
:103B30009FED5BABA04222DC53EC1C2B51EC1B0B2A
:103B400003F032FECDE900019DED000B51EC180BA6
:103B500053EC102B03F0C6FF53EC182B03F07CFD45
:103B600053EC1A2B03F0BEFF53EC1D2B04F090F91D
:103B700053EC1E2B04F0B4F841EC100B5FE08DED1C
:103B8000008B002000909DED000B51EC180B53ECC6
:103B9000102B03F061FD9DED000B41EC1E0B53EC6F
:103BA000102B51EC100B03F09DFF53EC192B04F07C
:103BB00097F853EC1E2B03F0F7FD41EC190B53EC77
:103BC0001C2B51EC1B0B03F0EFFD41EC1B0B53ECDA
:103BD0001A2B51EC190B03F085FF53EC1D2B04F04D
:103BE0007FF841EC190B53EC1A2B51EC180B03F036
:103BF00079FF53EC1B2B03F075FF53EC192B04F0EA
:103C000047F99DED000B41EC180B53EC1A2B51ECCE
:103C1000100B03F067FF9FED249B53EC192B04F06E
:103C20005FF841EC100B51EC180B53EC102B04F027
:103C30002FF953EC192B04F053F841EC100B002D25
:103C40003FF7C5AE51EC100B03F0C8FC41EC100B74
:103C5000BDE60000000000000000F03F0000000092
:103C6000075C143326A6913C182D4454FB21F93FE0
:103C70000000F07F0000E03F000000000000F03F87
:103C80003847000046470000000000000000E03F09
:103C90008A460000984600003333EF3F00000000E2
:103CA0000000000000000040182D4454FB21E93FB3
:103CB00070B59B482DED020B2DED068B079D25F071
:103CC0000044A04218DC9748844202DC0AD10698DE
:103CD00040B19DED060BBDEC068B02B0BDE8704017
:103CE00000F003BB002DCCBF9FED8F0B9FED900B21
:103CF000BDEC068B02B070BD8F48A04215DD8F4829
:103D0000A042D8BF4FF0FF3458DD9DED060B51ECBB
:103D1000100BFFF702FE042808BF00F00DFB9DED1D
:103D2000060BBDEC068B02B070BD9DED060B51EC91
:103D3000100B00F075FFCDE9060181489FED828BE5
:103D4000A0423CDD8248A0421FDD00249FED82ABF3
:103D50009DED060B53EC1A2B51EC100B03F07CFC81
:103D60009DED060B41EC190B53EC1A2B51EC100B8B
:103D700003F0B8FE53EC182B04F08AF853EC192B1F
:103D800003F012FDCDE9060149E09DED060B01248B
:103D900053EC182B51EC100B03F05EFC9DED060B61
:103DA00041EC190B53EC182B51EC100B04F070F88C
:103DB00053EC192B03F0F8FCCDE906012FE068481D
:103DC000A0421FDD02249FED689B9DED060B53EC86
:103DD000192B51EC100B03F085FE53EC182B03F05C
:103DE0003BFC9DED060B41EC180B53EC192B51ECF1
:103DF000100B04F04DF853EC182B03F0D5FCCDE973
:103E000006010CE09DED060B032453EC102B9FEDF7
:103E1000580B51EC100B03F0C7FCCDE906019DEDEA
:103E2000060B53EC102B51EC100B03F05BFE41EC36
:103E3000180B53EC182B03F055FE41EC190B4E48B0
:103E40000621B0EE490AF0EE690A784400F0D1F993
:103E500053EC182B51EC100B03F044FE41EC180B03
:103E60004648B0EE490AF0EE690A0521784400F0B0
:103E7000C0F953EC192B51EC100B03F033FE41EC5D
:103E8000100B51EC180B53EC102B002C0EDA03F036
:103E9000E3FB9DED061B53EC112B03F023FE9DED80
:103EA000061B53EC112B03F01BFF35E003F0D4FB92
:103EB0009DED061B53EC112B03F014FE41EC100B8F
:103EC0002F48784400EBC40090ED001B51EC100B20
:103ED00053EC112B03F0DCFF9DED061B53EC112B73
:103EE00003F0D6FF41EC100B2648784400EBC400E9
:103EF00090ED001B51EC100B53EC112B03F0F0FE76
:103F000041EC100B002DA2BFBDEC068B02B070BDC2
:103F100051EC100B03F062FB41EC100B01E70000C9
:103F2000000010440000F07F182D4454FB21F93F9D
:103F3000182D4454FB21F9BF0000DC3F0000203E57
:103F40000000F33F00000000000000000000F03F10
:103F50000000E63F000000000000000000000040FC
:103F60000080034000000000000000000000F83F57
:103F7000000000000000F0BFDA43000090430000A2
:103F80001A430000D242000070B56B4E2DED040BB9
:103F90002DED028B82B0DDF81CC0DDE905235C420B
:103FA0002CF000411C4341EAD474049D22F00040EF
:103FB000B44205D86C422C4340EAD474B4420BD9C5
:103FC0009DED061B9DED040B02B0BDEC028B04B011
:103FD000BDE8704000F093B9ACF14054A4F17F64A7
:103FE0001C430BD0022404EAAC7444EAD2740543A7
:103FF0009FED538B9FED542B07D015E09DED040BE7
:1040000051EC100B00F0D6FA42E0002C11BF012C4D
:104010009DED040B02B0BDEC028B04BF04B070BD7B
:10402000022C38D0032C3BD00B439FED491B9FED56
:104030004A0B0AD0B14218D1B04209D121F08041D7
:1040400020F08040079105900FE0002A15DA10E07B
:10405000434B7B44002C08BF93ED000B0DD0012C8B
:1040600010D0022C17D0032C1AD0B0421DD1002A38
:1040700003DAB0EE410AF0EE610A02B0BDEC028B49
:1040800004B070BD93ED000B51EC100B03F0A6FAD9
:1040900041EC100BF1E7B0EE480AF0EE680AECE7ED
:1040A000B0EE420AF0EE620AE7E7401A00153C283B
:1040B000C8BF8DED000B19DCBCF1000FBEBF10F1C5
:1040C0003C0F9FED290B8DED000B0FDB9DED060BDB
:1040D00053EC102B9DED040B51EC100B03F064FB23
:1040E00000F09EFD00F066FACDE90001002C08BF4B
:1040F0009DED000BC1D0012C10D0022C9FED1C0BAC
:1041000053EC102B9DED000B51EC100B0DD003F078
:10411000BFFE53EC182B03F0BBFEB9E7019880F00B
:10412000004001909DED000BA7E703F0B1FE53ECBA
:10413000182B03F0D5FDABE70000F07F0000000076
:10414000182D4454FB210940182D4454FB2109C06B
:10415000182D4454FB21F9BF182D4454FB21F93F7D
:10416000024200000000000000000000000000000B
:10417000075C143326A6A13C00B52DED048BB0EEF0
:10418000409AF0EE609A83B051EC190B03F0B4FD45
:1041900041EC180B18EE100A18EE901A8DED008BFA
:1041A000002818BF0120084320F00040C0F17F60C4
:1041B00000F1E040C00F14D019EE101A19EE900A69
:1041C0008DED009B002918BF0121084320F000401D
:1041D000C0F17F6000F1E040C00F04BF0120FCF798
:1041E000CEF9B0EE480A03B0F0EE680ABDEC048BDD
:1041F00000BD70B504462DED028B4D1E00EBC500D1
:10420000B0EE408AF0EE608A90ED000B35F00600CB
:1042100017D053EC182B51EC100B03F063FC41EC5E
:10422000100B6D1E04EBC50090ED001B51EC100B44
:1042300053EC112B03F010FA41EC100B35F0060093
:10424000E7D1022D36D0042D1CD0062D1CBFBDECAD
:10425000028B70BD53EC182B51EC100B03F042FC99
:1042600094ED0A1B53EC112B03F0F6F953EC182BC9
:1042700003F038FC94ED081B53EC112B03F0ECF920
:1042800041EC100B53EC182B51EC100B03F02AFCF3
:1042900094ED061B53EC112B03F0DEF953EC182BB5
:1042A00003F020FC94ED040B53EC102B03F0D4F935
:1042B00041EC100B53EC182B51EC100B03F012FCDB
:1042C00094ED021B53EC112B03F0C6F953EC182BA1
:1042D00003F008FC94ED001B53EC112B03F0BCF928
:1042E000BDEC028B41EC100B70BD10B553EC102BE4
:1042F00051EC100B03F0B0F941EC100B10BD10B5F0
:1043000053EC112B51EC100B03F0A6F941EC100B00
:1043100010BD0000000000009FED050B10B553EC30
:10432000102B51EC100B03F03FFA41EC100B10BDB9
:1043300000000000000000009FED050B10B553ECDD
:10434000102B51EC100B03F0CDFB41EC100B10BD0A
:10435000000000000000001000BF704710B52DEDF8
:10436000088B01218807FEF763FF6F4880686E495C
:10437000C98A01EB810100EB810000B26B49088022
:104380006949B1F9181001EB8101880003F093FB32
:1043900041EC190B6449C86803F08DFB9FED640B79
:1043A00053EC102B03F09EFB53EC192B03F054F944
:1043B00003F052FB00B2604908805C48B0F900008D
:1043C00003F079FB9FED5D0B53EC102B03F08AFBA0
:1043D00003F042FB00B25B4908805748B0F9000087
:1043E00003F069FB9FED580B53EC102B03F07AFBA5
:1043F00003F032FB00B2564908804F48B0F9000084
:10440000002802DD1920088008E04B48B0F90000C0
:10441000002803DA6FF018004D49088046480088EC
:10442000F8B14C48B0F900004949B1F9001008440E
:104430004949B1F90010884214DC4648B0F900003F
:104440004349B1F9001008444449B1F900108842C9
:1044500008DB404800883E490988084400B23D49CD
:10446000088016E03B48B0F900003949B1F9001066
:1044700008443949B1F90010884205DD3648B0F9E1
:1044800000003449088004E03448B0F900003149A4
:1044900008802548407D01281CD13148008801282A
:1044A0000AD1304800882749098808442E490988DC
:1044B000084400B22C49088029480088E0B901204E
:1044C0002A49088000201949088040F6D220264950
:1044D000088011E01448407D03280DD101202049B7
:1044E0000880204800881749098808441E4909881F
:1044F000084400B21C4908801D4890ED010ADFED18
:104500001D0A20EE200ADFED1C0A20EE200ABDEE77
:10451000C00A10EE100A19490988081A00B2174992
:104520000880BDEC088B10BD7512022034010020FC
:10453000333333333333D33F360100209A9999997B
:104540009999B93F3E010020000000000000F03FB3
:10455000400100203A0100204801002046010020CF
:104560009E0000205801002038010020600100203A
:10457000700802200000B641CDCC4C3D3C0100202B
:1045800006480088064908800648008806490880D1
:10459000064800880649088070470000F80000209F
:1045A0004A010020000100204C01002008010020E9
:1045B0004E01002010B541EC100BFFF779FB51ECD8
:1045C000100B10BD10B52DED0A8B84480088012812
:1045D0001FD18348407D012810D18248B0F90000E6
:1045E00040F64C31884209DA7E48B0F9000040F6C6
:1045F0005821884202DD00207849088040F6B83012
:104600007949088079490880794908807949088082
:10461000E1E0734840687249C98B01F0010101EB88
:10462000C10202EB011100EB81006D49C98B01F061
:10463000020101EBC10202EB0111A0EB810000B20B
:104640006D490880664800686549C98B01F008011A
:1046500001EB810100EB01106149C98B01F00401FC
:1046600001EB8101A0EB011000B2644908805C48B5
:1046700080685B49C98A01EB810100EB810000B2CF
:104680005F4908805C480088C0EB001000B25D49BB
:1046900008805A480088C0EB001000B25A490880D0
:1046A00057480088800000B2584908804C49C98B9F
:1046B00001F0800003F0FFF99FED550B53EC102B38
:1046C00003F010FA9FED540B53EC102B03F008FB92
:1046D00041EC190B4249C98B01F0400003F0EBF9A2
:1046E0009FED4B0B53EC102B03F0FCF99FED4A0BA5
:1046F00053EC102B02F0B0FF53EC192B03F0F2F93E
:1047000002F078FF464908603E48B0F9000000EE2C
:10471000100AB8EEC00A0846D0ED000A20EE200AC2
:10472000BDEEC00A10EE100A00B23E4908803648BD
:10473000B0F9000000EE100AB8EEC00A3848D0ED1B
:10474000000A20EE200ABDEEC00A10EE100A00B2E8
:10475000354908802D48B0F9000000EE100AB8EE87
:10476000C00A2F48D0ED000A20EE200ABDEEC00A94
:1047700010EE100A00B22D4908802A4800882A4904
:104780000988084429490988084400B21949088061
:10479000244800884042244909880844234909885C
:1047A000084400B2124908801E48008840421E4951
:1047B0000988401A1D490988084400B20B4908803D
:1047C0001848008818490988401A18490988084477
:1047D00000B205490880BDEC0A8B10BD9E00002088
:1047E00075120220F8000020BA000020B800002056
:1047F000B6000020B4000020980000209A0000209D
:104800009C000020A6000020A8000020AA00002094
:10481000000000000000E03F000000000000F03F4A
:10482000BC000020A0000020A2000020A400002066
:104830000848408808490880084840880849088096
:104840000848408808490880084840880849088086
:1048500070470000C0000020AC000020C80000200D
:10486000AE000020D0000020B0000020D8000020C2
:10487000B200002010B59FED072ADFED071AB2EE57
:10488000041ADFED060A9FED060A064800F094F8C8
:1048900010BD0000000000000AD7A33C0000FA444D
:1048A00000803B4594060220B0EE401A10B99FEDFF
:1048B000400A704780ED041AC0ED030A70EEC11A79
:1048C000C0ED051A90ED000A90ED052A20EE020ACF
:1048D00080ED080A90ED090A90ED012AD0ED052A35
:1048E00002EE220A80ED090A90ED050A314A02EB38
:1048F000810292ED002A30EE420A90ED022A20EE6B
:10490000020A80ED0A0A90ED090A90ED072AB4EE3A
:10491000C20AF1EE10FA04DD90ED070A80ED090AF3
:1049200010E090ED090A90ED072AB1EE422AB4EEAC
:10493000C20AF1EE10FA05D290ED070AB1EE400A74
:1049400080ED090A90ED080A90ED092A30EE020A7E
:1049500090ED0A2A30EE020A80ED0B0A90ED0B0A68
:1049600090ED062AB4EEC20AF1EE10FA04DD90EDE5
:10497000060A80ED0B0A10E090ED0B0A90ED062A76
:10498000B1EE422AB4EEC20AF1EE10FA05D290ED71
:10499000060AB1EE400A80ED0B0A90ED050A054AC1
:1049A00002EB810282ED000A90ED0B0A81E7000024
:1049B00000000000C406022000B9704780ED001A14
:1049C000C0ED011A80ED022ADFED062AC0ED052AAE
:1049D000DFED042AC0ED042AC0ED070A80ED060AC7
:1049E00000BFEAE7000000002DE9FC4107460C4645
:1049F00015461E46380A8DF80000F8B28DF8010001
:104A0000200A8DF80200E0B28DF80300280A8DF824
:104A10000400E8B28DF80500300A8DF80600F0B207
:104A20008DF80700082269469001FBF7D5FFBDE825
:104A3000FC81000010B501213848B0F9000000EEFB
:104A4000100AF8EEC00A3648B0F9000000EE100A6D
:104A5000B8EEC00A3348FFF727FFBDEEC00A10EEDC
:104A6000100A00B22D49088002212F48B0F9000039
:104A700000EE100AF8EEC00A2C48B0F9000000EE73
:104A8000100AB8EEC00A2748FFF70EFFBDEEC00AB5
:104A900010EE100A00B22449088003212448B0F91E
:104AA000000000EE100AF8EEC00A2248B0F900003B
:104AB00000EE100AB8EEC00A1A48FFF7F5FEBDEE88
:104AC000C00A10EE100A00B21949088004211A48E1
:104AD000B0F9000000EE100AF8EEC00A1748B0F96D
:104AE000000000EE100AB8EEC00A0E48FFF7DCFE28
:104AF000BDEEC00A10EE100A00B20F490880084649
:104B0000B0F900300A48B0F900200748B0F90010A9
:104B10000248B0F90000FFF767FF10BDB4000020A5
:104B2000AC00002094060220B6000020AE00002059
:104B3000B8000020B0000020BA000020B200002021
:104B400010B5FFF73FFDFFF773FEFFF773FF10BDD2
:104B5000FFF790FE04E0FFF7F3FF0A2001F004FDE9
:104B6000F9E7000070B504460025681FFEF7B0FAAB
:104B7000134800681349B0FBF1F01349087010485E
:104B800000684FF4FA51B0FBF1F0104908600CB91D
:104B90004FF47A740A480068B0FBF4F0C5086D1E43
:104BA0004FF0E020006940F002004FF0E021086182
:104BB00008464561006940F00100086170BD0000D1
:104BC0000000002000127A00340300203803002087
:104BD00070B50346002400210020002200254FF07C
:104BE000E02675690D4E366803FB06F44FF0E026AB
:104BF000B16910E04FF0E026B06988420BD08842DE
:104C000002D20E1A324402E02E1A0E4432440146F9
:104C1000A24200D300E0EDE700BF70BD38030020E2
:104C200082B0CDE9000121F0004001909DED000B24
:104C300002B051EC100B704710B504464FF4807071
:104C400040FA04F10148FCF77DFD10BD0018024058
:104C500000BF054A128802F04002002AF9D0C2B211
:104C6000014B1B1D1A8070470014014010B5B2EEB5
:104C7000052ADFED131A9FED131ADFED130A9FEDDE
:104C8000130A134800F0B4F89FED122AF6EE001A4A
:104C90009FED111ADFED0D0A9FED100A104800F08C
:104CA000A7F89FED0C2AF0EE041A9FED0E1ADFED27
:104CB0000E0A9FED0E0A0E4800F09AF810BD000093
:104CC000CDCC8C3F5E0BA6410080A24400401C4628
:104CD000D8060220F628A041000096420050C346A4
:104CE00008070220000020420000FA4400409C46D1
:104CF00038070220F0EE401A10B99FED3C0A7047C9
:104D0000C0ED041AC0ED030A30EEE12A80ED052A59
:104D100090ED000AD0ED052A20EE220A80ED080A67
:104D200090ED090AD0ED012A90ED053A02EE830AD2
:104D300080ED090A90ED020AD0ED052A72EEC12A33
:104D400020EE220A80ED0A0A90ED090AD0ED072A2A
:104D5000B4EEE20AF1EE10FA04DD90ED070A80ED00
:104D6000090A10E090ED090AD0ED072AF1EE622A57
:104D7000B4EEE20AF1EE10FA05D290ED070AB1EEB8
:104D8000400A80ED090A90ED080AD0ED092A30EEBC
:104D9000220AD0ED0A2A30EE220A80ED0B0A90EDAD
:104DA0000B0AD0ED062AB4EEE20AF1EE10FA04DDA9
:104DB00090ED060A80ED0B0A10E090ED0B0AD0EDA5
:104DC000062AF1EE622AB4EEE20AF1EE10FA05D2FA
:104DD00090ED060AB1EE400A80ED0B0A90ED050A4F
:104DE000B0EE401A90ED0B0A89E7000000000000C9
:104DF00000B9704780ED001AC0ED011A80ED022A5B
:104E0000DFED062AC0ED052ADFED042AC0ED042AF5
:104E1000C0ED070A80ED060A00BFEAE700000000C7
:104E20007CB504460D461646280A8DF80200E8B205
:104E30008DF803000422694640F2FF20FBF7C8FE0C
:104E4000200A8DF80000E0B28DF8010002226946C8
:104E500040F2FF20FBF7C0FD7CBD10B500F078F8F4
:104E6000FFF77CFAFFF78CFB01F07AF810BDFFF733
:104E7000FDFE04E0FFF7F1FF0A2001F075FBF9E702
:104E8000F0EE400AF6EE001A60EEA11AB0EE611ADA
:104E9000B0EE600A10EE100A0749A1EB600000EEC8
:104EA000100A21EE002AF7EE081A42EE401A61EECF
:104EB000801AB0EE610A7047DF59375F1CB50121D7
:104EC0007020FDF7ABFE4FF48040009001208DF87C
:104ED000040000208DF8060003208DF80500012055
:104EE0008DF8070069460D48FCF7C1FB4FF40060E0
:104EF000009069460A48FCF7BAFB00F015F800F08C
:104F00001DF84FF4FF70009069460648FCF7AFFBB0
:104F10004FF4FF70FFF790FE1CBD0000001402402C
:104F2000001002400018024010B54FF480410248C2
:104F3000FCF708FC10BD00000014024010B54FF44F
:104F400000610248FCF7FEFB10BD000000100240AB
:104F500041F2EC300749088040F61C4006490880C1
:104F600040F6CA500549088041F2A2200449088051
:104F7000704700004201002044010020460100204B
:104F800048010020FBF7C6FB01F01EF901F046FCCA
:104F900000BFFEE71CB501218020FDF73FFE3C204D
:104FA000009001208DF8040000208DF806000320F9
:104FB0008DF8050001208DF8070069461948FCF7B7
:104FC00056FB01214020FDF729FE42F2020000902D
:104FD00001208DF8040000208DF8060003208DF8D4
:104FE000050001208DF8070069460F48FCF73FFBDC
:104FF0004FF400510C48FCF7A5FB04210948FCF7CD
:10500000A1FB08210748FCF79DFB10210548FCF790
:1050100099FB20210348FCF795FB02210248FCF78D
:1050200091FB1CBD001C0240001802402DE9F0411C
:1050300005460E461C4807681C480068001D01F024
:105040003DF950B91948006890F82C1001208840AB
:1050500017490968814316480160681C38B936B1A0
:1050600012480168091D134801F066F91AE07C191D
:105070000E4800684460BC4207D20C480168091D14
:105080000D48006801F03EF90CE008480168091D70
:105090000A48006801F036F909480068844201D2E4
:1050A00007480460BDE8F081700000205C0000202B
:1050B00074000020800602206400002060000020B0
:1050C0008C00002010B5044601F042F92448006825
:1050D000401C234908602348006840B92148046007
:1050E0000846006801280DD100F0E0F90AE01E48EA
:1050F000006838B91B480068C06AE16A884201D874
:105100001848046019480068401C1849086008469F
:105110000068606494F82C100120884014490968E4
:10512000084313490860E16A01EB8101114A02EB6F
:105130008100211D01F000F901F034F90A480068EE
:1051400068B108480068C06AE16A884207D24FF037
:10515000805009490860BFF34F8FBFF36F8F10BDB8
:105160006C0000205C0000207800002088000020F7
:1051700074000020B003022004ED00E010B501F03F
:10518000E7F810480068D0B90F4801F0ABF80F48B5
:1051900001F0A8F80C480E4908600C480D49086059
:1051A00000220C210A2001F089FC0649086008460B
:1051B000006820B108A10348006801F099F901F0E6
:1051C000F1F810BD2C000020880300209C03002073
:1051D0002400002028000020546D725100000000BF
:1051E00070B523E001F064FB1348006808B90120A2
:1051F00000E00020054602F003F9BDB901F0A8F86F
:105200000D48C068C468201D01F058F80B480068BC
:10521000401E0A4908600A480068401E08490860A4
:1052200001F0C0F8204600F060F800BF04480068B4
:105230000028D7D170BD00006C0602206C00002051
:105240006800002070B504460D46206C70B1216CDA
:10525000E0680844E0606168E068884201D3206843
:10526000E0602846226CE168FBF701F970BD2DE98A
:10527000F04104460F4615464FF00008A66B206C1F
:1052800040B9206860BB606802F00AF880460020E0
:10529000606025E07DB93946226CA068FBF7E7F82D
:1052A000216CA0680844A060D4E90110884217D39B
:1052B0002068A06014E03946226CE068FBF7D7F85C
:1052C000216CE068401AE0602168E068884203D2FF
:1052D000216C6068401AE060022D01D106B1761E93
:1052E000701CA0634046BDE8F08110B50446206BF9
:1052F00001F076F8204601F073F810BD0146084A27
:10530000126812680AB9012200E000220A600A68E5
:1053100022B9034A1268D268106800E00020704782
:105320002400002030B54FF40033174800F0070484
:105330002CB1C01D20F00700134C041B1B1B0246A0
:10534000124C22600024114D6C60D018083820F0F7
:1053500007000F4C206000240D4D2D686C600C4D33
:105360002D682C601146441A4C60094C24680C606E
:10537000084D4C682C60084D4C682C604FF0004480
:10538000064D2C6030BD0000B00300203800002026
:105390004000002048000020440000204C00002075
:1053A00000BFFFF71DFF064800680128F9D94FF03C
:1053B000805004490860BFF34F8FBFF36F8FF0E751
:1053C000B003022004ED00E02DE9F04106460D4651
:1053D00017469846069C0DB9246000E02760E663F6
:1053E00025640121204601F077FC84F850800020DC
:1053F000A064BDE8F0812DE9F05F82460F4690463B
:105400009B460A9E0C9C4FEA8801A522206BFBF765
:10541000A5F8A8F10100216B01EB800929F007092B
:1054200009F0070008B9012000E0002050B900BFD2
:10543000502080F31188BFF34F8FBFF36F8F00BFF1
:1054400000BFFEE7002507E0795D04F13400415517
:10545000785D00B902E06D1C102DF5D300BF00216E
:1054600043200155202E00D31F26E662E66400206B
:105470002065201D00F043FF04F1180000F03FFFFD
:105480002461C6F12000A06164620020606584F898
:1054900058005A465146484600F08CFB20600B9855
:1054A00008B10B980460BDE8F09F000010B500241F
:1054B00007E004EB84010F4A02EB810000F012FFC9
:1054C000641C202CF5D30C4800F00CFF0B4800F0B6
:1054D00009FF0B4800F006FF0A4800F003FF0A48E6
:1054E00000F000FF044809490860044808490860C2
:1054F00010BD0000B0030220300602204406022046
:10550000580602206C06022080060220600000205F
:105510006400002010B50146164800E000680368EA
:105520008B42FBD30246436813448B4204D1436849
:105530004C682344436001460A464B6813440468A0
:10554000A34211D10C4C03682468A34208D04B68D5
:105550000468646823444B6003681B680B6005E0C3
:10556000054B1B680B6001E003680B60884200D0AC
:10557000016010BD38000020400000202DE9F041FE
:1055800004460D4616461F464FF00008656024612C
:10559000B5420CD8F01BA169884202D34FF0010834
:1055A00011E0211D0948006800F0ACFE0BE0BE428E
:1055B00004D2BD4202D34FF0010804E0211D04488B
:1055C000006800F09FFE4046BDE8F0812800002002
:1055D0002400002070B5054600F0BAFEA86B08B99B
:1055E000012400E0002400F0DDFE204670BD70B50F
:1055F000054600F0ADFEA86BE96B884201D101249D
:1056000000E0002400F0CEFE204670BD2DE9F341FD
:105610000D460098846C002754B900BF502080F3D9
:105620001188BFF34F8FBFF36F8F00BF00BFFEE73E
:10563000A06BE16B884201D2012000E0002050B94C
:1056400000BF502080F31188BFF34F8FBFF36F8FDF
:1056500000BF00BFFEE7A06BE16B88421BD294F94C
:1056600045602A4669462046FFF701FE0746701C42
:1056700060B9606A08B9012000E0002050B904F167
:10568000240001F071FE28B1012703E0701C40B234
:1056900084F8450000BF3846BDE8FC81F8B50546F2
:1056A0000F4616480068C068C468201D00F006FE5A
:1056B000E06901281DD1A06941192B463A462046D0
:1056C000FFF75CFFA8B1002003462A460146009080
:1056D000204601F041FF064656B900BF502080F336
:1056E0001188BFF34F8FBFF36F8F00BF00BFFEE77E
:1056F00000BF2046616A8847F8BD000024000020F2
:1057000070B586B06AE00398002867DB059C606985
:1057100008B9012000E0002010B9201D00F0CEFDE6
:1057200002A800F0BDF8054603980A2854D2DFE825
:1057300000F009050731334F0608323400BF00BFBF
:1057400000BF00BF0498A269811803462A4620467C
:10575000FFF714FFE8B12046616A8847E069012835
:1057600017D1002000900498A1694218002319461F
:10577000204601F0F1FE064656B900BF502080F3E6
:105780001188BFF34F8FBFF36F8F00BF00BFFEE7DD
:1057900000BF22E000BF20E000BF0498A061A06924
:1057A00008B1012000E0002050B900BF502080F374
:1057B0001188BFF34F8FBFF36F8F00BF00BFFEE7AD
:1057C000A06941192B462A462046FFF7D7FE04E080
:1057D000204600F005FE00E000BF00BF00231A468F
:1057E00003A90448006801F095F900288BD106B0A0
:1057F00070BD00002C000020F8B505460C4601F0F5
:1058000057F8684600F04CF80646009820BB44B9AB
:10581000B54206D801F0F4FD31462846FFF73EFFB9
:105820001CE03CB10E480068006808B9012000E0A7
:1058300000200446A91B22460A48006800F06EFEBC
:1058400001F0DEFD50B94FF0805007490860BFF30A
:105850004F8FBFF36F8F01E001F0D2FDF8BD000064
:10586000280000202C00002004ED00E00A4909680F
:10587000096809B9012100E0002121B14FF0FF3191
:10588000064A116006E004490968C968C868034A05
:105890004168116070470000600000208C0000200B
:1058A00070B5044601F052FC054607480068854281
:1058B00004D200F00BF80120206001E000202060FD
:1058C00001480560284670BD340000202DE9F843EA
:1058D00032E024480068C068056822480068C06853
:1058E000C468201D00F0EAFC2046616A8847E06930
:1058F000012821D1A0694619AE4207D9666024610A
:10590000211D1848006800F0FDFC15E0002003464A
:105910002A4601460090204601F01EFE074657B970
:1059200000BF502080F31188BFF34F8FBFF36F8FFC
:1059300000BF00BFFEE700BF0A480068006808B962
:10594000012000E000200028C3D00648D0F80080E5
:1059500005480068034908600348C0F80080BDE8B6
:10596000F883000024000020280000200E48006872
:10597000401C08B9012000E0002050B900BF5020B1
:1059800080F31188BFF34F8FBFF36F8F00BF00BF4D
:10599000FEE700BF502080F31188BFF34F8FBFF3A5
:1059A0006F8F00BF00BFFEE75000002008B500BFAA
:1059B0006846FFF7A3FC044620460099FFF71CFF4A
:1059C000FFF79EFEF4E770B5044600F0C1FC94F9C1
:1059D00045501AE0A06C38B100212046FFF716FEB2
:1059E00088B100F069FE0EE0606A08B9012000E0AD
:1059F000002038B904F1240001F0B6FC18B100F021
:105A00005BFE00E003E0681E45B2002DE2DC00BF53
:105A1000FF2084F8450000F0C5FC00F099FC94F9E3
:105A2000445010E0206908B9012000E0002048B986
:105A300004F1100001F098FC08B100F03DFE681E72
:105A400045B200E001E0002DECDC00BFFF2084F84F
:105A5000440000F0A7FC70BD2DE9F04104464FF072
:105A6000000800F025FF4648006808B9FFF75AFC17
:105A700044480068204000286BD1D4B1083404F0B9
:105A80000700B0B104F00700C0F10800044404F0BE
:105A9000070008B9012000E0002050B900BF5020E5
:105AA00080F31188BFF34F8FBFF36F8F00BF00BF2C
:105AB000FEE7002C4DD034480068844249D8334E6C
:105AC0003046056801E02E462D686868A04202D283
:105AD00028680028F7D12A480068854239D0306804
