:020000040800F2
:100000003806002055020008110F0008B10E000844
:100010000D0F00086D040008D3190008000000004F
:100020000000000000000000000000007102000855
:10003000D50D0008000000007502000877020008D6
:1000400079020008790200087902000879020008A4
:100050007902000879020008790200087902000894
:100060007902000879020008790200087902000884
:100070007902000879020008790200087902000874
:100080007902000879020008790200087902000864
:10009000710400087902000879020008790200085A
:1000A0007902000879020008790200087902000844
:1000B00079020008F513000871140008790200089D
:1000C0007902000879020008790200087902000824
:1000D0007902000845170008B117000879020008E6
:1000E0007902000879020008790200087902000804
:1000F00079020008790200087902000879020008F4
:1001000079020008790200087902000879020008E3
:1001100079020008790200087902000879020008D3
:1001200079020008790200087902000879020008C3
:1001300079020008790200087902000879020008B3
:1001400079020008790200087902000879020008A3
:100150007902000879020008790200087902000893
:100160007902000879020008790200087902000883
:1001700079020008790200087902000800000000F6
:100180007902000879020008790200087902000863
:100190007902000879020008790200087902000853
:1001A00000000000000000007902000800F002F8E2
:1001B00000F041F80AA090E8000C82448344AAF1C0
:1001C0000107DA4501D100F036F8AFF2090EBAE8BE
:1001D0000F0013F0010F18BFFB1A43F0010318477B
:1001E000F027000010280000103A24BF78C878C11A
:1001F000FAD8520724BF30C830C144BF04680C602D
:10020000704700000023002400250026103A28BF74
:1002100078C1FBD8520728BF30C148BF0B60704778
:10022000632900F0B680002070471FB502F0CAFBBA
:100230001FBD10B510BD00F0E7F81146FFF7F5FF40
:1002400001F0E0FE00F005F903B4FFF7F2FF03BC94
:1002500001F0C1FB0C48016841F4700101600B48DA
:1002600080470B480047FEE7FEE7FEE7FEE7FEE7B4
:10027000FEE7FEE7FEE7FEE7FEE700000548064969
:10028000044A064B7047000088ED00E08D1300081B
:10029000AD01000838020020380600203802002096
:1002A000704700000FB4044910B503AA029800F08B
:1002B0007DF810BC5DF814FBC80000202DE9F0416A
:1002C0000E460446002020622046E168884730B38D
:1002D000252805D0D4E901219047206A401CF2E787
:1002E000E168204600278847050018D0A5F14100A5
:1002F000192802D820354FF4006732462946204697
:100300002760FFF78DFF40B1012804D0F61D26F0CD
:1003100007060836D8E7361DD6E72846DAE7206A0A
:10032000BDE8F08170B50C460546012A05D0287855
:10033000800600D5EA69002302E0012305E05B1C8A
:10034000934202D2E05C0028F9D1A869E618C01AED
:10035000A861286A184428622846AFF3008004E0A8
:10036000D5E9012114F8010B9047B442F8D328468F
:10037000AFF3008070BD704770477047704710B58D
:10038000436913B1AFF3008001E0FFF7CBFF012019
:1003900010BD127800F124010A7000224A70012277
:1003A000EDE711684FF0FF32E9E70000074B70B549
:1003B0000D467B4400F011F80446284600F020F872
:1003C00010B14FF0FF3070BD204670BDC319000062
:1003D00001694A1C02610878704700B58FB0CDE909
:1003E00001310021059105497944CDE903101146F9
:1003F0006846FFF763FF0FB000BD0000E5FFFFFF99
:10040000007B00F080007047754600F02BF8AE4688
:1004100005006946534620F00700854618B020B510
:10042000FFF72CFFBDE820404FF000064FF000071B
:100430004FF000084FF0000B21F00701AC46ACE88C
:10044000C009ACE8C009ACE8C009ACE8C0098D46F9
:10045000704710B50446AFF300802046BDE8104059
:10046000FFF7F2BE00487047D801002000BFFEE74A
:1004700000B585B000217F4800F0E3FA10B90020F4
:1004800005B000BD6A4600217A4800F0E9FA0098FC
:10049000A0F201200A287DD2DFE800F0052545659D
:1004A000C7E7E7E787A79DF80C009DF80B1040EA27
:1004B000012000B2704908809DF80E109DF80D00D3
:1004C00041EA002000B26C4948809DF810109DF868
:1004D0000F0041EA002000B2674988809DF81100B2
:1004E00040B28871C2E09DF80C009DF80B1040EA04
:1004F000012000B2614908809DF80E109DF80D00A2
:1005000041EA002000B25D4948809DF810109DF836
:100510000F0041EA002000B2584988809DF8110080
:1005200040B28871A2E09DF80C009DF80B1040EAE3
:10053000012000B2524908809DF80E109DF80D0070
:1005400041EA002000B24E4948809DF810109DF805
:100550000F0041EA002000B2494988809DF811004F
:1005600040B2887182E09DF80C009DF80B1040EAC3
:10057000012000B2434908809DF80E109DF80D003F
:1005800041EA002000B23F4948809DF810109DF8D4
:100590000F0000E069E041EA002000B2394988809C
:1005A0009DF8110040B2887160E09DF80C009DF844
:1005B0000B1040EA012000B2334908809DF80E106C
:1005C0009DF80D0041EA002000B22F4948809DF8B7
:1005D00010109DF80F0041EA002000B22A498880DF
:1005E0009DF8110040B2887140E09DF80C009DF824
:1005F0000B1040EA012000B2244908809DF80E103B
:100600009DF80D0041EA002000B2204948809DF885
:1006100010109DF80F0041EA002000B21B498880AD
:100620009DF8110040B2887120E09DF80C009DF803
:100630000B1040EA012000B2154908809DF80E1009
:100640009DF80D0041EA002000B2114948809DF854
:1006500010109DF80F0041EA002000B20C4988807C
:100660009DF8110040B2887100BF00BF00BF9DF827
:100670000A0005E700640040280000203000002048
:1006800038000020400000205800002060000020BA
:10069000680000202DE9F04186B0074688461546DF
:1006A0000024019700208DF80C008DF80D008DF8C6
:1006B0000E5000BF06E018F804100DF10F000155B0
:1006C000601C84B2AC42F6DB01A90D4800F040FA90
:1006D0000646002401E0601C84B23146084800F060
:1006E000CBFA18B940F6FF708442F4DB40F6FF7095
:1006F000844203DB012006B0BDE8F0810020FAE768
:10070000006400402DE9F0418AB004460D461646CB
:100710001F46DDF840800121082000F0E3FC0121A4
:10072000480600F0EFFC0121480600F0FBFC002128
:100730004FF0007000F0F6FC0320089002208DF8C6
:10074000240000208DF8260003208DF825000120CC
:100750008DF8270008A92D4800F03DFB0922002153
:100760002A4800F080FB09220121284800F07BFB89
:1007700000208DF81A0001208DF81B0000208DF854
:100780001C008DF81D008DF81E008DF81F008DF8DF
:1007900016808DF817408DF818608DF81950ADF857
:1007A000147005A91A4800F0C2F800208DF80E0058
:1007B0008DF80F0001208DF810000020ADF8040026
:1007C000ADF80600ADF80800ADF80A00ADF80C0071
:1007D00001208DF8110001A800F01CF8012202216F
:1007E0000B4800F09BF814208DF8000004208DF8D1
:1007F000010000208DF8020001208DF803006846FA
:1008000000F088FB00200AB0BDE8F081000C024037
:100810000064004010B50021837A012202FA03F13E
:100820003D4A126842F001023B4B1A603A4A1C32C0
:1008300012688A43384B1C331A60027BCAB9364AA5
:100840000C3212688A43344B0C331A604288C388D6
:1008500042EA0343304A4032847A42F83430028814
:10086000838842EA03432C4A4032847A02EBC40272
:100870005360027B012A19D1274A0C3212680A43BD
:10088000254B0C331A604288038842EA0343224A0C
:100890004032847A42F83430C288838842EA034383
:1008A0001D4A4032847A02EBC4025360C27A3AB9DC
:1008B000194A121D12688A43174B1B1D1A6006E065
:1008C000154A121D12680A43134B1B1D1A60028938
:1008D00032B9114A143212688A430F4B14331A602A
:1008E0000289012A06D10C4A143212680A430A4BC3
:1008F00014331A60427B012A06D1074A1C3212685F
:100900000A43054B1C331A60034A126822F00102A5
:10091000014B1A6010BD0000006600401AB1436927
:100920000B43436102E043698B434361704730B539
:10093000024600200023146824F0020414601468A6
:1009400044F00104146000E05B1C546804F00104EE
:100950001CB94FF6FF74A342F6D1546804F00104A9
:100960000CB900206CE08C79012C04D1146844F09F
:100970008004146003E0146824F080041460CC79CF
:10098000012C04D1146844F04004146003E014689E
:1009900024F0400414600C7A012C04D1146844F053
:1009A0002004146003E0146824F0200414604C7ADE
:1009B000012C04D1146844F01004146003E014689E
:1009C00024F0100414608C7A012C04D1146844F0D3
:1009D0000804146003E0146824F008041460CC7A5E
:1009E000012C04D1146844F00404146003E014687A
:1009F00024F0040414608C78A407CD7844EA0564DC
:100A00000D7944EA05444D7944EA05540D886D1E7C
:100A10002C43D461146824F001041460002300E026
:100A20005B1C546804F001041CB14FF6FF74A34230
:100A3000F6D1546804F001040CB1002000E001205C
:100A400030BD0246002019B9D36803F0030006E068
:100A5000012903D1136903F0030000E0002070476F
:100A600010B500F5D87303EB01131B6803F0040302
:100A70001372137A53B900F5D87303EB01131B6893
:100A800040F2FF7404EA5353136009E000F5D87391
:100A900003EB01131B686FF0604404EAD303536057
:100AA00000F5D87303EB01131B6803F002035372C4
:100AB00000F5D87303EB01135B6803F00F03937227
:100AC00000F5D87303EB01135B681B0AD37400F5C0
:100AD000D87303EB01139B68D37200F5D87303EB53
:100AE00001139B681C0A147300F5D87303EB011300
:100AF0009B681C0C547300F5D87303EB01139B68BF
:100B00001B0E937300F5D87303EB0113DB68D373EB
:100B100000F5D87303EB0113DB681C0A147400F5AD
:100B2000D87303EB0113DB681C0C547400F5D87305
:100B300003EB0113DB681B0E937421B9C36843F008
:100B40002003C36003E0036943F02003036110BD89
:100B500010B502460020936803F08063B3F1806F04
:100B600000D110E0936803F00063B3F1006F01D18E
:100B7000012008E0936803F08053B3F1805F01D156
:100B8000022000E00420042874D002F5C07303EBB7
:100B900000131B6803F0010402F5C07303EB00139C
:100BA0001C600B7A7BB94B7A0C8843EA445302F5FC
:100BB000C07404EB00142468234302F5C07404EBF2
:100BC0000014236010E00B7A4C6843EAC4034C7AAB
:100BD000234302F5C07404EB00142468234302F598
:100BE000C07404EB001423608B7A03F00F038B7244
:100BF00002F5C07303EB00135B6823F00F0402F5EA
:100C0000C07303EB00135C6002F5C07303EB0013C9
:100C10005B688C7A234302F5C07404EB00146360B4
:100C20008B7B1C064B7B44EA03440B7B44EA032387
:100C3000CC7A234302F5C07404EB0014A3608B7CD0
:100C40001C064B7C44EA03440B7C44EA0323CC7B24
:100C5000234302F5C07404EB0014E36002F5C07393
:100C600003EB00131B6843F0010402F5C07303EBB0
:100C700000131C6010BD000010B50246002321B116
:100C8000012907D002290FD109E090681D4C00EA24
:100C900004030BE090681C4C00EA040306E0906833
:100CA0001A4C00EA040301E0002300BF00BF184C07
:100CB000181BA34216D007DC83B16FF08060184484
:100CC00070B1022818D111E0B0F5007F10D0114C9E
:100CD000204448B1B0F5003F0ED10BE002230DE0F7
:100CE00000230BE0002309E0002307E0012305E0D7
:100CF000012303E0012301E0002300BF00BFD8B2BD
:100D000010BD0000030000040003000800000310F1
:100D1000000100080001FFF700B587B001210220A3
:100D200000F0E0F90121102000F00CFA0722114632
:100D3000254800F098F88020059002208DF81800D2
:100D400000208DF81A0001208DF81B0003208DF87B
:100D5000190005A91C4800F03EF81C48019000202D
:100D6000ADF810000420ADF80E000002ADF80C0044
:100D70000020ADF80A00ADF8080001A9144800F001
:100D8000B9FD25208DF8000001208DF8010000201C
:100D90008DF8020001208DF80300684600F0BAF8D3
:100DA00001210B4800F04AFD4021094800F02EFDCA
:100DB0002021074800F02AFD012240F22551044875
:100DC00000F072FD07B000BD00040240A0860100E3
:100DD000001001407047F0B50A46002100230024AE
:100DE00000BF3DE0012505FA01F3156805EA03049B
:100DF0009C4234D105684F000326BE40B5430560D0
:100E000015794E00B5400668354305601579012D0A
:100E100002D01579022D16D185684F000326BE40F9
:100E2000B543856055794E00B54086683543856089
:100E3000456801268E40B5434560456896798E40E9
:100E4000B6B235434560C5684F000326BE40B54382
:100E5000C560D5794E00B540C6683543C560491CAC
:100E60001029BFD3F0BDF0B5002300244D07ED0ECF
:100E700002FA05F3CE1000F1200555F826504E0772
:100E8000F70E0F26BE40B543CF1000F1200646F8FE
:100E90002750CE1000F1200555F8265045EA0304EE
:100EA000CE1000F1200545F82640F0BD01837047C3
:100EB00000BFFEE708B501F0A9F84FF4407000F05C
:100EC00065F8002005231A4601210090FFF71AFC5F
:100ED00000F012FFFFF720FF01F0D0FB00F060F8F8
:100EE00000F07AFF00F08AFE01F048FA00F092FA72
:100EF00000F0DEFA01A0FFF7D5F908BDB3F5CABCD2
:100F0000BBAFCDEAB3C9A3A10D0A000000BFFEE745
:100F10007047000070B5002100230F22C4781CB375
:100F2000174C246804F4E064C4F5E064C4F30721BA
:100F3000C1F10404E3B20A4144789C40E1B28478F0
:100F4000144021430C07210E0E4C0578615504789E
:100F500004F01F050124AC4005786D11AD0005F1CA
:100F6000E025C5F8004109E0047804F01F050124DC
:100F7000AC40054D0678761145F8264070BD00005E
:100F80000CED00E000E400E080E100E002490143F4
:100F9000024A1160704700000000FA050CED00E005
:100FA00000B58BB00121084600F09CF8012110200B
:100FB00000F098F80121084600F0C4F80122082149
:100FC0004448FFF750FF01220E214348FFF74BFF33
:100FD0004FF48070099002208DF8280000208DF8D1
:100FE00029008DF82A008DF82B0009A93948FFF750
:100FF000F2FE4FF48040099009A93748FFF7EBFE55
:101000000121084600F0AEF80021012000F0AAF806
:1010100040F2CF700790B320ADF818000020ADF873
:101020001A00ADF8200006A92C4800F049FB60200A
:10103000ADF804000120ADF806000020ADF8100066
:10104000ADF808000820ADF812004001ADF814001A
:101050000020ADF816004FF47A70039001A91F48E4
:1010600000F098FA01A91D4800F0DCFA08211B489D
:1010700000F0CEFA0821194800F010FB01211748B2
:1010800000F044FA0121154800F05BFA01211348F1
:1010900000F04BFA00F092FE0121202000F022F82F
:1010A0004FF48060099000208DF828008DF82A0008
:1010B00003208DF8290001208DF82B0009A908488C
:1010C000FFF789FE4FF480610548FFF7EFFE0BB094
:1010D00000BD00000000024000100240000001407E
:1010E0000014024029B1064A12680243044B1A60F8
:1010F00004E0034A12688243014B1A607047000003
:101100003038024029B1064A12680243044B1A6083
:1011100004E0034A12688243014B1A6070470000E2
:101120004038024029B1064A12680243044B1A6053
:1011300004E0034A12688243014B1A6070470000C2
:101140002038024029B1064A12680243044B1A6053
:1011500004E0034A12688243014B1A6070470000A2
:101160004438024029B1064A12680243044B1A600F
:1011700004E0034A12688243014B1A607047000082
:1011800024380240F0B50021002200240225002668
:101190000223324F3F6807F00C0121B1042905D02A
:1011A000082937D105E02E4F076036E02D4F076044
:1011B00033E02A4F3F1F3F68C7F38056274F3F1F3A
:1011C0003F6807F03F036EB1264FB7FBF3F7DFF838
:1011D0008CC0ACF1040CDCF800C0CCF3881C07FB1D
:1011E0000CF40CE01E4FB7FBF3F7DFF870C0ACF166
:1011F000040CDCF800C0CCF3881C07FB0CF4174F80
:101200003F1F3F68C7F301477F1C7D00B4FBF5F724
:10121000076002E0124F076000BF00BF0F4F3F683A
:1012200007F0F0010909104F7A5C0768D740476062
:101230000A4F3F6807F4E051890A0B4F7A5C476810
:10124000D7408760054F3F6807F46041490B064F60
:101250007A5C4768D740C760F0BD0000083802409C
:101260000024F400001BB700140000200CB500207F
:10127000019000904148006840F480303F49086088
:1012800000BF3E48006800F4003000900198401C08
:101290000190009818B90198B0F5A04FF1D13748E6
:1012A000006800F4003010B10120009001E000203F
:1012B00000900098012860D130484030006840F02C
:1012C00080502E49403108602D48006840F440406D
:1012D0002B4908602948083000682849083108600F
:1012E0000846006840F4004008600846006840F482
:1012F000A05008602348091F0860081F006840F0DC
:101300008070091F086000BF1C48006800F0007072
:101310000028F9D01A48006840F480301849086065
:1013200000BF1748406800F480300028F9D0144806
:10133000006840F400301249086000BF104840685F
:1013400000F400300028F9D040F205700E49086022
:101350000A480830006820F0030008490831086096
:101360000846006840F00200086000BF03480830EB
:10137000006800F00C000828F8D10CBD00380240CD
:1013800000700040062D4008003C024010B5154892
:10139000006840F47000134908601348006840F08A
:1013A00001001149086000200F49083108600E480B
:1013B00000680E4908400C4908600D48091D086086
:1013C000081F006820F48020091F086000200649DB
:1013D0000C310860FFF74AFF4FF000600149803987
:1013E000086010BD88ED00E000380240FFFFF6FE07
:1013F0001030002410B50121054800F0B1F8012893
:1014000001D101F013F90121014800F08BF810BD62
:10141000000400401FB501210220FFF773FE632086
:10142000029042F22730ADF804000020ADF806002B
:10143000ADF80C0001A90D4800F042F90122114657
:101440000A4800F09EF80121084800F06EF81D20BF
:101450008DF8000000208DF8010001208DF80200B9
:101460008DF803006846FFF755FD1FBD00040040DE
:1014700010B501210B4800F073F801280DD10A487E
:101480000078401C084908700848D0E90020521C28
:1014900040F100000549C1E900200121014800F0A8
:1014A00041F810BD0008004024000020C0000020CA
:1014B0001FB501210420FFF725FE0920029042F20A
:1014C0002730ADF804000020ADF80600ADF80C00A0
:1014D00001A90D4800F0F4F8012211460A4800F075
:1014E00050F80121084800F020F81E208DF8000077
:1014F00004208DF801008DF8020001208DF8030012
:101500006846FFF707FD1FBD0008004021B10288B3
:1015100042F08002028004E002884FF67F731A4096
:1015200002807047CA430282704721B1028842F0AC
:101530000102028004E002884FF6FE731A40028026
:10154000704731B1B0F8442042F40042A0F8442082
:1015500005E0B0F84420C2F30E02A0F84420704722
:1015600030B50246002000230024158A05EA010355
:10157000958905EA010413B10CB1012000E00020B7
:1015800030BD1AB183890B43838102E083898B4389
:101590008381704770B5002400220023058C4FF62C
:1015A000FE7635400584028C8388048B4FF68F7558
:1015B0002C40B51E2C400D882C43751E2A408D8969
:1015C0002A434D882A43104DA84202D00F4DA8420D
:1015D00013D14FF6F7752A40CD892A434FF6FB7594
:1015E0002A408D882A434FF6FF652B404FF6FF5562
:1015F0002B400D8A2B434D8A2B43838004838D68B7
:101600004563028470BD00000000014000040140F9
:101610000A460021018B4FF6F773194011430183ED
:101620007047000070B5002200230024058C4EF6A0
:10163000FF7635400584038C8488828B48F6FF75DD
:101640002A404FF6FF452A400D884FF6FF7606EAFE
:1016500005252A434DF6FF752B408D8906EA053591
:101660002B434D8806EA05352B430A4DA84202D08C
:10167000094DA84208D14BF6FF752C400D8A4FF654
:10168000FF7606EA85152C43848082838D68056485
:10169000038470BD00000140000401400A4600219F
:1016A000818B4FF2FF7319404FF6FF7303EA022359
:1016B000194381837047416370470164704700009C
:1016C00000220288184B98420ED0184B98420BD03B
:1016D000B0F1804F08D0164B984205D0154B984278
:1016E00002D0154B984204D14FF68F731A404B88A5
:1016F0001A43124B984207D0114B984204D04FF630
:10170000FF431A400B891A4302804B68C3620B885F
:101710000385054B984202D0044B984201D18B7A45
:1017200003860123838270470000014000040140CA
:101730000004004000080040000C00400010004081
:101740000014004010B540F22551154800F082F811
:1017500001281ED140F22551114800F060F81048D0
:1017600000F032F9C4B20F4800780D2802DB0020E7
:101770000D4908700C48007812280ADC0A480178E4
:101780000078401C084A107008484454002005495D
:10179000087040F22551024800F041F810BD0000E9
:1017A000001001402400002025000020140100202A
:1017B00010B540F225510C4800F04CF801280CD12E
:1017C00040F22551084800F02AF8074800F0FCF8DC
:1017D000C4B2214605A0FEF765FD40F2255102483E
:1017E00000F01DF810BD000000440040B4AEBFDAA8
:1017F000323ACAD5B5BDC9CFCEBBBBFAB7A2CBCDA5
:10180000B5C4D7D6B7FB3A25630D0A0001F40072C0
:10181000B2F5007F00D100BFCA430280704710B507
:101820000022002340F66A14A14200D100BF0A1230
:1018300001249440A3B2DC43048010BD21B182890D
:1018400042F40052828104E082894DF6FF731A400F
:101850008281704770B502460024002300250020D5
:1018600040F66A16B14200D100BFC1F3421501F043
:101870001F03012606FA03F3012D02D19689334096
:1018800006E0022D02D1168A334001E0968A3340E9
:101890000C12012606FA04F41688344013B10CB178
:1018A000012000E0002070BDF0B5034600240026B2
:1018B0000025002040F66A17B94200D100BF184643
:1018C000C1F3421401F01F06012707FA06F5012CA7
:1018D00001D10C3004E0022C01D1103000E01430B2
:1018E0001AB107682F43076002E00768AF4307603B
:1018F000F0BD00002DE9FF4705460E460024A14635
:1019000000BFA046B08900B100BF2C8A24F4405427
:10191000F08804432C82AC8941F20C608443B08887
:1019200031890843718908430443AC81AC8A24F4AB
:101930004074B0890443AC826846FFF723FC20481A
:10194000854202D01F48854202D1DDF80C9001E0AB
:10195000DDF80890A88900F4004040B109EBC90007
:1019600000EB091031684900B0FBF1F707E009EB23
:10197000C90000EB091031688900B0FBF1F7642061
:10198000B7FBF0F004012009642101FB1078A8895D
:1019900000F4004040B1322000EBC800B0FBF1F091
:1019A00000F00700044308E0322000EB0810642137
:1019B000B0FBF1F000F00F0004432C81BDE8FF877D
:1019C000001001400014014001468888C0F308005F
:1019D000704700BFFEE700BF7047000010B52DED57
:1019E000048B6C48407D012807D100206A4908809B
:1019F00041F2D470694908801FE06648407D0328A1
:101A00000CD16448008940426249C98A01EB8101D6
:101A1000A0EB810000B2604908800EE05D48407D87
:101A200002280AD15B4800895A49C98A01EB810121
:101A300000EB810000B25849088056488089414235
:101A40005448008B00EB8000A1EB800000B25449A9
:101A500008805148B0F9000000F09FFE41EC190BDE
:101A60009FED500B53EC102B00F0AEFE41EC180B29
:101A700000F064FE00B24D4908804948B0F900000A
:101A800000F08BFE41EC190B9FED490B53EC102B32
:101A900000F09AFE41EC180B00F050FE00B24649EF
:101AA000088042480088F8B14448B0F900003F4936
:101AB000B1F9001008444249B1F90010884214DC21
:101AC0003E48B0F900003949B1F9001008443D49D9
:101AD000B1F90010884208DB38480088334909888A
:101AE000084400B22D49088016E03448B0F90000DF
:101AF0002E49B1F9001008443149B1F9001088426B
:101B000005DD2F48B0F900002449088004E02D4885
:101B1000B0F900002149088027480088F8B12A4818
:101B2000B0F900002449B1F9001008442749B1F97F
:101B30000010884214DC2448B0F900001E49B1F9B5
:101B4000001008442249B1F90010884208DB1E4801
:101B5000008819490988084400B21E49088016E027
:101B60001948B0F900001449B1F9001008441749A8
:101B7000B1F90010884205DD1448B0F9000015499C
:101B8000088004E01248B0F9000012490880BDEC5A
:101B9000048B10BD260100207C0000208000002066
:101BA0007E000020333333333333E33F840000209F
:101BB0009A9999999999E93F860000209000002010
:101BC000880000208A000020920000208E00002063
:101BD0008C0000208200002004480088044908800E
:101BE000044800880449088070470000580000201D
:101BF00090000020600000209200002010B59FEDB2
:101C0000072ADFED071AB2EE041ADFED060A9FED90
:101C1000060A064800F00CF810BD000000000000A5
:101C20000AD7A33C0000FA4400401C45D000002025
:101C300000B9704780ED001AC0ED011A80ED022A4C
:101C4000DFED062AC0ED052ADFED042AC0ED042AE7
:101C5000C0ED070A80ED060A00BFEAE700000000B9
:101C60002DE9FC4107460C4615461E46380A8DF8FC
:101C70000000F8B28DF80100200A8DF80200E0B2F1
:101C80008DF80300280A8DF80400E8B28DF80500ED
:101C9000300A8DF80600F0B28DF807000822694678
:101CA0009001FEF7F7FCBDE8FC81000010480078C9
:101CB0008C2819DA0F48007D012804D0022803D0AF
:101CC000032803D101E001E000E000BF00BF0948A4
:101CD000407D012804D0022803D0032803D101E06D
:101CE00001E000E000BF02E08C200149087070476D
:101CF00024000020260100206FF004004FF0E021B6
:101D000008610A4800680A49B0FBF1F00949087007
:101D10000846007800EB4001C1EBC0104FF6FF71A0
:101D200001EAC0000449088070470000000000205C
:101D300000127A00CC000020CE00002001460020D6
:101D40000C4A12884A434FF0E0235A6100229A61FC
:101D500001221A6100BF4FF0E022106900F0010279
:101D60001AB100F48032002AF5D000224FF0E023AF
:101D70001A617047CE00002000BF054A128802F0A9
:101D80004002002AF9D0C2B2014B1B1D1A807047D5
:101D90000044004010B5044621460248FFF78BFC82
:101DA00010BD00000000014010B504462146024865
:101DB000FFF783FC10BD00000000014010B54FF498
:101DC0007A710448FFF777FC4FF47A710148FFF706
:101DD00074FC10BD0000014010B59FED0D2ADFED31
:101DE0000D1AB3EE041ADFED0C0A9FED0C0A0C4835
:101DF00000F098F89FED062ADFED061AB3EE041AFC
:101E0000DFED050A9FED050A064800F08BF810BDCE
:101E100000000000CDCC4C3D0000FA4500409C463F
:101E20004801002078010020F0EE401A10B99FED23
:101E30003C0A7047C0ED041AC0ED030A30EEE12AF7
:101E400080ED052A90ED000AD0ED052A20EE220A49
:101E500080ED080A90ED090AD0ED012A90ED053ACF
:101E600002EE830A80ED090A90ED020AD0ED052A00
:101E700072EEC12A20EE220A80ED0A0A90ED090ACC
:101E8000D0ED072AB4EEE20AF1EE10FA04DD90ED8F
:101E9000070A80ED090A10E090ED090AD0ED072A43
:101EA000F1EE622AB4EEE20AF1EE10FA05D290EDFC
:101EB000070AB1EE400A80ED090A90ED080AD0ED5C
:101EC000092A30EE220AD0ED0A2A30EE220A80EDED
:101ED0000B0A90ED0B0AD0ED062AB4EEE20AF1EE01
:101EE00010FA04DD90ED060A80ED0B0A10E090ED8B
:101EF0000B0AD0ED062AF1EE622AB4EEE20AF1EE08
:101F000010FA05D290ED060AB1EE400A80ED0B0AF8
:101F100090ED050AB0EE401A90ED0B0A89E700003B
:101F20000000000010B52DED068B0446B0EE408A8F
:101F3000F0EE608AB0EE41AAB0EE619AF0EE429AFD
:101F400014B9BDEC068B10BD84ED00AA84ED019A96
:101F5000C4ED029A9FED080A84ED050A9FED060A7A
:101F600084ED040AC4ED078A84ED068A03A0FEF717
:101F700099F900BFE5E7000000000000D4C6CCA836
:101F8000706964B3F5CABCBBAFCDEAB3C90D0A0032
:101F900038B505460C46280A8DF80000E8B28DF8E1
:101FA0000100200A8DF80200E0B28DF8030004223F
:101FB000694640F2FF20FEF76DFB38BD10B500F01A
:101FC00007F8FFF70BFDFFF707FE00F0DBFA10BD87
:101FD00041F658300749088041F2504006490880D0
:101FE0004FF4C8500549088041F64C500449088018
:101FF00070470000880000208A0000208C0000202C
:102000008E000020FEF756FF00BFFEE71CB5012141
:102010008020FFF767F83C20009001208DF8040035
:1020200000208DF8060003208DF8050001208DF8B2
:10203000070069461948FEF7CEFE01214020FFF750
:1020400051F842F20200009001208DF804000020B7
:102050008DF8060003208DF8050001208DF807009B
:1020600069460F48FEF7B7FE4FF400510C48FEF7E3
:102070001DFF04210948FEF719FF08210748FEF754
:1020800015FF10210548FEF711FF20210348FEF738
:102090000DFF02210248FEF709FF1CBD001C024093
:1020A000001802404748007820B9474800781228B5
:1020B00000D07047434800784249497840EA0120FF
:1020C000C0F30A00414908603E484078C0103D49CD
:1020D000897840EA4110C0F30A003C494860394819
:1020E000807880113749C97840EA810035490979FB
:1020F00040EA8120C0F30A00344988603148007901
:1021000040103049497940EAC110C0F30A002F4914
:10211000C8602C48007C2B49497C40EA01202B49AF
:10212000086128484079C0F30110087525484079B6
:10213000001180084875234880792249C97940EA0E
:10214000012000B22149C8821E48007A1D49497AFF
:1021500040EA012001B21D4801831A48807A1949DA
:10216000C97A40EA012001B2184841831548017B31
:10217000164801771348417B144841771148807B0A
:102180001049C97B40EA01201049C883084600680D
:10219000A0F58060086008464068A0F5806048604F
:1021A00008468068A0F5806088600846C068A0F591
:1021B0008060C86008460069A0F58060086100BFC3
:1021C00077E70000140100202500002026010020F0
:1021D00010B501210C48B0F9000000EE100AF8EE2D
:1021E000C00A0A48B0F9000000EE100AB8EEC00AB2
:1021F000074800F0FFF8BDEEC00A10EE100A00B26A
:102200000449088010BD0000AE000020AC00002092
:10221000A8010020B000002010B54B48007D012827
:102220000AD14A48007838B94948007820B90120D5
:1022300046490870464908704348007D032802D18A
:102240000020434908704048007D01280CD13F48D8
:102250000078012808D13E48007828B900203B4981
:10226000087001203A49087038480078A8B140F257
:102270007E40FFF78FFD37480088C82804DA3548CC
:102280000088401C3349088032480088962827DDA2
:1022900040F27E40FFF788FD22E02F48B0F90000B1
:1022A000B0F5487F06DD2C480088423800B22A4944
:1022B000088008E02848B0F90000B0F5487F02DA4D
:1022C0000020254908804FF47A712448FFF7F3F97C
:1022D0004FF47A712148FFF7F0F900201D4908807A
:1022E0001948007F18B91848007D022806D1174800
:1022F000007818B101201A4908700EE01248407F9A
:1023000020B911480069B0F5167F03DD0220144999
:10231000087002E000201249087011480078012876
:1023200004D14FF47A700F4908800BE00C48007814
:10233000022804D14FF6E0400A49088002E000205C
:102340000849088010BD000026010020B8000020C8
:10235000B9000020BA000020A000002000000140C9
:10236000B2000020AE0000200248408802490880E8
:102370007047000068000020AC00002010B54FF44A
:10238000FA611448FFF797F94FF4FA611148FFF723
:1023900094F9C820FFF7D2FC4FF47A710D48FFF78B
:1023A0008AF94FF47A710B48FFF787F900200A4940
:1023B00008800A4908809FED0A2ADFED0A1AB2EE6A
:1023C000041ADFED090A9FED090A094800F09EF89A
:1023D00010BD000000000140B4000020B600002045
:1023E00000000000CDCC4C3E00007A4500401C4669
:1023F000A8010020B0EE401A10B99FED420A7047C4
:1024000080ED041AC0ED030A70EEC11AC0ED051A82
:1024100090ED000A90ED052A20EE020A80ED080AF0
:1024200090ED090A90ED012AD0ED052A02EE220A6C
:1024300080ED090A90ED022AD0ED052A324AB2F960
:10244000002000EE102AB8EEC00A32EEC00A22EEDA
:10245000000A80ED0A0A90ED090A90ED072AB4EE11
:10246000C20AF1EE10FA04DD90ED070A80ED090AC8
:1024700010E090ED090A90ED072AB1EE422AB4EE81
:10248000C20AF1EE10FA05D290ED070AB1EE400A49
:1024900080ED090A90ED080A90ED092A30EE020A53
:1024A00090ED0A2A30EE020A80ED0B0A90ED0B0A3D
:1024B00090ED062AB4EEC20AF1EE10FA04DD90EDBA
:1024C000060A80ED0B0A10E090ED0B0A90ED062A4B
:1024D000B1EE422AB4EEC20AF1EE10FA05D290ED46
:1024E000060AB1EE400A80ED0B0A90ED050ABDEE3A
:1024F000C00A10EE102A12B2034B1A8090ED0B0A9C
:102500007DE7000000000000AA00002000B970472D
:1025100080ED001AC0ED011A80ED022ADFED062AD7
:10252000C0ED052ADFED042AC0ED042AC0ED070A3C
:1025300080ED060A00BFEAE700000000F8B5054696
:102540000E4614461F4620128DF80000E0B28DF8AA
:1025500001000222694640F2FF10FEF79BF8F8BD29
:1025600010B5FFF759FEFFF7FFFEFFF731FE0448F5
:10257000008882B2002319461846FFF7DFFF10BD1E
:10258000B000002010B51F4890ED001A1E48B0F9A9
:10259000000000EE100AF8EEC00A1C48B0F9000076
:1025A00000EE100AB8EEC00A1948FFF73DFCBDEE78
:1025B000C00A10EE100A00B216490880164890EDC5
:1025C000001A1648B0F9000000EE100AF8EEC00A32
:1025D0001348B0F9000000EE100AB8EEC00A114826
:1025E000FFF722FCBDEEC00A10EE100A00B20E4941
:1025F00008800846B0F900100648B0F90000FFF75F
:10260000C7FC10BD98000020800000209000002032
:1026100048010020940000209C000020820000203F
:1026200092000020780100209600002010B511488B
:102630000078122801D1FFF735FDFFF737FB0E4870
:1026400000788C2804DAFFF7B9FCFFF789FF0FE068
:1026500000231A4619461846FFF702FB00210846D8
:10266000FFF796FC00231A4619461846FFF766FF47
:1026700010BD0000250000202400002000B587B018
:1026800001210820FEF72EFD01214804FEF73AFD46
:10269000072206212748FEF7E6FB072205212548E9
:1026A000FEF7E1FB6020059002208DF81800002065
:1026B0008DF81A0001208DF81B0003208DF81900F9
:1026C00005A91C48FEF787FB4FF4E130019000207C
:1026D000ADF810000C20ADF80E000020ADF80C0095
:1026E000ADF80A00ADF8080001A91348FFF702F998
:1026F00026208DF8000001208DF801008DF80200E1
:102700008DF803006846FEF705FC01210A48FFF733
:1027100095F840210848FFF779F820210648FFF78F
:1027200075F8012240F225510348FFF7BDF807B0C4
:1027300000BD0000000C0240004400404FEA41038D
:102740004FEA5353A3F58063D3F11E03C8BFD3F1FF
:10275000210C0CDD4FF0004242EAC12242EA505205
:1027600032FA03FC8CEAE17CACEBE1707047102B91
:10277000C4BF0020704703F5787CBCF1FF3F04D054
:102780006FF0004282EA2100704770B500F0C6F891
:102790004992248000207047F2E710F0004248BFC1
:1027A0004042B0FA80F310FA03F10AD0C3F11D03DE
:1027B00003F580634FEA415002EB035202EBD12153
:1027C00070474FF000007047DFF848C170B51CEA51
:1027D000111E1EBF1CEA13159EEA0C0F95EA0C0F82
:1027E00000F06F8081EA030423EA4C134EEAD47EA2
:1027F00021EA4C1141F4801143F48013AE44A1FB53
:10280000024CA0FB0365AEF17F7E361955EB0C053B
:10281000A1FB034C4CF10003A0FB021C16EB0C06C1
:10282000654153F10003094218BF46F0010613F455
:10283000007F0BD14FEA03314FEA0530340341EA00
:10284000155140EA16506FF003020AE04FEAC32127
:102850004FEAC520F40241EA555140EA56506FF064
:10286000020202EB2E4201EB025585EACE710AD03C
:102870005FEA440C18BF24F0004450F1000041F11D
:10288000000120EAD47040F2FE7C624500D270BDA7
:10289000A84214BF4FF080444FF04044002E08BFC0
:1028A0000024BEF1806FA8BFA1F1C041BDE8704017
:1028B00080F282804FF0000001F1C04101F0004140
:1028C00070479EEA0C0F0CEA131518BF95EA0C0F1F
:1028D00006D04FF0000081EA030E0EF0004170BDFB
:1028E00000F01CF88900013E00F007B800F009B8BC
:1028F0004FEA430C5FEA5C5C08D081EA030100F018
:102900005BB84FEA410C5FEA5C5CF6D14FF0000027
:10291000014970470000FF070000F87F0EF1020E2A
:102920002EF0030E5EF8046B364205D4012A43EB09
:10293000030515F5001F12D8012841EB010C1CF509
:10294000001F0CD80ED14FEAD17C15F5001F0CEBFF
:102950004C0C0CF1020C08BF4CEBD37C04E04FF0A4
:10296000080C01E04FEAD37C0CEB4C0526FA05F687
:1029700006F00706B6F1040C06D20EEB860CBDE895
:1029800070404CF0010C6047DFE80CF0090B0202CC
:102990004FF000414FF00000A1F5002170BD194635
:1029A0001046012851EB010418BFD4F5001484BF70
:1029B000002001F0004170BD0808A0F500114FEAA9
:1029C000310170474FF04070E1EE100A704700008F
:1029D000F029000800000020D0000000E8010008F5
:1029E000C02A0008D000002068050000040200088A
:1029F0000095BA0A00000000000000000102030474
:102A00000607080900000000010203040102030494
:102A10000607080900000000000000000000000098
:102A200000000000000000000000000000000000A6
:102A30000000000000000000000000000000000096
:102A40000000000000000000000000000000000086
:102A50000000000000000000000000000000000076
:102A60000000000000000000000000000000000066
:102A7000D4177C1A000000000000000000000000D5
:102A80000000000000000000000000000000000046
:102A90000000000000000000000000000000000036
:102AA0000000000000000000000000000000000026
:102AB0000000000000000000000000000000000016
:04000005080001AD41
:00000001FF
