:020000040800F2
:100000007809022045030008E1150008D915000809
:10001000DD150008DB050008371F000800000000A0
:100020000000000000000000000000008D02000839
:10003000F914000800000000E1020008670300084E
:1000400069030008690300086903000869030008E0
:1000500069030008690300086903000869030008D0
:1000600069030008690300086903000869030008C0
:1000700069030008690300086903000869030008B0
:1000800069030008690300086903000869030008A0
:10009000E105000869030008690300086903000816
:1000A0006903000869030008690300086903000880
:1000B00069030008811900089919000869030008FC
:1000C0006903000869030008690300086903000860
:1000D00069030008191B0008690300086903000888
:1000E0006903000869030008690300086903000840
:1000F0006903000869030008690300086903000830
:10010000690300086903000869030008690300081F
:10011000690300086903000869030008690300080F
:1001200069030008690300086903000869030008FF
:1001300069030008690300086903000869030008EF
:1001400089080008690300086903000869030008BA
:10015000E51000086903000869030008ED1B0008AA
:1001600069030008690300086903000869030008BF
:100170006903000869030008690300080000000023
:10018000690300086903000869030008690300089F
:10019000690300086903000869030008690300088F
:1001A00000000000000000006903000800F002F8F1
:1001B00000F05CF80AA090E8000C82448344AAF1A5
:1001C0000107DA4501D100F051F8AFF2090EBAE8A3
:1001D0000F0013F0010F18BFFB1A43F0010318477B
:1001E000DC490000FC4900000A444FF0000C10F804
:1001F000013B13F0070408BF10F8014B1D1108BFA5
:1002000010F8015B641E05D010F8016B641E01F844
:10021000016BF9D113F0080F1EBF10F8014BAD1C94
:100220000C1B09D16D1E58BF01F801CBFAD505E0B2
:1002300014F8016B01F8016B6D1EF9D59142D6D30C
:10024000704700000023002400250026103A28BF34
:1002500078C1FBD8520728BF30C148BF0B60704738
:100260001FB504F0A1FC1FBD10B510BD00F05BF977
:100270001146FFF7F5FF02F0EFF900F079F903B44A
:10028000FFF7F2FF03BC00F081F900002A4B196868
:100290000868B0E8F04F80F30988BFF36F8F4FF024
:1002A000000080F3118870470000000006480068D5
:1002B000006880F3088862B661B6BFF34F8FBFF362
:1002C0006F8F00DF00BF00BF08ED00E0DFF80C001B
:1002D000016841F470010160704700BF88ED00E0E3
:1002E000EFF30980BFF36F8F134B1A681EF0100FE6
:1002F00008BF20ED108A20E9F04F106008B44FF0DD
:10030000500080F31188BFF34F8FBFF36F8F03F05E
:10031000F3FA4FF0000080F3118808BC19680868F0
:10032000B0E8F04F1EF0100F08BFB0EC108A80F359
:100330000988BFF36F8F704724000020EFF305801A
:10034000704700000C48016841F4700101600B48DF
:1003500080470B480047FEE7FEE7FEE7FEE7FEE7C3
:10036000FEE7FEE7FEE7FEE7FEE700000548064978
:10037000044A064B7047000088ED00E01919000898
:10038000AD010008780502207809022078050220D6
:10039000032A40F2308010F0030C00F0158011F8B1
:1003A000013BBCF1020F624498BF11F801CB00F889
:1003B000013B38BF11F8013BA2F1040298BF00F8DD
:1003C00001CB38BF00F8013B11F0030300F030808F
:1003D000083AC0F0088051F8043B083A51F804CBC1
:1003E000A0E80810F5E7121D5CBF51F8043B40F887
:1003F000043BAFF30080D20724BF11F8013B11F892
:1004000001CB48BF11F8012B24BF00F8013B00F8D5
:1004100001CB48BF00F8012B704702F0FF0343EA0D
:10042000032242EA024200F037B870477047704733
:1004300010B5203AC0F00B80B1E81850203AA0E87F
:100440001850B1E81850A0E81850BFF4F5AF5FEAB3
:10045000027C24BFB1E81850A0E8185044BF18C966
:1004600018C0BDE810405FEA827C24BF51F8043B0D
:1004700040F8043B08BF7047D20728BF31F8023B61
:1004800048BF11F8012B28BF20F8023B48BF00F8F5
:10049000012B70474FF000020429C0F0128010F0C9
:1004A000030C00F01B80CCF1040CBCF1020F18BF50
:1004B00000F8012BA8BF20F8022BA1EB0C0100F0E3
:1004C0000DB85FEAC17C24BF00F8012B00F8012BB6
:1004D00048BF00F8012B70474FF0000200B51346EB
:1004E00094469646203922BFA0E80C50A0E80C5054
:1004F000B1F12001BFF4F7AF090728BFA0E80C5005
:1005000048BF0CC05DF804EB890028BF40F8042BFD
:1005100008BF704748BF20F8022B11F0804F18BF6A
:1005200000F8012B7047754600F02CF8AE46050028
:100530006946534620F00700854618B020B5FFF7FE
:1005400015FFBDE820404FF000064FF000074FF0C8
:1005500000084FF0000B21F00701AC46ACE8C009E1
:10056000ACE8C009ACE8C009ACE8C0098D467047EA
:1005700010B50446AFF300802046BDE81040FFF7F9
:100580007EBE00000048704718050220014918206F
:10059000ABBEFEE726000200704708B54FF440707E
:1005A00001F05CF801F09AFF02F002F801F014FA91
:1005B0004FF4E13001F0C0FA02F058F800200523B2
:1005C0001A460121009000F0D7F8002005231A46B2
:1005D0000121009000F07AFA08BD00BFFEE700009C
:1005E00000B585B000215E4800F011FC10B9002074
:1005F00005B000BD6A460021594800F017FC00987C
:10060000A0F2052007287CD2DFE800F00424A6A68B
:10061000446486009DF80C009DF80B1040EA012010
:1006200000B2504908809DF80E109DF80D0041EA77
:10063000002000B24B4948809DF810109DF80F0033
:1006400041EA002000B2474988809DF8110040B27D
:10065000887182E09DF80C009DF80B1040EA0120A3
:1006600000B2414908809DF80E109DF80D0041EA46
:10067000002000B23C4948809DF810109DF80F0002
:1006800041EA002000B2384988809DF8110040B24C
:10069000887162E09DF80C009DF80B1040EA012083
:1006A00000B2324908809DF80E109DF80D0041EA15
:1006B000002000B22D4948809DF810109DF80F00D1
:1006C00041EA002000B2294988809DF8110040B21B
:1006D000887142E09DF80C009DF80B1040EA012063
:1006E00000B2234908809DF80E109DF80D0041EAE4
:1006F000002000B21E4948809DF810109DF80F00A0
:1007000000E029E041EA002000B2194988809DF804
:10071000110040B2887120E09DF80C009DF80B108C
:1007200040EA012000B2134908809DF80E109DF8A0
:100730000D0041EA002000B20E4948809DF81010DB
:100740009DF80F0041EA002000B20A4988809DF818
:10075000110040B2887100E000BF00BF00BF47E752
:1007600000640040E0000020E8000020F0000020CD
:10077000F8000020180100202DE9F0418AB004465D
:100780000D4616461F46DDF840800121082000F086
:100790006FFF0121480600F07BFF0121480600F0B1
:1007A00087FF00214FF0007000F082FF03200890C7
:1007B00002208DF8240000208DF8260003208DF8FB
:1007C000250001208DF8270008A92D4800F095FE8E
:1007D000092200212A4800F0D8FE092201212848D8
:1007E00000F0D3FE00208DF81A0001208DF81B00C8
:1007F00000208DF81C008DF81D008DF81E008DF86E
:100800001F008DF816808DF817408DF818608DF850
:100810001950ADF8147005A91A4800F06EFA0020BE
:100820008DF80E008DF80F0001208DF810000020CB
:10083000ADF80400ADF80600ADF80800ADF80A0008
:10084000ADF80C0001208DF8110001A800F0C8F9E6
:10085000012202210B4800F047FA14208DF8000015
:1008600004208DF8010000208DF8020001208DF891
:100870000300684600F0B6FE00200AB0BDE8F08133
:10088000000C02400064004000B585B000216C48B7
:1008900000F0BDFA10B9002005B000BD6A46002185
:1008A000674800F0C3FA0098A0F20120062823D27E
:1008B000DFE800F00323436383A39DF80C009DF859
:1008C0000B1040EA012000B25E4908809DF80E102E
:1008D0009DF80D0041EA002000B25A4948809DF879
:1008E00010109DF80F0041EA002000B255498880A1
:1008F0009DF8110040B288719EE09DF80C009DF8B3
:100900000B1040EA012000B24F4908809DF80E10FC
:100910009DF80D0041EA002000B24B4948809DF847
:1009200010109DF80F0041EA002000B2464988806F
:100930009DF8110040B288717EE09DF80C009DF892
:100940000B1040EA012000B2404908809DF80E10CB
:100950009DF80D0041EA002000B23C4948809DF816
:1009600010109DF80F0041EA002000B2374988803E
:100970009DF8110040B288715EE09DF80C009DF872
:100980000B1040EA012000B2314908809DF80E109A
:100990009DF80D0041EA002000B22D4948809DF8E5
:1009A00010109DF80F0041EA002000B2284988800D
:1009B0009DF8110040B288713EE09DF80C009DF852
:1009C0000B1040EA012000B2224908809DF80E1069
:1009D0009DF80D0041EA002000B21E4948809DF8B4
:1009E00010109DF80F0041EA002000B219498880DC
:1009F0009DF8110040B288711EE09DF80C009DF832
:100A00000B1040EA012000B2134908809DF80E1037
:100A10009DF80D0041EA002000B20F4948809DF882
:100A200010109DF80F0041EA002000B20A498880AA
:100A30009DF8110040B2887100BF9DF80A002BE7B5
:100A400000680040C0000020C8000020D000002046
:100A5000D800002010010020000100202DE9F04105
:100A600007468846154600241648076000201549A9
:100A7000087248720846857200BF06E018F8041034
:100A800010480B300155601C84B2AC42F6DB0D49B6
:100A90000D4800F043FA0646002401E0601C84B2D1
:100AA0003146094800F0CEFA18B940F6FF7084428A
:100AB000F4DB40F6FF70844202DB0120BDE8F081E8
:100AC0000020FBE784040220006800402DE9F0418B
:100AD0008AB004460D4616461F46DDF840800121C7
:100AE000022000F0C5FD0121880600F0D1FD0121A2
:100AF000880600F0DDFD00214FF0806000F0D8FD99
:100B00004FF44050089002208DF8240000208DF80A
:100B1000260003208DF8250001208DF8270008A964
:100B20002D4800F0EAFC09220C212B4800F02DFD95
:100B300009220D21284800F028FD00208DF81A0018
:100B400001208DF81B0000208DF81C008DF81D0081
:100B50008DF81E008DF81F008DF816808DF8174057
:100B60008DF818608DF81950ADF8147005A91B4860
:100B700000F0C3F80E208DF80E0000208DF80F0055
:100B800001208DF810000020ADF80400ADF806003B
:100B9000ADF80800ADF80A00ADF80C0001208DF8A2
:100BA000110001A800F01CF8012202210B4800F0FE
:100BB0009BF840208DF8000004208DF801000020F3
:100BC0008DF8020001208DF80300684600F00AFD50
:100BD00000200AB0BDE8F081000402400068004037
:100BE00010B50021837A012202FA03F13D4A12680E
:100BF00042F001023B4B1A603A4A1C3212688A43A7
:100C0000384B1C331A60027BCAB9364A0C32126860
:100C10008A43344B0C331A604288C38842EA034348
:100C2000304A4032847A42F834300288838842EA7B
:100C300003432C4A4032847A02EBC4025360027BA5
:100C4000012A19D1274A0C3212680A43254B0C336A
:100C50001A604288038842EA0343224A4032847A77
:100C600042F83430C288838842EA03431D4A403246
:100C7000847A02EBC4025360C27A3AB9194A121D4F
:100C800012688A43174B1B1D1A6006E0154A121D95
:100C900012680A43134B1B1D1A60028932B9114AAC
:100CA000143212688A430F4B14331A600289012AE6
:100CB00006D10C4A143212680A430A4B14331A60E4
:100CC000427B012A06D1074A1C3212680A43054BAF
:100CD0001C331A60034A126822F00102014B1A60A9
:100CE00010BD0000006600401AB143690B43436128
:100CF00002E043698B434361704730B502460020F0
:100D00000023146824F002041460146844F0010401
:100D1000146000E05B1C546804F001041CB94FF639
:100D2000FF74A342F6D1546804F001040CB900200A
:100D30006CE08C79012C04D1146844F080041460B8
:100D400003E0146824F080041460CC79012C04D1F1
:100D5000146844F04004146003E0146824F0400474
:100D600014600C7A012C04D1146844F0200414603F
:100D700003E0146824F0200414604C7A012C04D1A0
:100D8000146844F01004146003E0146824F01004A4
:100D900014608C7A012C04D1146844F008041460A7
:100DA00003E0146824F008041460CC7A012C04D108
:100DB000146844F00404146003E0146824F004048C
:100DC00014608C78A407CD7844EA05640D7944EA70
:100DD00005444D7944EA05540D886D1E2C43D461B9
:100DE000146824F001041460002300E05B1C5468C4
:100DF00004F001041CB14FF6FF74A342F6D154680D
:100E000004F001040CB1002000E0012030BD0246D6
:100E1000002019B9D36803F0030006E0012903D1CB
:100E2000136903F0030000E00020704710B500F5DF
:100E3000D87303EB01131B6803F004031372137AD6
:100E400053B900F5D87303EB01131B6840F2FF742C
:100E500004EA5353136009E000F5D87303EB011360
:100E60001B686FF0604404EAD303536000F5D87345
:100E700003EB01131B6803F00203537200F5D873F0
:100E800003EB01135B6803F00F03937200F5D87353
:100E900003EB01135B681B0AD37400F5D87303EBF3
:100EA00001139B68D37200F5D87303EB01139B68A1
:100EB0001C0A147300F5D87303EB01139B681C0C18
:100EC000547300F5D87303EB01139B681B0E9373E7
:100ED00000F5D87303EB0113DB68D37300F5D87307
:100EE00003EB0113DB681C0A147400F5D87303EBE1
:100EF0000113DB681C0C547400F5D87303EB011369
:100F0000DB681B0E937421B9C36843F02003C360F0
:100F100003E0036943F02003036110BD10B50246EE
:100F20000020936803F08063B3F1806F00D110E07C
:100F3000936803F00063B3F1006F01D1012008E072
:100F4000936803F08053B3F1805F01D1022000E089
:100F50000420042874D002F5C07303EB00131B684F
:100F600003F0010402F5C07303EB00131C600B7A5D
:100F70007BB94B7A0C8843EA445302F5C07404EB06
:100F800000142468234302F5C07404EB00142360AA
:100F900010E00B7A4C6843EAC4034C7A234302F511
:100FA000C07404EB00142468234302F5C07404EBFE
:100FB000001423608B7A03F00F038B7202F5C07369
:100FC00003EB00135B6823F00F0402F5C07303EB1F
:100FD00000135C6002F5C07303EB00135B688C7A4E
:100FE000234302F5C07404EB001463608B7B1C0682
:100FF0004B7B44EA03440B7B44EA0323CC7A234330
:1010000002F5C07404EB0014A3608B7C1C064B7CBF
:1010100044EA03440B7C44EA0323CC7B234302F5DC
:10102000C07404EB0014E36002F5C07303EB00131B
:101030001B6843F0010402F5C07303EB00131C604E
:1010400010BD000010B50246002321B1012907D0D0
:1010500002290FD109E090681D4C00EA04030BE05F
:1010600090681C4C00EA040306E090681A4C00EA01
:10107000040301E0002300BF00BF184C181BA3426B
:1010800016D007DC83B16FF08060184470B102287D
:1010900018D111E0B0F5007F10D0114C204448B1B8
:1010A000B0F5003F0ED10BE002230DE000230BE072
:1010B000002309E0002307E0012305E0012303E00A
:1010C000012301E0002300BF00BFD8B210BD000023
:1010D00003000004000300080000031000010008E2
:1010E0000001FFF710B54B494B4800F089F9002883
:1010F0007ED04A49484800F097F84649464800F0F3
:10110000ADF8474800784649497840EA0120C0F3E5
:101110000A004449086042484078C0104049897834
:1011200040EA4110C0F30A003E4948603C488078DC
:1011300080113B49C97840EA81003949097940EA80
:101140008120C0F30A003749886035480079401093
:101150003349497940EAC110C0F30A003149C860F7
:101160002F484079C0F3011008752D4840790011CF
:10117000800848752A4880792949C97940EA0120C0
:1011800000B22849C8822648007A2549497A40EAAF
:10119000012001B2234801832148807A2049C97A7D
:1011A00040EA012001B21F4841831D48017B1D48D0
:1011B00001771B48417B1B4841771948807B1849C0
:1011C000C97B40EA01201749C8831548007C1449AF
:1011D000497C40EA01201349086108460068A0F5EF
:1011E0008060086008464068A0F58060486000E0C4
:1011F0000EE008468068A0F5806088600846C068F8
:10120000A0F58060C86008460069A0F580600861AC
:1012100010BD000000880020886402400008002003
:1012200098040220B10402200246094B9A4201D2DE
:10123000084801E00648103801F000531BB1064B86
:101240000B40C36002E0044B0B408360704700001A
:1012500010640240006002407D0F7D0F0246094B82
:101260009A4201D2084801E00648103801F00053C4
:101270001BB1064B0B40C36002E0044B0B40836084
:101280007047000010640240006002407D0F7D0F37
:1012900021B1026842F00102026003E0026822F01C
:1012A0000102026070470000016821F00101016045
:1012B0000021016041608160C160016121214161C3
:1012C0004A49884204D13D21484A103A91608CE055
:1012D00046491831884205D14FF47461434A103AA7
:1012E000916082E041493031884205D14FF4741158
:1012F0003E4A103A916078E03C494831884205D135
:101300004FF07461394A103A91606EE037496031AC
:10131000884204D13649354A103AD16065E03349F4
:101320007831884204D13349304A103AD1605CE0C8
:101330002E499031884204D12F492C4A103AD1606D
:1013400053E02A49A831884205D14FF03D51274A40
:10135000103AD16049E02949884204D13D21274A09
:10136000083A116041E025491831884205D14FF40F
:101370007461224A083A116037E0204930318842CE
:1013800005D14FF474111D4A083A11602DE01B4934
:101390004831884205D14FF07461184A083A11600B
:1013A00023E016496031884204D11149134A121FC3
:1013B00011601AE011497831884204D10D490F4A71
:1013C000121F116011E00D499031884204D10A4981
:1013D0000A4A121F116008E00849A831884204D166
:1013E0004FF03D51054A121F1160704710600240D6
:1013F0003D000020400F002000003D20106402400E
:1014000070B50246002000240025124EB24201D2DF
:10141000114B01E00F4B103B104E0E4036B11E2613
:1014200006EAD124166806EA040502E0566906F0C9
:10143000800501F000560EB15C6800E01C68084EA3
:10144000344004EA010616B10DB1012000E000208D
:1014500070BD000010640240006002403C0F3C0F71
:101460007D0F7D0F10B501F080034BB122B14369B0
:1014700043F08003436103E0436923F08003436149
:1014800080290BD02AB1036801F01E0423430360B6
:1014900004E0036801F01E04A343036010BD0000D4
:1014A00010B500220268134B1A40CC680B68234326
:1014B0004C6923438C692343CC6923430C6A23433F
:1014C0004C6A23438C6A23434C6B23438C6B23432A
:1014D0001A430260426922F00702D1E90B34234328
:1014E0001A4342610B6943604B6883608B68C36039
:1014F00010BD00003F801CF07047F0B50A46002187
:101500000023002400BF3DE0012505FA01F3156822
:1015100005EA03049C4234D105684F000326BE400F
:10152000B543056015794E00B54006683543056042
:101530001579012D02D01579022D16D185684F003D
:101540000326BE40B543856055794E00B540866898
:1015500035438560456801268E40B5434560456842
:1015600096798E40B6B235434560C5684F00032674
:10157000BE40B543C560D5794E00B540C668354319
:10158000C560491C1029BFD3F0BDF0B5002300246D
:101590004D07ED0E02FA05F3CE1000F1200555F8C7
:1015A00026504E07F70E0F26BE40B543CF1000F170
:1015B000200646F82750CE1000F1200555F8265099
:1015C00045EA0304CE1000F1200545F82640F0BDA1
:1015D000418370470183704700BFFEE700BFFEE70D
:1015E0007047000070B5002100230F22C4781CB39F
:1015F000174C246804F4E064C4F5E064C4F30721E4
:10160000C1F10404E3B20A4144789C40E1B2847819
:10161000144021430C07210E0E4C057861550478C7
:1016200004F01F050124AC4005786D11AD0005F1F3
:10163000E025C5F8004109E0047804F01F05012405
:10164000AC40054D0678761145F8264070BD000087
:101650000CED00E000E400E080E100E0024901431D
:10166000024A1160704700000000FA050CED00E02E
:1016700029B1064A12680243044B1A6004E0034A87
:1016800012688243014B1A607047000030380240F4
:1016900029B1064A12680243044B1A6004E0034A67
:1016A00012688243014B1A607047000040380240C4
:1016B00029B1064A12680243044B1A6004E0034A47
:1016C00012688243014B1A607047000020380240C4
:1016D00029B1064A12680243044B1A6004E0034A27
:1016E00012688243014B1A60704700004438024080
:1016F00029B1064A12680243044B1A6004E0034A07
:1017000012688243014B1A6070470000243802407F
:10171000F0B5002100220024022500260223324FCA
:101720003F6807F00C0121B1042905D0082937D101
:1017300005E02E4F076036E02D4F076033E02A4F5B
:101740003F1F3F68C7F38056274F3F1F3F6807F092
:101750003F036EB1264FB7FBF3F7DFF88CC0ACF157
:10176000040CDCF800C0CCF3881C07FB0CF40CE084
:101770001E4FB7FBF3F7DFF870C0ACF1040CDCF8D8
:1017800000C0CCF3881C07FB0CF4174F3F1F3F68C9
:10179000C7F301477F1C7D00B4FBF5F7076002E04B
:1017A000124F076000BF00BF0F4F3F6807F0F00106
:1017B0000909104F7A5C0768D74047600A4F3F68B5
:1017C00007F4E051890A0B4F7A5C4768D74087607D
:1017D000054F3F6807F46041490B064F7A5C476844
:1017E000D740C760F0BD0000083802400024F40074
:1017F000001BB700140000200CB5002001900090E1
:101800004148006840F480303F49086000BF3E48CE
:10181000006800F4003000900198401C019000988E
:1018200018B90198B0F5A04FF1D13748006800F41D
:10183000003010B10120009001E0002000900098DD
:10184000012860D130484030006840F080502E4977
:10185000403108602D48006840F440402B49086042
:10186000294808300068284908310860084600689F
:1018700040F4004008600846006840F4A05008604A
:101880002348091F0860081F006840F08070091F86
:10189000086000BF1C48006800F000700028F9D004
:1018A0001A48006840F480301849086000BF1748A3
:1018B000406800F480300028F9D01448006840F4F3
:1018C00000301249086000BF1048406800F4003042
:1018D0000028F9D040F205700E4908600A48083027
:1018E000006820F0030008490831086008460068D5
:1018F00040F00200086000BF03480830006800F0B4
:101900000C000828F8D10CBD0038024000700040DF
:10191000062D4008003C024010B51548006840F410
:101920007000134908601348006840F00100114935
:10193000086000200F49083108600E4800680E4911
:1019400008400C4908600D48091D0860081F006820
:1019500020F48020091F0860002006490C3108602F
:10196000FFF74AFF4FF0006001498039086010BD61
:1019700088ED00E000380240FFFFF6FE1030002442
:1019800010B50121034800F016F80121014800F0CC
:101990000FF810BD0004004010B50121034800F00D
:1019A0000AF80121014800F003F810BD00080040CA
:1019B000CA430282704730B502460020002300244B
:1019C000158A05EA0103958905EA010413B10CB1F2
:1019D000012000E0002030BD00B597B0012148484B
:1019E000FFF746FE01211020FFF772FE0722114685
:1019F0004448FFF7CAFD8020119002208DF848006E
:101A000000208DF84A0003208DF8490000208DF851
:101A10004B0011A93B48FFF770FD3B4800F044F92B
:101A20003A4813900020ADF85000ADF852004FF442
:101A30008060ADF854000420ADF856000020ADF8E9
:101A4000580013A9304800F003FA002240F2255153
:101A50002D4800F0D8F901212B4800F00FF90122A0
:101A60004021294800F016F944208DF8400001205B
:101A70008DF8410000208DF8420001208DF84300D0
:101A800010A8FFF7AFFD00212148FFF701FC00BFC0
:101A90001F48006800F001000028F9D11C48FFF73A
:101AA00003FC4FF0006001901748001D0290194898
:101AB00003900020049012200590002006904FF41F
:101AC000806007900020089009904FF480700A9081
:101AD0004FF440300B9000200C900D900E900F9022
:101AE00001A90B48FFF7DCFC012210210848FFF791
:101AF000B9FC01210648FFF7CBFB17B000BD000081
:101B0000020040000004024000100140A0860100D5
:101B1000886402409804022010B540F2255105481F
:101B200000F047F920B140F22551024800F097F843
:101B300010BD00000010014010B588B0044601211E
:101B40004020FFF795FD01212020FFF7C1FD08226D
:101B500009212448FFF719FD08220E212148FFF72B
:101B600014FD4FF48440069002208DF81C008DF87F
:101B70001D0000208DF81E0001208DF81F0006A911
:101B80001848FFF7BAFC02940020ADF80C00ADF83D
:101B90000E00ADF81000ADF814000C20ADF81200E6
:101BA00002A9114800F054F901210F4800F066F82D
:101BB00040210D4800F04AF8012240F225510A4820
:101BC00000F021F947208DF8040003208DF805006E
:101BD0008DF8060001208DF8070001A8FFF702FD2F
:101BE00008B010BD001802400014014010B540F2CA
:101BF0002551064800F0DDF830B1044800F092F9B4
:101C0000C4B2204600F004F810BD000000140140EA
:101C100000BF0549098801F040010029F9D00249B7
:101C2000091D0880704700000014014010B50446EB
:101C30002146054800F07BF900BF8021024800F0F2
:101C4000ABF80028F9D010BD0014014001F4007277
:101C5000B2F5007F00D100BFCA430280704710B5C3
:101C60000022002340F66A14A14200D100BF0A12EC
:101C700001249440A3B2DC43048010BD21B18289C9
:101C800042F40052828104E082894DF6FF731A40CB
:101C9000828170471AB1838A0B43838202E0838A70
:101CA0008B4383827047000010B50446324884425B
:101CB00008D101211020FFF71BFD00211020FFF7A4
:101CC00017FD57E02D48844209D101214804FFF750
:101CD000EFFC00214FF40030FFF7EAFC4AE028480F
:101CE000844209D101218804FFF7E2FC00214FF46E
:101CF0008020FFF7DDFC3DE02248844209D101212C
:101D0000C804FFF7D5FC00214FF40020FFF7D0FCFA
:101D100030E01D48844209D101210805FFF7C8FCC5
:101D200000214FF48010FFF7C3FC23E017488442E2
:101D300008D101212020FFF7DBFC00212020FFF744
:101D4000D7FC17E01248844209D101218807FFF728
:101D5000AFFC00214FF08040FFF7AAFC0AE00D48DD
:101D6000844207D101214005FFF7A2FC0021600554
:101D7000FFF79EFC10BD0000001001400044004031
:101D800000480040004C004000500040001401405A
:101D900000780040007C004002460020B1F5007F42
:101DA00000D100BF13880B400BB1012000E00020E0
:101DB000704770B50246002400230025002040F63D
:101DC0006A16B14200D100BFC1F3421501F01F03F2
:101DD000012606FA03F3012D02D19689334006E06D
:101DE000022D02D1168A334001E0968A33400C124C
:101DF000012606FA04F41688344013B10CB1012010
:101E000000E0002070BDF0B5034600240026002548
:101E1000002040F66A17B94200D100BF1846C1F34E
:101E2000421401F01F06012707FA06F5012C01D123
:101E30000C3004E0022C01D1103000E014301AB153
:101E400007682F43076002E00768AF430760F0BDF3
:101E50002DE9FF4705460E460024A14600BFA046D7
:101E6000B08900B100BF2C8A24F44054F0880443A8
:101E70002C82AC8941F20C608443B08831890843DC
:101E8000718908430443AC81AC8A24F44074B0895E
:101E90000443AC826846FFF73BFC2048854202D0F1
:101EA0001F48854202D1DDF80C9001E0DDF8089072
:101EB000A88900F4004040B109EBC90000EB09100B
:101EC00031684900B0FBF1F707E009EBC90000EB0E
:101ED000091031688900B0FBF1F76420B7FBF0F01E
:101EE00004012009642101FB1078A88900F4004056
:101EF00040B1322000EBC800B0FBF1F000F0070069
:101F0000044308E0322000EB08106421B0FBF1F03C
:101F100000F00F0004432C81BDE8FF870010014052
:101F20000014014001468888C0F308007047C1F3DF
:101F300008028280704700BFFEE7000010B52DED5B
:101F40000A8B7B4840687A49C98B01F0010101EB9B
:101F5000C10202EB011100EB81007549C98B01F050
:101F6000020101EBC10202EB0111A0EB810000B202
:101F7000704908806E4800686D49C98B01F00801FE
:101F800001EB810100EB01106949C98B01F00401EB
:101F900001EB8101A0EB011000B2674908806448A1
:101FA00080686349C98A01EB810100EB810000B2BE
:101FB000624908805E48407D032801D100200880E6
:101FC0005C480088C0EB001000B25D4908805A48A8
:101FD0000088C0EB001000B25A49088057480088BA
:101FE000800000B2584908805149C98B01F0800037
:101FF00002F0CEFB41EC1C0B9FED540B53EC102B6D
:1020000002F0DEFB41EC1B0B9FED520B53EC102B4F
:1020100002F0D4FC41EC190B4549C98B01F040009A
:1020200002F0B6FB41EC1C0B9FED480B53EC102B60
:1020300002F0C6FB41EC1B0B9FED460B53EC102B43
:1020400002F0FEFA41EC1A0B53EC192B02F0B8FB2C
:1020500041EC180B02F0C2FA404908603848B0F968
:10206000000000EE100AB8EEC00A0846D0ED000AE3
:1020700020EE200ABDEEC00A10EE100A00B2384968
:1020800008803048B0F9000000EE100AB8EEC00A2F
:102090003248D0ED000A20EE200ABDEEC00A10EE54
:1020A000100A00B22F4908802748B0F9000000EE5E
:1020B000100AB8EEC00A2948D0ED000A20EE200A26
:1020C000BDEEC00A10EE100A00B22749088024486D
:1020D000008824490988084423490988084400B233
:1020E000224908801E48008840421E490988084449
:1020F0001D490988084400B21D4908801848008815
:10210000404218490988401A17490988084400B212
:10211000184908801248008812490988401A124953
:102120000988084400B214490880BDEC0A8B10BD30
:10213000B1040220980000209A0000209C0000209A
:10214000A4000020A6000020A8000020000000003D
:102150000000E03F000000000000F03FBC00002055
:102160009E000020A0000020A2000020B20000205D
:10217000B4000020B6000020B800002008484088C5
:10218000084908800848408808490880084840886D
:1021900008490880084840880849088070470000BE
:1021A000C0000020AA000020C8000020AC000020D1
:1021B000D0000020AE000020D8000020B000002099
:1021C00010B59FED072ADFED071AB2EE041ADFED16
:1021D000060A9FED060A064800F094F810BD0000BC
:1021E000000000000AD7A33C0000FA4400401C4550
:1021F000D4040220B0EE401A10B99FED400A704797
:1022000080ED041AC0ED030A70EEC11AC0ED051A84
:1022100090ED000A90ED052A20EE020A80ED080AF2
:1022200090ED090A90ED012AD0ED052A02EE220A6E
:1022300080ED090A90ED050A314A02EB810292ED28
:10224000002A30EE420A90ED022A20EE020A80EDCA
:102250000A0A90ED090A90ED072AB4EEC20AF1EEDF
:1022600010FA04DD90ED070A80ED090A10E090ED08
:10227000090A90ED072AB1EE422AB4EEC20AF1EE45
:1022800010FA05D290ED070AB1EE400A80ED090A76
:1022900090ED080A90ED092A30EE020A90ED0A2A24
:1022A00030EE020A80ED0B0A90ED0B0A90ED062A43
:1022B000B4EEC20AF1EE10FA04DD90ED060A80EDEC
:1022C0000B0A10E090ED0B0A90ED062AB1EE422ABF
:1022D000B4EEC20AF1EE10FA05D290ED060AB1EEA4
:1022E000400A80ED0B0A90ED050A054A02EB8102D7
:1022F00082ED000A90ED0B0A81E70000000000006B
:102300000405022000B9704780ED001AC0ED011AE3
:1023100080ED022ADFED062AC0ED052ADFED042A52
:10232000C0ED042AC0ED070A80ED060A00BFEAE707
:10233000000000002DE9FC4107460C4615461E46EC
:10234000380A8DF80000F8B28DF80100200A8DF8E7
:102350000200E0B28DF80300280A8DF80400E8B20C
:102360008DF80500300A8DF80600F0B28DF80700F0
:10237000082269469001FEF771FBBDE8FC81000070
:1023800010B501214248B0F9000000EE100AF8EE45
:10239000C00A4048B0F9000000EE100AB8EEC00ACA
:1023A0003D48FFF727FFBDEEC00A10EE100A00B24D
:1023B0003749088002213948B0F9000000EE100AC0
:1023C000F8EEC00A3648B0F9000000EE100AB8EE88
:1023D000C00A3148FFF70EFFBDEEC00A10EE100A2A
:1023E00000B22E49088003212E48B0F9000000EE0B
:1023F000100AF8EEC00A2C48B0F9000000EE100AEE
:10240000B8EEC00A2448FFF7F5FEBDEEC00A10EE94
:10241000100A00B22349088004212448B0F90000C2
:1024200000EE100AF8EEC00A2148B0F9000000EEF4
:10243000100AB8EEC00A1848FFF7DCFEBDEEC00A6D
:1024400010EE100A00B219490880FF20FFF7EEFBDA
:102450000F490878FFF7EAFB10490878FFF7E6FB19
:1024600010490878FFF7E2FB10490878FFF7DEFB18
:102470000E48B0F900300B48B0F900200748B0F919
:1024800000100348B0F90000FFF754FF10BD000032
:10249000B2000020AA000020D4040220B4000020D2
:1024A000AC000020B6000020AE000020B8000020E4
:1024B000B000002010B5FFF741FDFFF75FFEFFF70A
:1024C0005FFF10BD322000F02BF800F0B1F803E000
:1024D000FFF776FEFFF7EEFFFAE700006FF004006B
:1024E0004FF0E02108610A4800680A49B0FBF1F0AA
:1024F000094908700846007800EB4001C1EBC010A4
:102500004FF6FF7101EAC0000449088070470000DF
:102510000000002000127A002C0100202E01002073
:10252000014600200C4A12884A434FF0E0235A61CA
:1025300000229A6101221A6100BF4FF0E022106967
:1025400000F001021AB100F48032002AF5D0002216
:102550004FF0E0231A6170472E0100200146002051
:102560000C4A12784A434FF0E0235A6100229A61E4
:1025700001221A6100BF4FF0E022106900F0010251
:102580001AB100F48032002AF5D000224FF0E02387
:102590001A6170472C01002010B504464FF480707A
:1025A00040FA04F10148FFF715F810BD0018024089
:1025B0001CB501217020FFF75BF84FF480400090BC
:1025C00001208DF8040000208DF8060003208DF80E
:1025D000050001208DF8070069460D48FEF78DFFC4
:1025E0004FF40060009069460A48FEF786FF00F04D
:1025F00015F800F027F84FF4FF7000906946064880
:10260000FEF77BFF4FF4FF70FFF7C6FF1CBD000015
:1026100000140240001002400018024010B54FF4B0
:1026200080410248FEF7D6FF10BD000000140240B2
:1026300010B54FF480410248FEF7CAFF10BD0000FC
:102640000014024010B54FF400610248FEF7C2FFCB
:1026500010BD00000010024010B5FDF79EFF00F015
:1026600061FE01F0F7F8002010BD00001CB501214B
:102670008020FEF7FDFF3C20009001208DF8040033
:1026800000208DF8060003208DF8050001208DF84C
:10269000070069462348FEF730FF01214020FEF77E
:1026A000E7FF42F20200009001208DF804000020B4
:1026B0008DF8060003208DF8050001208DF8070035
:1026C00069461948FEF719FF4FF400511648FEF706
:1026D00081FF40F2C520FFF741FF04211148FEF7BA
:1026E00079FF40F2C520FFF739FF08210D48FEF7BA
:1026F00071FF40F2C520FFF731FF10210948FEF7B6
:1027000069FF40F2C520FFF729FF20210548FEF7A9
:1027100061FF40F2C520FFF721FF02210248FEF7CA
:1027200059FF1CBD001C0240001802402DE9F04179
:1027300005460E461C4807681C480068001D00F04E
:1027400009FE50B91948006890F82C100120884003
:1027500017490968814316480160681C38B936B1C9
:1027600012480168091D134800F032FE1AE07C1976
:102770000E4800684460BC4207D20C480168091D3D
:102780000D48006800F00AFE0CE008480168091DC9
:102790000A48006800F002FE09480068844201D23D
:1027A00007480460BDE8F0813800002024000020C4
:1027B0003C000020480400202C00002028000020BD
:1027C0005400002010B5044600F00EFE24480068B6
:1027D000401C234908602348006840B92148046030
:1027E0000846006801280DD100F0E0F90AE01E4813
:1027F000006838B91B480068C06AE16A884201D89D
:102800001848046019480068401C184908600846C8
:102810000068606494F82C1001208840144909680D
:10282000084313490860E16A01EB8101114A02EB98
:102830008100211D00F0CCFD00F000FE0A48006878
:1028400068B108480068C06AE16A884207D24FF060
:10285000805009490860BFF34F8FBFF36F8F10BDE1
:102860003400002024000020400000205000002000
:102870003C0000207801002004ED00E010B500F0DD
:10288000B3FD10480068D0B90F4800F077FD0F483D
:1028900000F074FD0C480E4908600C480D490860B2
:1028A00000220C210A2001F009F9064908600846B7
:1028B000006820B108A10348006800F063FE00F042
:1028C000BDFD10BD680000205C04002070040020E5
:1028D0006000002064000020546D72510000000070
:1028E00070B523E001F000F81348006808B9012032
:1028F00000E00020054601F083FDBDB900F074FD45
:102900000D48C068C468201D00F024FD0B48006815
:10291000401E0A4908600A480068401E08490860CD
:1029200000F08CFD204600F060F800BF044800680D
:102930000028D7D170BD00003404002034000020EE
:102940003000002070B504460D46206C70B1216C3B
:10295000E0680844E0606168E068884201D320686C
:10296000E0602846226CE168FDF712FD70BD2DE99C
:10297000F04104460F4615464FF00008A66B206C48
:1029800040B9206860BB606801F08AFC8046002086
:10299000606025E07DB93946226CA068FDF7F8FC3F
:1029A000216CA0680844A060D4E90110884217D3C4
:1029B0002068A06014E03946226CE068FDF7E8FC6E
:1029C000216CE068401AE0602168E068884203D228
:1029D000216C6068401AE060022D01D106B1761EBC
:1029E000701CA0634046BDE8F08110B50446206B22
:1029F00000F042FD204600F03FFD10BD0146084AB0
:102A0000126812680AB9012200E000220A600A680E
:102A100022B9034A1268D268106800E000207047AB
:102A20006000002030B54FF40033174800F0070471
:102A30002CB1C01D20F00700134C041B1B1B0246C9
:102A4000124C22600024114D6C60D018083820F020
:102A500007000F4C206000240D4D2D686C600C4D5C
:102A60002D682C601146441A4C60094C24680C6097
:102A7000084D4C682C60084D4C682C604FF00044A9
:102A8000064D2C6030BD000084040020740000203E
:102A90007C000020840000208000002088000020AE
:102AA00000BFFFF71DFF064800680128F9D94FF065
:102AB000805004490860BFF34F8FBFF36F8FF0E77A
:102AC0007801002004ED00E02DE9F04106460D46B6
:102AD00017469846069C0DB9246000E02760E6631F
:102AE00025640121204601F0F7F884F85080002089
:102AF000A064BDE8F0812DE9F05F82460F46904664
:102B00009B460A9E0C9C4FEA8801A522206BFDF78C
:102B100084FCA8F10100216B01EB800929F0070971
:102B200009F0070008B9012000E0002050B900BFFB
:102B3000502080F31188BFF34F8FBFF36F8F00BF1A
:102B400000BFFEE7002507E0795D04F13400415540
:102B5000785D00B902E06D1C102DF5D300BF002197
:102B600043200155202E00D31F26E662E664002094
:102B70002065201D00F00FFC04F1180000F00BFC94
:102B80002461C6F12000A06164620020606584F8C1
:102B900058005A465146484600F08CFB20600B987E
:102BA00008B10B980460BDE8F09F000010B5002448
:102BB00007E004EB84010F4A02EB810000F0DEFB2A
:102BC000641C202CF5D30C4800F0D8FB0B4800F017
:102BD000D5FB0B4800F0D2FB0A4800F0CFFB0A48B7
:102BE00000F0CCFB04480949086004480849086023
:102BF00010BD000078010020F80300200C04002024
:102C00002004002034040020480400202800002074
:102C10002C00002010B50146164800E0006803684B
:102C20008B42FBD30246436813448B4204D1436872
:102C30004C682344436001460A464B6813440468C9
:102C4000A34211D10C4C03682468A34208D04B68FE
:102C50000468646823444B6003681B680B6005E0EC
:102C6000054B1B680B6001E003680B60884200D0D5
:102C7000016010BD740000207C0000202DE9F041AF
:102C800004460D4616461F464FF000086560246155
:102C9000B5420CD8F01BA169884202D34FF001085D
:102CA00011E0211D0948006800F078FB0BE0BE42EE
:102CB00004D2BD4202D34FF0010804E0211D0448B4
:102CC000006800F06BFB4046BDE8F0816400002026
:102CD0006000002070B5054600F086FBA86B08B9BF
:102CE000012400E0002400F0A9FB204670BD70B56F
:102CF000054600F079FBA86BE96B884201D10124FD
:102D000000E0002400F09AFB204670BD2DE9F3415D
:102D10000D460098846C002754B900BF502080F302
:102D20001188BFF34F8FBFF36F8F00BF00BFFEE767
:102D3000A06BE16B884201D2012000E0002050B975
:102D400000BF502080F31188BFF34F8FBFF36F8F08
:102D500000BF00BFFEE7A06BE16B88421BD294F975
:102D600045602A4669462046FFF701FE0746701C6B
:102D700060B9606A08B9012000E0002050B904F190
:102D8000240001F0F1FA28B1012703E0701C40B2E1
:102D900084F8450000BF3846BDE8FC81F8B505461B
:102DA0000F4616480068C068C468201D00F0D2FABB
:102DB000E06901281DD1A06941192B463A462046F9
:102DC000FFF75CFFA8B1002003462A4601460090A9
:102DD000204601F0C1FB064656B900BF502080F3E3
:102DE0001188BFF34F8FBFF36F8F00BF00BFFEE7A7
:102DF00000BF2046616A8847F8BD000060000020DF
:102E000070B586B06AE00398002867DB059C6069AE
:102E100008B9012000E0002010B9201D00F09AFA46
:102E200002A800F0BDF8054603980A2854D2DFE84E
:102E300000F009050731334F0608323400BF00BFE8
:102E400000BF00BF0498A269811803462A462046A5
:102E5000FFF714FFE8B12046616A8847E06901285E
:102E600017D1002000900498A16942180023194648
:102E7000204601F071FB064656B900BF502080F392
:102E80001188BFF34F8FBFF36F8F00BF00BFFEE706
:102E900000BF22E000BF20E000BF0498A061A0694D
:102EA00008B1012000E0002050B900BF502080F39D
:102EB0001188BFF34F8FBFF36F8F00BF00BFFEE7D6
:102EC000A06941192B462A462046FFF7D7FE04E0A9
:102ED000204600F0D1FA00E000BF00BF00231A46F0
:102EE00003A90448006800F015FE00288BD106B045
:102EF00070BD000068000020F8B505460C4600F0E3
:102F0000F3FC684600F04CF80646009820BB44B934
:102F1000B54206D801F074FA31462846FFF73EFF65
:102F20001CE03CB10E480068006808B9012000E0D0
:102F300000200446A91B22460A48006800F038FB1E
:102F400001F05EFA50B94FF0805007490860BFF3B6
:102F50004F8FBFF36F8F01E001F052FAF8BD000010
:102F6000640000206800002004ED00E00A490968C0
:102F7000096809B9012100E0002121B14FF0FF31BA
:102F8000064A116006E004490968C968C868034A2E
:102F900041681160704700002800002054000020A4
:102FA00070B5044601F0D2F805460748006885422E
:102FB00004D200F00BF80120206001E00020206026
:102FC00001480560284670BD700000202DE9F843D7
:102FD00032E024480068C068056822480068C0687C
:102FE000C468201D00F0B6F92046616A8847E06990
:102FF000012821D1A0694619AE4207D96660246133
:10300000211D1848006800F0C9F915E000200346AA
:103010002A4601460090204601F09EFA074657B91D
:1030200000BF502080F31188BFF34F8FBFF36F8F25
:1030300000BF00BFFEE700BF0A480068006808B98B
:10304000012000E000200028C3D00648D0F800800E
:1030500005480068034908600348C0F80080BDE8DF
:10306000F883000060000020640000200E48006823
:10307000401C08B9012000E0002050B900BF5020DA
:1030800080F31188BFF34F8FBFF36F8F00BF00BF76
:10309000FEE700BF502080F31188BFF34F8FBFF3CE
:1030A0006F8F00BF00BFFEE78C00002008B500BF97
:1030B0006846FFF7A3FC044620460099FFF71CFF73
:1030C000FFF79EFEF4E770B5044600F08DF994F921
:1030D00045501AE0A06C38B100212046FFF716FEDB
:1030E00088B100F005FB0EE0606A08B9012000E03D
:1030F000002038B904F1240001F036F918B100F0CD
:10310000F7FA00E003E0681E45B2002DE2DC00BFE4
:10311000FF2084F8450000F091F900F065F994F97A
:10312000445010E0206908B9012000E0002048B9AF
:1031300004F1100001F018F908B100F0D9FA681E86
:1031400045B200E001E0002DECDC00BFFF2084F878
:10315000440000F073F970BD2DE9F04104464FF0D2
:10316000000800F0C1FB4648006808B9FFF75AFCA8
:1031700044480068204000286BD1D4B1083404F0E2
:103180000700B0B104F00700C0F10800044404F0E7
:10319000070008B9012000E0002050B900BF50200E
:1031A00080F31188BFF34F8FBFF36F8F00BF00BF55
:1031B000FEE7002C4DD034480068844249D8334E95
:1031C0003046056801E02E462D686868A04202D2AC
:1031D00028680028F7D12A480068854239D030682D
:1031E00000F10808286830606868001B102819D9A9
:1031F0002F1907F0070008B9012000E0002050B99E
:1032000000BF502080F31188BFF34F8FBFF36F8F43
:1032100000BF00BFFEE76868001B78606C6038463E
:10322000FFF7F8FC184968680968081A1649086029
:103230000846006816490968884203D212480068A7
:10324000134908600F4968680968084368600020EE
:10325000286001F0D5F808F0070008B9012000E067
:10326000002050B900BF502080F31188BFF34F8F6A
:10327000BFF36F8F00BF00BFFEE74046BDE8F0819F
:103280007C000020880000208000002074000020C6
:10329000840000200648006830B10549096801F142
:1032A0005000096D491C016001480068704700002A
:1032B00024000020001F4FF080730360001F21F0E6
:1032C00001030360001F054B036014380260001FF8
:1032D0006FF0020303602038704700006D30000873
:1032E0001CB5044600F080F80848072100234FF47D
:1032F0000072CDE9001006A1084800F0E7FE08487A
:10330000006800F07BF900F099F81CBD3401002042
:10331000436861737369735461736B00C52400085B
:10332000300100201CB50548012100234A02CDE9E7
:10333000001003A1064800F0C9FE1CBD30010020AA
:1033400073746172745F726F625F7461736B00009B
:10335000E132000801460A69D1E901309860D1E9FB
:10336000010358605068884201D18868506000208D
:1033700008611068401E10601068704700F1080175
:1033800041604FF0FF31816000F10801C1600161CF
:1033900000210160704700210161704710B50246AD
:1033A0000B685C1C0CB9106907E002F1080000E032
:1033B0004068446824689C42FAD944684C604C6870
:1033C000A160886041600A611468641C146010BDCB
:1033D00042684A6093688B609368596091600861A5
:1033E00003685B1C0360704700BF502080F31188A6
:1033F000BFF34F8FBFF36F8F00BF0E480068401CB4
:103400000C49086008460068012812D10A48006883
:10341000C0B208B9012000E0002050B900BF502020
:1034200080F31188BFF34F8FBFF36F8F00BF00BFD2
:10343000FEE770478C00002004ED00E00D480068B6
:1034400050B900BF502080F31188BFF34F8FBFF3F6
:103450006F8F00BF00BFFEE706480068401E0549A9
:1034600008600846006820B9002080F3118800BF7A
:1034700000BF70478C00002070B506463546002E10
:103480003FD0083D2C461F4960680968084008B1D4
:10349000012000E0002050B900BF502080F31188C7
:1034A000BFF34F8FBFF36F8F00BF00BFFEE72068F1
:1034B00008B9012000E0002050B900BF502080F37F
:1034C0001188BFF34F8FBFF36F8F00BF00BFFEE7C0
:1034D0000C4960680968084098B1206888B90949B2
:1034E000606809688843606000F0FEF9064960681A
:1034F00009680844044908602046FFF78BFB00F088
:103500007FFF70BD880000208000002070B5FCF7B0
:1035100015FF0446102C16D304F1E02090F8F05368
:1035200015480078854201DB012000E0002050B9F9
:1035300000BF502080F31188BFF34F8FBFF36F8F10
:1035400000BF00BFFEE70D48006800F4E0600C49D2
:103550000968884201D8012000E0002050B900BF6E
:10356000502080F31188BFF34F8FBFF36F8F00BFE0
:1035700000BFFEE770BD0000900000200CED00E0F1
:1035800094000020024600200BE0084B53F8303036
:1035900033B9064B43F8301003EBC0035A6002E026
:1035A000401C0828F1D300BF7047000038010020FC
:1035B0002DE9F04105460E4617462C46FFF714FF4D
:1035C00094F94400401C10B9002084F8440094F998
:1035D0004500401C10B9002084F84500FFF72EFF7D
:1035E000A06B28B93A46314604F1240000F0A2F855
:1035F0002046FFF768FDBDE8F081000070B5054684
:10360000FFF7F2FE15B93048006800E0284604468E
:10361000201DFFF79FFE78B9E06A00EB80002B4980
:1036200051F8200040B994F82C1001208840284916
:103630000968814326480160A06A18B104F11800A6
:10364000FFF788FE23480068401C224908601E4896
:103650000068844209D1211D1F48FFF7B9FE1F48A9
:103660000068401C1D49086009E01D480068401EB4
:103670001B4908602046FFF7B8F9FFF777FCFFF712
:10368000DDFE18480068E8B10F480068844219D18F
:103690001548006808B9012000E0002050B900BFBB
:1036A000502080F31188BFF34F8FBFF36F8F00BF9F
:1036B00000BFFEE74FF080500C490860BFF34F8F0A
:1036C000BFF36F8F70BD0000240000207801002040
:1036D0003C00002050000020340400203000002076
:1036E00034000020400000205C00002004ED00E0D9
:1036F00001200149086070474800002070B5044669
:103700000D4654B900BF502080F31188BFF34F8F8E
:10371000BFF36F8F00BF00BFFEE705480168183197
:103720002046FFF73BFE01212846FEF7FFFF70BD54
:103730002400002070B505460E46144655B900BF5A
:10374000502080F31188BFF34F8FBFF36F8F00BFFE
:1037500000BFFEE70648016818312846FFF738FE2B
:103760000CB14FF0FF3621463046FEF7DFFF70BD4B
:103770002400002070B505462C46002D4BD026496C
:10378000E06A0968C96A884245D2A06900F0004031
:1037900028B921480068C06AC0F12000A061E16A30
:1037A00001EB81011D4A02EB81016069884201D170
:1037B000012000E0002050B3201DFFF7CBFD78B9B9
:1037C000E06A00EB8000154951F8200040B994F8F8
:1037D0002C1001208840124909688143104801607B
:1037E0000D480068C06AE06294F82C1001208840FF
:1037F0000B49096808430A490860E16A01EB810145
:10380000064A02EB8100211DFFF7E2FD03E00248BA
:103810000068C06AE06270BD2400002078010020CA
:103820003C00002050B900BF502181F31188BFF344
:103830004F8FBFF36F8F00BF00BFFEE703490968DA
:103840000160034909684160704700004C00002096
:10385000380000201CB51D4800210B468022CDE910
:1038600000101BA11C4800F031FC0446012C02D1C1
:1038700000F048FE0446012C15D100BF502080F313
:103880001188BFF34F8FBFF36F8F00BF4FF0FF3032
:10389000124908600120124908600020114908609F
:1038A00000F070F810E0601C08B1012000E000207A
:1038B00050B900BF502080F31188BFF34F8FBFF382
:1038C0006F8F00BF00BFFEE71CBD00005800002046
:1038D00049444C4500000000A12A00085400002083
:1038E000400000203800002002480068401C0149C8
:1038F000086070475C0000201D48006818B1012076
:103900001C49086032E000201A4908601A48006823
:10391000B0FA80F0C0F11F0101EB8100174A52F8A4
:10392000200008B1012000E0002050B900BF502065
:1039300080F31188BFF34F8FBFF36F8F00BF00BFBD
:10394000FEE701EB81020D4B03EB820042685268F7
:10395000426000F108024368934202D14268526813
:1039600042604268D268064B1A6000BF7047000090
:103970005C000020480000203C000020780100206E
:10398000240000201CB5464800684649884201D002
:10399000012000E0002050B900BF502080F31188C2
:1039A000BFF34F8FBFF36F8F00BF00BFFEE73C48F0
:1039B00000683C49491E884201D0012000E00020F7
:1039C00050B900BF502080F31188BFF34F8FBFF371
:1039D0006F8F00BF00BFFEE73349084600780190B3
:1039E000FF200A4610700846007800909DF80000FD
:1039F00000F0F0009DF80020904201D1012000E08D
:103A0000002050B900BF502080F31188BFF34F8FC2
:103A1000BFF36F8F00BF00BFFEE79DF8000000F00E
:103A20005000224A10700720214A106009E0204807
:103A30000068401E1E4A10609DF800004006000EFF
:103A400000909DF8000000F080008028EFD018481A
:103A500000680002164A10601046008800F4E0601A
:103A60001060114A019810700D482030006840F431
:103A700070000B49203108600846006840F0704033
:103A8000086000200B490860FCF720FC0A48006829
:103A900040F0404008490860FCF708FC00201CBDCD
:103AA00000ED00E071C20F4100E400E09000002052
:103AB000940000208C00002034EF00E02DE9F84352
:103AC00005460E4690460DB1012000E0002050B999
:103AD00000BF502080F31188BFF34F8FBFF36F8F6B
:103AE00000BF00BFFEE70EB9002701E005FB06F7A7
:103AF00007F15400FFF730FB044644B104F15409C8
:103B000043464A46314628460094FEF7DDFF2046EC
:103B1000BDE8F8832DE9FF4782B005460E461F46F3
:103B20004FF0000A2C4654B900BF502080F3118892
:103B3000BFF34F8FBFF36F8F00BF00BFFEE70EB91B
:103B4000206C08B9012000E0002050B900BF5020CF
:103B500080F31188BFF34F8FBFF36F8F00BF00BF9B
:103B6000FEE700F0E3FA08B9049808B9012000E084
:103B7000002050B900BF502080F31188BFF34F8F51
:103B8000BFF36F8F00BF00BFFEE700BFFFF72CFC45
:103B9000D4F83890B9F1000F3DD0D4F80C803146FC
:103BA0002046FEF7CFFEDFB9A9F10100A06320682F
:103BB00010B9FFF76FFB6060206908B9012000E0D1
:103BC000002010BB04F1100000F0CEFBE8B14FF074
:103BD000805040490860BFF34F8FBFF36F8F14E0F0
:103BE000C4F80C80606A08B9012000E0002060B9C8
:103BF00004F1240000F0B8FB38B14FF08050354993
:103C00000860BFF34F8FBFF36F8FFFF717FC0120E2
:103C100006B0BDE8F087049818B9FFF70FFC002044
:103C2000F6E7BAF1000F04D16846FFF7FBFD4FF04D
:103C3000010AFFF703FCFFF757FEFFF7D5FB94F9E6
:103C40004400401C10B9002084F8440094F9450059
:103C5000401C10B9002084F84500FFF7EFFB04A9D1
:103C6000684600F0EDF940BB2046FFF733F8F0B1AD
:103C7000206830B9FFF7B8FB6068FFF77BFDFFF7FE
:103C8000DDFB04F124000499FFF738FD2046FFF71F
:103C90001AFA00F0B5FB00287FF478AF4FF080509F
:103CA0000C490860BFF34F8FBFF36F8F6EE720465C
:103CB000FFF709FA00F0A4FB68E72046FFF703FAD4
:103CC00000F09EFB2046FFF705F80028EED000200C
:103CD0009EE7000004ED00E070B505460E462C4658
:103CE00054B900BF502080F31188BFF34F8FBFF34A
:103CF0006F8F00BF00BFFEE7FFF776FBD4E90F121E
:103D0000206801FB020060600020A0632068A060C2
:103D1000E06B401E226C216800FB0210E060FF2077
:103D200084F8440084F845009EB9206908B9012050
:103D300000E00020A8B904F1100000F015FB80B1EC
:103D40004FF0805009490860BFF34F8FBFF36F8F6A
:103D500007E004F11000FFF711FB04F12400FFF766
:103D60000DFBFFF76BFB012070BD000004ED00E0D0
:103D70002DE9FF4383B0064688461D464FF00009F3
:103D8000344654B900BF502080F31188BFF34F8FE1
:103D9000BFF36F8F00BF00BFFEE7B8F1000F01D186
:103DA000206C08B9012000E0002050B900BF50206D
:103DB00080F31188BFF34F8FBFF36F8F00BF00BF39
:103DC000FEE7022D02D1E06B012801D1012000E0C5
:103DD000002050B900BF502080F31188BFF34F8FEF
:103DE000BFF36F8F00BF00BFFEE700F09FF908B977
:103DF000059808B9012000E0002050B900BF50200C
:103E000080F31188BFF34F8FBFF36F8F00BF00BFE8
:103E1000FEE700BFFFF7E8FAA06BE16B884201D331
:103E2000022D38D12A4641462046FEF7A0FD07461E
:103E3000A06C68B129462046FEF768FF28B34FF012
:103E400080503C490860BFF34F8FBFF36F8F1CE079
:103E5000606A08B9012000E0002068B904F124007C
:103E600000F082FA88B14FF0805032490860BFF309
:103E70004F8FBFF36F8F08E03FB14FF080502D4957
:103E80000860BFF34F8FBFF36F8FFFF7D7FA0120A2
:103E900007B0BDE8F083059818B9FFF7CFFA002006
:103EA000F6E7B9F1000F04D101A8FFF7BBFC4FF012
:103EB0000109FFF7C3FAFFF717FDFFF795FA94F929
:103EC0004400401C10B9002084F8440094F94500D7
:103ED000401C10B9002084F84500FFF7AFFA05A98F
:103EE00001A800F0ADF8F0B92046FEF700FFA0B140
:103EF00004F110000599FFF701FC2046FFF7E3F8F5
:103F000000F07EFA002885D14FF080500949086002
:103F1000BFF34F8FBFF36F8F7CE72046FFF7D3F8D7
:103F200000F06EFA76E72046FFF7CDF800F068FA69
:103F30000020ADE704ED00E02DE9F05F80468A4601
:103F400015461E46444654B900BF502080F31188E0
:103F5000BFF34F8FBFF36F8F00BF00BFFEE7BAF113
:103F6000000F01D1206C08B9012000E0002050B9F9
:103F700000BF502080F31188BFF34F8FBFF36F8FC6
:103F800000BF00BFFEE7022E02D1E06B012801D185
:103F9000012000E0002050B900BF502080F31188BC
:103FA000BFF34F8FBFF36F8F00BF00BFFEE7FFF778
:103FB000ADFA00BF5021EFF3118081F31188BFF3F8
:103FC0004F8FBFF36F8F00BF0746A06BE16B884236
:103FD00001D3022E2BD194F945B0324651462046EA
:103FE000FEF7C5FC0BF10100C8B9A06C40B1314629
:103FF0002046FEF78BFEB8B1B5B10120286013E072
:10400000606A08B9012000E0002068B904F12400CA
:1040100000F0AAF940B13DB10120286004E00BF1A5
:10402000010040B284F845004FF0010901E04FF073
:10403000000900BF87F3118800BF4846BDE8F09F24
:1040400070B504460D4654B900BF502080F3118866
:10405000BFF34F8FBFF36F8F00BF00BFFEE755B9AF
:1040600000BF502080F31188BFF34F8FBFF36F8FD5
:1040700000BF00BFFEE7FFF7B7F9124803682868E2
:10408000401C08B9002619E00F49206809688842D9
:1040900004D06068984201D801260FE06068181AC1
:1040A0002968884209D228686168591A401A28602C
:1040B0002046FFF7B7FB002600E00126FFF7BEF918
:1040C000304670BD380000204C0000202DE9FF4F25
:1040D00085B0804689461746DDE912ABB800FFF788
:1040E0003BF8064656B15C20FFF736F804460CB1A3
:1040F000266304E03046FFF7BFF900E000247CB1FE
:104100000020CDE900ABCDE902403A4649464046A1
:10411000089BFEF7F0FC2046FEF754FB012501E06A
:104120004FF0FF35284609B0BDE8F08F0549096812
:1041300009B9012005E00449096809B9022000E035
:1041400000207047400000205C0000200149086802
:1041500070470000380000202DE9F0414FF00008C2
:1041600044480068002877D143480068451C42480D
:10417000056015BB41480068006808B9012000E0EF
:10418000002050B900BF502080F31188BFF34F8F3B
:10419000BFF36F8F00BF00BFFEE73848076838489D
:1041A0000068364908603648076036480068401C99
:1041B00034490860FEF7DAFE00BF334800688542E4
:1041C0003CD300BF2D480068006808B9012000E01A
:1041D000002020B14FF0FF302B4908602DE0274828
:1041E0000068C068C4686668B54202D226480660A6
:1041F00023E0201DFFF7AEF8A06A18B104F1180003
:10420000FFF7A8F894F82C10012088401F4909688E
:1042100008431E490860E16A01EB81011C4A02EB78
:104220008100211DFFF7D4F81A49E06A0968C96ABC
:104230008842C7D34FF00108C4E700BF15480068A3
:10424000C06A00EB8000124951F82000012801D912
:104250004FF0010805E0FFE70F480068401C0E49D9
:1042600008600E48006808B14FF001084046BDE8FC
:10427000F08100005C0000203800002028000020B1
:104280002C0000204C000020540000203C000020A6
:104290007801002024000020440000204800002075
:1042A00070B505462C460026002D55D02B480068D9
:1042B000844201D1012000E0002050B900BF50200D
:1042C00080F31188BFF34F8FBFF36F8F00BF00BF24
:1042D000FEE7206D50B900BF502080F31188BFF376
:1042E0004F8FBFF36F8F00BF00BFFEE7206D401EF2
:1042F0002065E16CE06A88422ED0206D60BB201DF5
:10430000FFF728F878B9E06A00EB8000144951F80B
:10431000200040B994F82C10012088401149096808
:10432000814310480160E06CE062E06AC0F1200067
:10433000A06194F82C10012088400A4909680843BC
:1043400008490860E16A01EB8101054A02EB81003E
:10435000211DFFF73DF80126304670BD24000020E6
:10436000780100203C00002070B50646F068C46863
:1043700054B900BF502080F31188BFF34F8FBFF3B3
:104380006F8F00BF00BFFEE704F11800FEF7E2FFE9
:1043900015480068A8B9201DFEF7DCFF94F82C1022
:1043A0000120884011490968084310490860E16A02
:1043B00001EB81010E4A02EB8100211DFFF708F895
:1043C00004E004F118010B48FFF702F80A49E06A1B
:1043D0000968C96A884204D9012501200749086093
:1043E00000E00025284670BD5C0000203C00002055
:1043F0007801002020040020240000204800002034
:1044000070B5002400263648006850B900BF50201F
:1044100080F31188BFF34F8FBFF36F8F00BF00BFD2
:10442000FEE7FEF7E1FF2E480068401E2C490860B9
:104430000846006800284FD12A48006800284BD061
:1044400024E02948C068C46804F11800FEF782FF20
:10445000201DFEF77FFF94F82C100120884023498F
:104460000968084321490860E16A01EB8101204A9B
:1044700002EB8100211DFEF7ABFF1E49E06A0968CF
:10448000C96A884202D301201B49086016480068A7
:1044900008B9012000E000200028D2D00CB1FEF7BE
:1044A00065FD1648056865B100BFFFF755FE10B100
:1044B0000120114908606D1E002DF6D100200F4922
:1044C00008600D48006838B1012630070C490860C3
:1044D000BFF34F8FBFF36F8FFEF7B0FF304670BD55
:1044E0005C00002034000020200400203C0000205C
:1044F0007801002024000020480000204400002013
:1045000004ED00E01CB50024FEF7B8F90D48006882
:1045100050B10D4802210023CA01CDE900100BA1C2
:104520000C48FFF7D3FD044654B900BF502080F378
:104530001188BFF34F8FBFF36F8F00BF00BFFEE73F
:1045400020461CBD680000206C000020546D7220C5
:1045500053766300AD3000082DE9FE4304460D4656
:1045600016461F46DDF828804FF0000954B900BFF9
:10457000502080F31188BFF34F8FBFF36F8F00BFC0
:1045800000BFFEE71448006810B30095019602943E
:10459000062D15DAFFF7CAFD022808D1002342468E
:1045A00069460D480068FFF7E3FB814610E00023F1
:1045B0001A46694608480068FFF7DAFB814607E0BB
:1045C00000233A46694604480068FFF7B5FC814677
:1045D0004846BDE8FE8300006800002021F000424C
:1045E000A2F16052B2F5801F01F0004328BFD2F162
:1045F0007F6C0BD95FEA001C43EAC20242EB5070A9
:1046000018BF704728BF20F001007047B2F5801F27
:10461000BCBF184670474FEA410C1CF5001F02D280
:10462000084600F0C6BA70B500F074F900000089C1
:10463000FFF7F6BF4FF00040A0F580007047000084
:1046400010B591EA030F48BF83F0004300F1CA811F
:10465000841A71EB030C05D2121943EB0C03001BF7
:1046600061EB0C01DFF824E14FEA1154A4EB135C79
:104670001EEA430F18BF9EEA445F73D023EA0E037D
:10468000DCF1200E21EA045143F4801332D322FAE4
:104690000CFE10EB0E0023FA0CFE41EB0E01CCF1E8
:1046A000200E03FA0EFE10EB0E0051F10001B1F5E1
:1046B000801FCCF1200E32D201EB045112FA0EF21F
:1046C000BDE8104058BF7047401C38BF5FEA420247
:1046D00018BF7047002814BF20F0010041F100010D
:1046E0004FEA410313F5001F38BF7047A1F1C041E5
:1046F00000F05EB9012A43EB0302ACF1200CDCF1BF
:104700001F0E32BF4FF0000E23FA0CF310EB030024
:1047100041EB0451B4EB115FD0D0A1EB045101F592
:10472000801149085FEA300001EB04510ED350F1CB
:10473000000038BF12FA0EFE08D1BDE81040C9E7EC
:10474000401C38BF5FEA4202CAD1C3E7BDE810404F
:104750004FEA410313F5001F38BF7047A1F1C04174
:1047600000F026B99EEA445F08D011EA5E0FBDE86A
:10477000104004BF01F0004100207047BDE8104028
:1047800070B500F0C7F800BF64FBBE3E0000E0FF5C
:1047900010F0004248BF4042B0FA80F310FA03F133
:1047A0000AD0C3F11D0303F580634FEA415002EBC9
:1047B000035202EBD12170474FF000007047000018
:1047C000DFF848C170B51CEA111E1EBF1CEA1315A4
:1047D0009EEA0C0F95EA0C0F00F06F8081EA03044B
:1047E00023EA4C134EEAD47E21EA4C1141F48011A5
:1047F00043F48013AE44A1FB024CA0FB0365AEF171
:104800007F7E361955EB0C05A1FB034C4CF10003E0
:10481000A0FB021C16EB0C06654153F10003094294
:1048200018BF46F0010613F4007F0BD14FEA0331A5
:104830004FEA0530340341EA155140EA16506FF053
:1048400003020AE04FEAC3214FEAC520F40241EA1D
:10485000555140EA56506FF0020202EB2E4201EB36
:10486000025585EACE710AD05FEA440C18BF24F0E5
:10487000004450F1000041F1000120EAD47040F200
:10488000FE7C624500D270BDA84214BF4FF0804448
:104890004FF04044002E08BF0024BEF1806FA8BF37
:1048A000A1F1C041BDE8704080F282804FF000006D
:1048B00001F1C04101F0004170479EEA0C0F0CEA83
:1048C000131518BF95EA0C0F06D04FF0000081EACF
:1048D000030E0EF0004170BD00F01CF88900013E8F
:1048E00000F007B800F009B84FEA430C5FEA5C5CDF
:1048F00008D081EA030100F05BB84FEA410C5FEA9F
:104900005C5CF6D14FF00000014970470000FF07E2
:104910000000F87F0EF1020E2EF0030E5EF8046B1D
:10492000364205D4012A43EB030515F5001F12D8C2
:10493000012841EB010C1CF5001F0CD80ED14FEAE9
:10494000D17C15F5001F0CEB4C0C0CF1020C08BFD0
:104950004CEBD37C04E04FF0080C01E04FEAD37C31
:104960000CEB4C0526FA05F606F00706B6F1040C2A
:1049700006D20EEB860CBDE870404CF0010C60478F
:10498000DFE80CF0090B02024FF000414FF000008D
:10499000A1F5002170BD19461046012851EB010414
:1049A00018BFD4F5001484BF002001F0004170BD91
:1049B0000808A0F500114FEA3101704791EA030F92
:1049C00010B581F000413FF543AE83F0004300F0A5
:1049D00009B8000010B591EA030F48BF83F0004307
:1049E0003FF536AE841A71EB030C07D212198CF026
:1049F000004C43EB0C03001B61EB0C01DFF8A4E15E
:104A00004FEA1154A4EB135C1EEA430F18BF9EEA51
:104A1000445F00F0B08023EA6E03524221EA045161
:104A2000C3EB6E0338BF5B1EDCF1200E25D322FAE8
:104A30000CFE10EB0E0043FA0CFE41EB0E01CCF124
:104A4000200E03FA0EFE10EB0E0051F10001CCF126
:104A5000200E29D412FA0EF201EB0451BDE81040E9
:104A600058BF7047401C1CBFB2F1004F7047002870
:104A70000CBF491C20F00100704712EB020E43EB03
:104A8000030218BF4FF0010E4EEA4202ACF1200CB7
:104A9000DCF11E0E54D943FA0CFE10EB0E0051F15E
:104AA000FF31CCF11E0ED5D50EF1010E12FA0EFE1D
:104AB000404141EB010101EB445C5FEA5C5C10D9D1
:104AC00010EBDE7001EB045138BFBEF1004FBDE8C2
:104AD000104018BF704700280CBF491C20F001008F
:104AE000704730D24FEAD42C11F5001124F4006441
:104AF0001BD0B1FA81F20B3AA41AA41ED2F1200302
:104B0000914030FA03F31943904001EBCC71002C33
:104B100001EB0451BDE81040A8BF704701F1C0414E
:104B20004FF0000001F000417047B0FA80F310FA36
:104B300003F100D110BDE41A173C4805C90AE4E7A7
:104B400001EB045110BD491001EB0451BDE81040C8
:104B50004FEA300002E04FF0000170474A0008BF02
:104B60000042F8D0B2F5001F28BF704701F00041A5
:104B70004FF0000070479EEA445F07D011EA5E0FD5
:104B8000BDE8104004BF002100207047BDE8104080
:104B900070B5FFF7BFFE00BF40DFF63E83F0004177
:104BA000104670470000E0FF4FF04070E1EE100A41
:104BB0007047FF2141EAD050C0057047DC4B000828
:104BC0000000002038010000E8010008FC4B00084C
:104BD000380100204008020044020008118495BA00
:104BE0000A680901020304060708090CA9100164F8
:0C4BF0001AAA01019203142823000000FF
:04000005080001AD41
:00000001FF
