:020000040800F2
:10000000D81602204D030008DD29000869170008F2
:10001000D929000875070008CB3900080000000046
:100020000000000000000000000000009502000831
:10003000E915000800000000E90200085531000839
:1000400071030008710300087103000871030008C0
:1000500071030008710300087103000871030008B0
:1000600071030008710300087103000871030008A0
:100070007103000871030008710300087103000890
:100080007103000871030008710300087103000880
:100090007907000871030008710300087103000864
:1000A0007103000871030008710300087103000860
:1000B000710300080D320008710300087103000885
:1000C0007103000871030008710300087103000840
:1000D0007103000845360008710300087103000829
:1000E0007103000871030008710300087103000820
:1000F0007103000871030008710300087103000810
:1001000071030008710300083D3200087103000804
:1001100071030008710300087103000871030008EF
:1001200071030008710300087103000871030008DF
:1001300071030008710300087103000871030008CF
:10014000D50A000871030008710300087103000854
:10015000D511000871030008710300086536000816
:10016000710300087103000871030008710300089F
:10017000710300087103000871030008000000000B
:10018000710300087103000871030008710300087F
:10019000710300087103000871030008710300086F
:1001A00000000000000000007103000800F002F8E9
:1001B00000F061F80AA090E8000C82448344AAF1A0
:1001C0000107DA4501D100F056F8AFF2090EBAE89E
:1001D0000F0013F0010F18BFFB1A43F0010318477B
:1001E000008F0000208F00000A444FF0000C10F830
:1001F000013B13F0070408BF10F8014B1D1108BFA5
:1002000010F8015B641E05D010F8016B641E01F844
:10021000016BF9D113F0080F1EBF10F8014BAD1C94
:100220000C1B09D16D1E58BF01F801CBFAD505E0B2
:1002300014F8016B01F8016B6D1EF9D59142D6D30C
:10024000704700000023002400250026103A28BF34
:1002500078C1FBD8520728BF30C148BF0B60704738
:10026000632900F0B581002070471FB508F089FEB2
:100270001FBD10B510BD00F01FFA1146FFF7F5FFC6
:1002800005F056FD00F03DFA03B4FFF7F2FF03BCA2
:1002900004F06EFC2A4B19680868B0E8F04F80F350
:1002A0000988BFF36F8F4FF0000080F3118870470B
:1002B0000000000006480068006880F3088862B605
:1002C00061B6BFF34F8FBFF36F8F00DF00BF00BF7A
:1002D00008ED00E0DFF80C00016841F470010160F6
:1002E000704700BF88ED00E0EFF30980BFF36F8F28
:1002F000134B1A681EF0100F08BF20ED108A20E97A
:10030000F04F106008B44FF0500080F31188BFF335
:100310004F8FBFF36F8F07F0BBF94FF0000080F3F2
:10032000118808BC19680868B0E8F04F1EF0100F7B
:1003300008BFB0EC108A80F30988BFF36F8F704755
:1003400024000020EFF30580704700000C4801688E
:1003500041F4700101600B4880470B480047FEE7FD
:10036000FEE7FEE7FEE7FEE7FEE7FEE7FEE7FEE765
:10037000FEE7000005480649044A064B70470000A6
:1003800088ED00E065310008AD010008D8120220B8
:10039000D8160220D8120220704700000FB404497A
:1003A00010B503AA029800F01FF910BC5DF814FB09
:1003B000440300202DE9F0410E460446002020624F
:1003C0002046E168884730B3252805D0D4E90121CB
:1003D0009047206A401CF2E7E168204600278847E2
:1003E000050018D0A5F14100192802D820354FF496
:1003F00000673246294620462760FFF731FF40B1AB
:10040000012804D0F61D26F007060836D8E7361D69
:10041000D6E72846DAE7206ABDE8F08170B50C46D9
:100420000546012A05D02878800600D5EA69002310
:1004300002E0012305E05B1C934202D2E05C00284D
:10044000F9D1A869E618C01AA861286A1844286278
:100450002846AFF3008004E0D5E9012114F8010B30
:100460009047B442F8D32846AFF3008070BD032A0A
:1004700040F2308010F0030C00F0158011F8013BC1
:10048000BCF1020F624498BF11F801CB00F8013BA8
:1004900038BF11F8013BA2F1040298BF00F801CB6C
:1004A00038BF00F8013B11F0030300F02580083A43
:1004B000C0F0088051F8043B083A51F804CBA0E89A
:1004C0000810F5E7121D5CBF51F8043B40F8043BEF
:1004D000AFF30080D20724BF11F8013B11F801CB24
:1004E00048BF11F8012B24BF00F8013B00F801CBF5
:1004F00048BF00F8012B704710B5203AC0F00B80C0
:10050000B1E81850203AA0E81850B1E81850A0E817
:100510001850BFF4F5AF5FEA027C24BFB1E8185071
:10052000A0E8185044BF18C918C0BDE810405FEAE1
:10053000827C24BF51F8043B40F8043B08BF70475D
:10054000D20728BF31F8023B48BF11F8012B28BF62
:1005500020F8023B48BF00F8012B704702F0FF0370
:1005600043EA032242EA024200F052B87047704761
:100570007047704710B500F06BF8006810BD10B5FB
:10058000044600F065F8046010BD000001694A1CD3
:1005900002610878704700B58FB0CDE901310021C4
:1005A000059105497944CDE9031011466846FFF7E6
:1005B00001FF0FB000BD0000E5FFFFFF10B543696C
:1005C00013B1AFF3008001E0FFF728FF012010BD59
:1005D000127800F124010A7000224A700122EDE72E
:1005E00011684FF0FF32E9E7074B70B50D467B44C9
:1005F000FFF7D1FF0446284600F02EF810B14FF067
:10060000FF3070BD204670BD6F5300004FF00002F8
:100610000429C0F0128010F0030C00F02380CCF10C
:10062000040CBCF1020F18BF00F8012BA8BF20F882
:10063000022BA1EB0C0100F015B85FEAC17C24BFCE
:1006400000F8012B00F8012B48BF00F8012B704780
:100650000048704778120220007B00F0800070474D
:100660004FF0000200B5134694469646203922BF4B
:10067000A0E80C50A0E80C50B1F12001BFF4F7AF96
:10068000090728BFA0E80C5048BF0CC05DF804EB78
:10069000890028BF40F8042B08BF704748BF20F8E6
:1006A000022B11F0804F18BF00F8012B704700009B
:1006B00000487047781202207546FFF7F9FFAE46F2
:1006C00005006946534620F00700854618B020B55E
:1006D000FFF750FEBDE820404FF000064FF0000746
:1006E0004FF000084FF0000B21F00701AC46ACE8DA
:1006F000C009ACE8C009ACE8C009ACE8C0098D4647
:10070000704710B50446AFF300802046BDE81040A6
:10071000FFF7BABD08B54FF4407002F09DF94FF4F1
:100720007A7005F055F805F09FFA02F0EBFE06F03E
:100730004BFC05F007FB002005231A460121009021
:1007400000F040F9002005231A460121009000F036
:1007500035FA06F027F902F053FB302002F00AFCCC
:1007600002F0BAF802F082F9642002F09DFE02F075
:100770002DFD08BD00BFFEE700B585B000216E4825
:1007800000F0BDFB10B9002005B000BD6A46002195
:10079000694800F0C3FB0098A0F201200A2825D286
:1007A000DFE800F005254565C5C5C5C585A59DF8EB
:1007B0000C009DF80B1040EA012000B25F49088050
:1007C0009DF80E109DF80D0041EA002000B25B4933
:1007D00048809DF810109DF80F0041EA002000B2FB
:1007E000564988809DF8110040B288719FE09DF8BD
:1007F0000C009DF80B1040EA012000B2504908801F
:100800009DF80E109DF80D0041EA002000B24C4901
:1008100048809DF810109DF80F0041EA002000B2BA
:10082000474988809DF8110040B288717FE09DF8AB
:100830000C009DF80B1040EA012000B241490880ED
:100840009DF80E109DF80D0041EA002000B23D49D0
:1008500048809DF810109DF80F0041EA002000B27A
:10086000384988809DF8110040B288715FE09DF89A
:100870000C009DF80B1040EA012000B232490880BC
:100880009DF80E109DF80D0041EA002000B22E499F
:1008900048809DF810109DF80F0041EA002000B23A
:1008A000294988809DF8110040B288713FE09DF889
:1008B0000C009DF80B1040EA012000B2234908808B
:1008C0009DF80E109DF80D0041EA002000B21F496E
:1008D00048809DF810109DF80F0041EA002000B2FA
:1008E0001A4988809DF8110040B288711FE09DF878
:1008F0000C009DF80B1040EA012000B2144908805A
:100900009DF80E109DF80D0041EA002000B210493C
:1009100048809DF810109DF80F0041EA002000B2B9
:100920000B4988809DF8110040B2887100BF00BF5C
:100930009DF80A0028E7000000640040D80000206D
:10094000E0000020E8000020F00000200801002066
:10095000100100202DE9F04186B007468846154673
:100960000024019700208DF80C008DF80D008DF803
:100970000E5000BF06E018F804100DF10F000155ED
:10098000601C84B2AC42F6DB01A90D4800F03EFBCE
:100990000646002401E0601C84B23146084800F09D
:1009A000C9FB18B940F6FF708442F4DB40F6FF70D3
:1009B000844203DB012006B0BDE8F0810020FAE7A5
:1009C000006400402DE9F0418AB004460D46164609
:1009D0001F46DDF840800121082002F04DF9012179
:1009E000480602F059F90121480602F065F9002194
:1009F0004FF0007002F060F90320089002208DF89B
:100A0000240000208DF8260003208DF82500012009
:100A10008DF8270008A92D4800F0E7FD09220021E4
:100A20002A4800F02AFE09220121284800F025FE6C
:100A300000208DF81A0001208DF81B0000208DF891
:100A40001C008DF81D008DF81E008DF81F008DF81C
:100A500016808DF817408DF818608DF81950ADF894
:100A6000147005A91A4800F0C0F900208DF80E0096
:100A70008DF80F0001208DF810000020ADF8040063
:100A8000ADF80600ADF80800ADF80A00ADF80C00AE
:100A900001208DF8110001A800F01AF901220221AD
:100AA0000B4800F099F914208DF8000004208DF80F
:100AB000010000208DF8020001208DF80300684637
:100AC00001F08EFF00200AB0BDE8F081000C02406A
:100AD0000064004000B585B000211A4800F00FFA0C
:100AE00010B9002005B000BD6A460021154800F08D
:100AF00015FA0098A0F20120F8B99DF80C009DF8B5
:100B00000B1040EA012000B20F4908809DF80E103A
:100B10009DF80D0041EA002000B20B4948809DF885
:100B200010109DF80F0041EA002000B206498880AD
:100B30009DF8110040B2887100BF00BF9DF80A0007
:100B4000D0E7000000680040200100202DE9F041BE
:100B500007468846154600241648076000201549B8
:100B6000087248720846857200BF06E018F8041043
:100B700010480B300155601C84B2AC42F6DB0D49C5
:100B80000D4800F043FA0646002401E0601C84B2E0
:100B90003146094800F0CEFA18B940F6FF70844299
:100BA000F4DB40F6FF70844202DB0120BDE8F081F7
:100BB0000020FBE708080220006800402DE9F04112
:100BC0008AB004460D4616461F46DDF840800121D6
:100BD000022002F051F80121880602F05DF801219F
:100BE000880602F069F800214FF0806002F064F896
:100BF0004FF44050089002208DF8240000208DF81A
:100C0000260003208DF8250001208DF8270008A973
:100C10002D4800F0EAFC09220C212B4800F02DFDA4
:100C200009220D21284800F028FD00208DF81A0027
:100C300001208DF81B0000208DF81C008DF81D0090
:100C40008DF81E008DF81F008DF816808DF8174066
:100C50008DF818608DF81950ADF8147005A91B486F
:100C600000F0C3F80E208DF80E0000208DF80F0064
:100C700001208DF810000020ADF80400ADF806004A
:100C8000ADF80800ADF80A00ADF80C0001208DF8B1
:100C9000110001A800F01CF8012202210B4800F00D
:100CA0009BF840208DF8000004208DF80100002002
:100CB0008DF8020001208DF80300684601F090FED7
:100CC00000200AB0BDE8F081000402400068004046
:100CD00010B50021837A012202FA03F13D4A12681D
:100CE00042F001023B4B1A603A4A1C3212688A43B6
:100CF000384B1C331A60027BCAB9364A0C32126870
:100D00008A43344B0C331A604288C38842EA034357
:100D1000304A4032847A42F834300288838842EA8A
:100D200003432C4A4032847A02EBC4025360027BB4
:100D3000012A19D1274A0C3212680A43254B0C3379
:100D40001A604288038842EA0343224A4032847A86
:100D500042F83430C288838842EA03431D4A403255
:100D6000847A02EBC4025360C27A3AB9194A121D5E
:100D700012688A43174B1B1D1A6006E0154A121DA4
:100D800012680A43134B1B1D1A60028932B9114ABB
:100D9000143212688A430F4B14331A600289012AF5
:100DA00006D10C4A143212680A430A4B14331A60F3
:100DB000427B012A06D1074A1C3212680A43054BBE
:100DC0001C331A60034A126822F00102014B1A60B8
:100DD00010BD0000006600401AB143690B43436137
:100DE00002E043698B434361704730B502460020FF
:100DF0000023146824F002041460146844F0010411
:100E0000146000E05B1C546804F001041CB94FF648
:100E1000FF74A342F6D1546804F001040CB9002019
:100E20006CE08C79012C04D1146844F080041460C7
:100E300003E0146824F080041460CC79012C04D100
:100E4000146844F04004146003E0146824F0400483
:100E500014600C7A012C04D1146844F0200414604E
:100E600003E0146824F0200414604C7A012C04D1AF
:100E7000146844F01004146003E0146824F01004B3
:100E800014608C7A012C04D1146844F008041460B6
:100E900003E0146824F008041460CC7A012C04D117
:100EA000146844F00404146003E0146824F004049B
:100EB00014608C78A407CD7844EA05640D7944EA7F
:100EC00005444D7944EA05540D886D1E2C43D461C8
:100ED000146824F001041460002300E05B1C5468D3
:100EE00004F001041CB14FF6FF74A342F6D154681C
:100EF00004F001040CB1002000E0012030BD0246E6
:100F0000002019B9D36803F0030006E0012903D1DA
:100F1000136903F0030000E00020704710B500F5EE
:100F2000D87303EB01131B6803F004031372137AE5
:100F300053B900F5D87303EB01131B6840F2FF743B
:100F400004EA5353136009E000F5D87303EB01136F
:100F50001B686FF0604404EAD303536000F5D87354
:100F600003EB01131B6803F00203537200F5D873FF
:100F700003EB01135B6803F00F03937200F5D87362
:100F800003EB01135B681B0AD37400F5D87303EB02
:100F900001139B68D37200F5D87303EB01139B68B0
:100FA0001C0A147300F5D87303EB01139B681C0C27
:100FB000547300F5D87303EB01139B681B0E9373F6
:100FC00000F5D87303EB0113DB68D37300F5D87316
:100FD00003EB0113DB681C0A147400F5D87303EBF0
:100FE0000113DB681C0C547400F5D87303EB011378
:100FF000DB681B0E937421B9C36843F02003C36000
:1010000003E0036943F02003036110BD10B50246FD
:101010000020936803F08063B3F1806F00D110E08B
:10102000936803F00063B3F1006F01D1012008E081
:10103000936803F08053B3F1805F01D1022000E098
:101040000420042874D002F5C07303EB00131B685E
:1010500003F0010402F5C07303EB00131C600B7A6C
:101060007BB94B7A0C8843EA445302F5C07404EB15
:1010700000142468234302F5C07404EB00142360B9
:1010800010E00B7A4C6843EAC4034C7A234302F520
:10109000C07404EB00142468234302F5C07404EB0D
:1010A000001423608B7A03F00F038B7202F5C07378
:1010B00003EB00135B6823F00F0402F5C07303EB2E
:1010C00000135C6002F5C07303EB00135B688C7A5D
:1010D000234302F5C07404EB001463608B7B1C0691
:1010E0004B7B44EA03440B7B44EA0323CC7A23433F
:1010F00002F5C07404EB0014A3608B7C1C064B7CCF
:1011000044EA03440B7C44EA0323CC7B234302F5EB
:10111000C07404EB0014E36002F5C07303EB00132A
:101120001B6843F0010402F5C07303EB00131C605D
:1011300010BD000010B50246002321B1012907D0DF
:1011400002290FD109E090681D4C00EA04030BE06E
:1011500090681C4C00EA040306E090681A4C00EA10
:10116000040301E0002300BF00BF184C181BA3427A
:1011700016D007DC83B16FF08060184470B102288C
:1011800018D111E0B0F5007F10D0114C204448B1C7
:10119000B0F5003F0ED10BE002230DE000230BE081
:1011A000002309E0002307E0012305E0012303E019
:1011B000012301E0002300BF00BFD8B210BD000032
:1011C00003000004000300080000031000010008F1
:1011D0000001FFF710B54B494B4800F089F9002892
:1011E0007ED04A49484800F097F84649464800F002
:1011F000ADF8474800784649497840EA0120C0F3F5
:101200000A004449086042484078C0104049897843
:1012100040EA4110C0F30A003E4948603C488078EB
:1012200080113B49C97840EA81003949097940EA8F
:101230008120C0F30A0037498860354800794010A2
:101240003349497940EAC110C0F30A003149C86006
:101250002F484079C0F3011008752D4840790011DE
:10126000800848752A4880792949C97940EA0120CF
:1012700000B22849C8822648007A2549497A40EABE
:10128000012001B2234801832148807A2049C97A8C
:1012900040EA012001B21F4841831D48017B1D48DF
:1012A00001771B48417B1B4841771948807B1849CF
:1012B000C97B40EA01201749C8831548007C1449BE
:1012C000497C40EA01201349086108460068A0F5FE
:1012D0008060086008464068A0F58060486000E0D3
:1012E0000EE008468068A0F5806088600846C06807
:1012F000A0F58060C86008460069A0F580600861BC
:1013000010BD000000880020886402400008002012
:101310003C120220551202200246094B9A4201D289
:10132000084801E00648103801F000531BB1064B95
:101330000B40C36002E0044B0B4083607047000029
:1013400010640240006002407D0F7D0F0246094B91
:101350009A4201D2084801E00648103801F00053D3
:101360001BB1064B0B40C36002E0044B0B40836093
:101370007047000010640240006002407D0F7D0F46
:1013800021B1026842F00102026003E0026822F02B
:101390000102026070470000016821F00101016054
:1013A0000021016041608160C160016121214161D2
:1013B0004A49884204D13D21484A103A91608CE064
:1013C00046491831884205D14FF47461434A103AB6
:1013D000916082E041493031884205D14FF4741167
:1013E0003E4A103A916078E03C494831884205D144
:1013F0004FF07461394A103A91606EE037496031BC
:10140000884204D13649354A103AD16065E0334903
:101410007831884204D13349304A103AD1605CE0D7
:101420002E499031884204D12F492C4A103AD1607C
:1014300053E02A49A831884205D14FF03D51274A4F
:10144000103AD16049E02949884204D13D21274A18
:10145000083A116041E025491831884205D14FF41E
:101460007461224A083A116037E0204930318842DD
:1014700005D14FF474111D4A083A11602DE01B4943
:101480004831884205D14FF07461184A083A11601A
:1014900023E016496031884204D11149134A121FD2
:1014A00011601AE011497831884204D10D490F4A80
:1014B000121F116011E00D499031884204D10A4990
:1014C0000A4A121F116008E00849A831884204D175
:1014D0004FF03D51054A121F1160704710600240E5
:1014E0003D000020400F002000003D20106402401D
:1014F00070B50246002000240025124EB24201D2EF
:10150000114B01E00F4B103B104E0E4036B11E2622
:1015100006EAD124166806EA040502E0566906F0D8
:10152000800501F000560EB15C6800E01C68084EB2
:10153000344004EA010616B10DB1012000E000209C
:1015400070BD000010640240006002403C0F3C0F80
:101550007D0F7D0F10B501F080034BB122B14369BF
:1015600043F08003436103E0436923F08003436158
:1015700080290BD02AB1036801F01E0423430360C5
:1015800004E0036801F01E04A343036010BD0000E3
:1015900010B500220268134B1A40CC680B68234335
:1015A0004C6923438C692343CC6923430C6A23434E
:1015B0004C6A23438C6A23434C6B23438C6B234339
:1015C0001A430260426922F00702D1E90B34234337
:1015D0001A4342610B6943604B6883608B68C36048
:1015E00010BD00003F801CF07047F0B50A46002196
:1015F0000023002400BF3DE0012505FA01F3156832
:1016000005EA03049C4234D105684F000326BE401E
:10161000B543056015794E00B54006683543056051
:101620001579012D02D01579022D16D185684F004C
:101630000326BE40B543856055794E00B5408668A7
:1016400035438560456801268E40B5434560456851
:1016500096798E40B6B235434560C5684F00032683
:10166000BE40B543C560D5794E00B540C668354328
:10167000C560491C1029BFD3F0BDF0B5002300247C
:101680004D07ED0E02FA05F3CE1000F1200555F8D6
:1016900026504E07F70E0F26BE40B543CF1000F17F
:1016A000200646F82750CE1000F1200555F82650A8
:1016B00045EA0304CE1000F1200545F82640F0BDB0
:1016C0000183704710B51E4890ED030A1D4880ED58
:1016D000040A1B4890ED040AB1EE400A194880ED57
:1016E000050A174890ED050A164880ED060A1648C7
:1016F00090ED000A154880ED000A154890ED000AAB
:10170000114880ED000A90ED000A124880ED000AB1
:101710000F4890ED010A104880ED000A0C4890ED4A
:10172000020A0E4880ED000A0A4991ED000ABCEE5B
:10173000C00A10EE101AC8B201F0C2FF10BD0000BE
:101740001C080220A408022074020020800200204D
:1017500050080220D0010020D4010020D801002030
:101760004FF08040406A704700BFFEE700B52DEDA6
:10177000108B93B0FE4890ED000AD0ED000A20EEE9
:10178000200A8DED080A90ED000AFA48D0ED000A13
:1017900020EE200AB0EE40FAF54890ED000AF64837
:1017A000D0ED000A20EE200AF0EE40AAF04890EDBD
:1017B000000AF248D0ED000A20EE200A8DED070A5B
:1017C000EC4890ED000AD0ED000A20EE200AF0EE81
:1017D00040FA90ED000AE848D0ED000A20EE200A19
:1017E0008DED060AE34890ED000AE448D0ED000ACA
:1017F00020EE200AB0EE40BADF4890ED000AD0EDAE
:10180000000A20EE200AF0EE40BA90ED000ADB4814
:10181000D0ED000A20EE200A8DED050A90ED000AB9
:10182000D0ED000A20EE200A8DED040AD44890ED98
:10183000030ADFEDD40A20EE200ADFEDD30A80EEA2
:10184000201AD24880ED001ACD4890ED040ADFED51
:10185000CD0A20EE200ADFEDCC0A80EE201ACC481B
:1018600080ED001AC64890ED050ADFEDC60A20EEAD
:10187000200ADFEDC50A80EE201AC64880ED001A66
:10188000BF4890ED000AC44880ED000ABC4890EDC6
:10189000010AC24880ED000AB94890ED020AC0482A
:1018A00080ED000AB64890ED060ABE4880ED000AB9
:1018B000B34890ED070ABC4880ED000AB04890EDAF
:1018C000080ABA4880ED000AFFF74AFFB8490860E5
:1018D00008460068B749096888420CD3B4480068D4
:1018E000B4490968401A00EE100AB8EE400ADFED6C
:1018F000B20AC0EE208AAE480068AE490860A64829
:10190000D0ED000A90ED001A60EE810AA34890ED38
:10191000001AD0ED001A41EE210AA14890ED001AFC
:10192000D0ED001A41EE210AB0EE600A04F07EF913
:10193000B0EE408A984890ED000A20EE080A80ED4B
:10194000000A964890ED000A20EE080A80ED000A91
:10195000934890ED000A20EE080A80ED000A9148B5
:10196000D0ED000A90ED001A60EE810A8E4890EDED
:10197000001AD0ED001A41EE210A8C4890ED001AB1
:10198000D0ED001A41EE210AB0EE600A04F04EF9E3
:10199000B0EE408A834890ED000A20EE080A80ED00
:1019A000000A814890ED000A20EE080A80ED000A46
:1019B0007E4890ED000A20EE080A80ED000A794882
:1019C00090ED000AF0EE000A60EE200AB6EE000A82
:1019D00030EE6B1A9DED040A31EE400A20EE800ACB
:1019E0007148D0ED000AB0EE001A60EE811ADDED0C
:1019F000060A9DED071A70EEC10A01EEA00A6B48B7
:101A0000D0ED000AB0EE001A60EE810A3BEE2A1A11
:101A100000EE810A8DED110A624890ED000AF0EEA9
:101A2000000A20EE201A9DED060ADDED070A30EED1
:101A3000200A21EE000A5C48D0ED000AB0EE001A40
:101A400020EE811AF6EE000A70EEEF1ADDED040AC0
:101A500071EEE00A01EE200A5448D0ED000AB0EE23
:101A6000001A20EE811ADDED050A70EECF0A01EEB4
:101A7000200A8DED100A4B4890ED000AF0EE000AA6
:101A800020EE200A7BEE6A0A60EE200A464890EDBE
:101A9000000AB0EE001A20EE011A9DED050A70EE64
:101AA0000F1AB0EE600A01EE210A4048D0ED000A9C
:101AB000B0EE001A60EE810AB6EE001A31EE6F1A2F
:101AC00031EE6B1AB0EE409A00EE819A9DED110A4C
:101AD00060EE000A9DED100A40EE000A10EE901A2A
:101AE000084607F0A7F9CDE900019DED000B02F0D3
:101AF00073FE8DED020B9DED020B51EC100B06F009
:101B000061FC09EE900AB0EE49AA3BEE6A0AF0EEDB
:101B1000000A20EE200A8DED0F0A9DED050A3FEE2A
:101B2000000AF0EE000A20EE200A8DED0E0A9DED6F
:101B3000080A30EE6F0A70EE6B0A9DED040A30EE73
:101B4000800A8DED0D0AB0EE000A69EE800AB6EE4D
:101B5000000A30EE6B1A9DED040A31EE400A20EEC9
:101B6000800AB0EE4A9AF0EE000A69EE200A25E0FB
:101B7000380200203C0200204002002044020020E5
:101B80001C080220DB0F49400000344348020020BB
:101B90004C02002050020020540200205802002075
:101BA0005C02002060020020640200206802002025
:101BB000700200206C0200200024F4493BEE6A1AF7
:101BC00000EE810A8DED0C0AB0EE000A29EE801AB3
:101BD0009DED060ADDED070A30EE600A21EE000AEF
:101BE000B0EE4A9AF0EE000A29EE201ADDED050A61
:101BF0007FEE200A01EE200A8DED0B0AB0EE000AFE
:101C000029EE800A7AEE8B0A20EE200AB0EE4A9A7C
:101C1000F0EE000A69EE200AB6EE001A31EE6F1AF5
:101C200031EE6B1A00EE810A8DED0A0AAF48D0ED55
:101C3000000A9DED0D0A60EE800AAD4890ED001A95
:101C40009DED0E0A41EE400AAA4890ED001A9DED66
:101C50000A0A21EE001AA848D0ED001A9DED0B0AE1
:101C600001EEC01A30EE81CAA148D0ED000A9DED08
:101C70000F0A60EE800AA14890ED001A9DED0D0A52
:101C800041EE400A9C4890ED001A9DED0C0A21EEB1
:101C9000001A9B48D0ED001A9DED0A0A01EEC01A09
:101CA00070EE81CA9548D0ED000A9DED0E0A60EEF7
:101CB000800A8E4890ED001A9DED0F0A41EE400A11
:101CC0008F4890ED001A9DED0B0A21EE001A89480D
:101CD000D0ED001A9DED0C0A01EEC01A30EE81DA4B
:101CE000B5EEC0CAF1EE10FA57D0F5EEC0CAF1EE6B
:101CF00010FA52D0B5EEC0DAF1EE10FA4DD09FEDE9
:101D0000810A6CEE000A804890ED000A00EEA80AF5
:101D100080ED000A9FED7B0A6CEE800A7B4890ED17
:101D2000000A00EEA80A80ED000A9FED760A6DEE2B
:101D3000000A774890ED000A00EEA80A80ED000A3C
:101D4000744890ED000AF0EE000A00EE8C0A6E482E
:101D5000D0ED000A30EE200A6E4880ED000A6E4891
:101D600090ED000AF0EE000A00EEAC0A6748D0EDF4
:101D7000000A30EE200A684880ED000A674890EDBE
:101D8000000AF0EE000A00EE8D0A6148D0ED000A6C
:101D900030EE200A614880ED000A614890ED000AAB
:101DA000B1EE400A5B48D0ED000A20EE200A5D4803
:101DB000D0ED000A584890ED001A00EEC10A5A48CA
:101DC00090ED001A5548D0ED001AF0EE400A41EEB1
:101DD000610A564890ED000A00EEA80A8DED090A46
:101DE00090ED000A4B48D0ED000A20EE200A4D4845
:101DF000D0ED000A494890ED001A00EE810A4A48E9
:101E0000D0ED000A444890ED001A00EEC10A4448A3
:101E1000D0ED000AF0EE60DA40EE28DA434890EDAB
:101E2000000A3D48D0ED000A20EE200A3C48D0EDE3
:101E3000000A3A4890ED001A00EEC10A3A48D0ED87
:101E4000000A344890ED001A00EE810A3548D0EDC2
:101E5000000AB0EE60EA00EE28EA344890ED000A8D
:101E60002E48D0ED000A20EE200A2D48D0ED000AC1
:101E7000294890ED001A00EE810A2A48D0ED000AA8
:101E8000244890ED001A00EEC10A2748D0ED000A60
:101E9000F0EE60EA40EE28EADDED090A60EEA00A05
:101EA0004DEEAD0A4EEE0E0A4EEEAE0AB0EE600AF0
:101EB00003F0BCFEB0EE408A9DED090A20EE080A50
:101EC0001A4880ED000A2DEE880A154880ED000AB8
:101ED0002EEE080A134880ED000A2EEE880A1248FA
:101EE00080ED000A13B0BDEC108B00BD580200203D
:101EF0005C020020640200206802002054020020DE
:101F0000600200200AD7233C2C020020300200206F
:101F100034020020480200204C0200205002002021
:101F20003C02002040020020440200203802002031
:101F300010B504460C4800F021F8FFF717FC0B48D9
:101F400090ED000A84ED000A094890ED000A84ED46
:101F5000010A084890ED000A84ED020A064890ED57
:101F6000000A84ED030A10BD1C080220380200207C
:101F70003C02002040020020440200202DE9FF47DF
:101F80000646002400250020FB490860BB2000F025
:101F9000C5FF3B2000F0ECFC8DF800003C2000F079
:101FA000E7FC8DF801009DF801009DF8001040EA63
:101FB000012000B2F14908803D2000F0D9FC8DF8E5
:101FC00002003E2000F0D4FC8DF803009DF80300D1
:101FD0009DF8021040EA012000B2E84948803F2005
:101FE00000F0C6FC8DF80400402000F0C1FC8DF824
:101FF00005009DF805009DF8041040EA012000B29C
:10200000DE498880412000F0B3FC8DF806004220B4
:1020100000F0AEFC8DF807009DF807009DF8061053
:1020200040EA012000B2D549C880432000F0A0FC5E
:102030008DF80800442000F09BFC8DF809009DF805
:102040000900CF490989401A9DF8081040EA01208B
:1020500000B2CA490881452000F08AFC8DF80A00C8
:10206000462000F085FC8DF80B009DF80B00C4495C
:102070004989401A9DF80A1040EA012000B2BF4980
:102080004881472000F074FC8DF80C00482000F0D7
:102090006FFC8DF80D009DF80D00B9498989401A33
:1020A0009DF80C1040EA012000B2B449888101205B
:1020B000B449C1F89802012434E0B34850F8241020
:1020C000601EB14A42F8201002F5CA7050F8242070
:1020D000601EAE4941F8202001F5CA7050F8242056
:1020E000601E01F5CA7141F8202001F5CA7050F850
:1020F0002420601E01F5CA7141F8202001F5CA7044
:1021000050F82420601E01F5CA7141F8202001F525
:10211000CA7050F82420601E01F5CA7141F82020D1
:10212000601CC4B2642CC8DB9448B0F90000964926
:10213000C1F88C019148B0F902109348C0F82013FF
:102140008E48B0F904109048C0F8B4148B48B0F928
:1021500008108D48C0F848168848B0F90A108A4817
:10216000C0F8DC178548B0F90C108748C0F8701922
:10217000002405E0844850F824000544601CC4B2E3
:10218000642CF7DB642095FBF0F07F49C1F89001E7
:102190000025002405E07D4850F824000544601C1B
:1021A000C4B2642CF7DB642095FBF0F17648C0F8EC
:1021B00024130025002405E0754850F82400054448
:1021C000601CC4B2642CF7DB642095FBF0F16E4810
:1021D000C0F8B8140025002405E06E4850F824002B
:1021E0000544601CC4B2642CF7DB642095FBF0F15D
:1021F0006548C0F84C160025002405E0664850F8F4
:1022000024000544601CC4B2642CF7DB642095FBF9
:10221000F0F15D48C0F8E0170025002405E05F48B4
:1022200050F824000544601CC4B2642CF7DB642021
:1022300095FBF0F15448C0F87419002590ED640A3C
:10224000B8EEC00A564880ED000A4F4890EDC90A22
:10225000B8EEC00A524880ED010A4D4890ED640A7C
:10226000B8EEC00A4E4880ED020A4A4890ED640A72
:10227000B8EEC00A4A4880ED040A474890ED640A67
:10228000B8EEC00A464880ED050A444890ED640A5D
:10229000B8EEC00A424880ED060A00272EE040480A
:1022A000D0ED040A3F4830F9170000EE100AB8EEEE
:1022B000C00AF4EE400AF1EE10FA05D1394830F8C0
:1022C0001700394908801BE0354890ED040AF1EE0B
:1022D000400A344830F9170000EE100AB8EEC00A80
:1022E000F4EE400AF1EE10FA07D12E4830F817004C
:1022F000404200B22C49088002E07F1C322FCEDB26
:1023000000BF4FF000082FE02548D0ED050A254812
:1023100030F9180000EE100AB8EEC00AF4EE400AD8
:10232000F1EE10FA05D11F4830F818001F49088057
:102330001DE01B4890ED050AF1EE400A194830F9FE
:10234000180000EE100AB8EEC00AF4EE400AF1EEF2
:1023500010FA07D1134830F81800404200B2134970
:10236000088004E008F10108B8F1190FCCDB00BFC8
:102370004FF000094CE00000988242425C080220C5
:102380007008022000804242C4080220580A02203D
:10239000EC0B0220800D0220140F0220A810022056
:1023A000840802209C0200208E020020900200205F
:1023B000A648D0ED060AA64830F9190000EE100A2A
:1023C000B8EEC00AF4EE400AF1EE10FA05D1A048CA
:1023D00030F819009F4908801DE09C4890ED060ADE
:1023E000F1EE400A9A4830F9190000EE100AB8EEF2
:1023F000C00AF4EE400AF1EE10FA07D1944830F822
:102400001900404200B29349088004E009F1010933
:10241000B9F1170FCCDB00BF8F4890ED000A80EDBB
:10242000000A8E4890ED000ADFED8D0A30EE200A9A
:1024300080ED000A90ED000ADFED8A0A30EE200AF6
:10244000D0ED000A80EE801A874880ED001A7F48A0
:1024500090ED000A854880ED000A90ED000A7E4864
:10246000D0ED000A70EE600A90ED000A7E4890ED13
:10247000001A01EE200A784880ED000A7A4890EDB3
:10248000000AF7EE000A30EEC00A7448D0ED000AE8
:1024900020EE200A80ED000A754890ED000A80EDDC
:1024A000000A744890ED000ADFED6D0A30EE200A54
:1024B00080ED000A90ED000ADFED6A0A30EE200A96
:1024C000D0ED000A80EE801A6B4880ED001A5F485C
:1024D00090ED010A694880ED000A90ED000A644819
:1024E000D0ED000A70EE600A90ED000A624890EDAF
:1024F000001A01EE200A5E4880ED000A5E4890ED69
:10250000000AF7EE000A30EEC00A5A48D0ED000A81
:1025100020EE200A80ED000A594890ED000A80ED77
:10252000000A584890ED000ADFED4D0A30EE200A0F
:1025300080ED000A90ED000ADFED4A0A30EE200A35
:10254000D0ED000A80EE801A4F4880ED001A3F4817
:1025500090ED020A4D4880ED000A90ED000A4848CF
:10256000D0ED000A70EE600A90ED000A464890ED4A
:10257000001A01EE200A424880ED000A424890ED20
:10258000000AF7EE000A30EEC00A3E48D0ED000A1D
:1025900020EE200A80ED000A2F4890ED000A86ED1B
:1025A000000A334890ED000A86ED010A344890EDA8
:1025B000000A86ED020A2548D0ED040A3448B0F935
:1025C000000000EE100AB8EEC00A30EEC00A1F4844
:1025D00080ED040A90ED040ADFED2E0A80EE201A49
:1025E00080ED041A86ED031AD0ED050A2A48B0F9E9
:1025F000000000EE100AB8EEC00A30EEC00A134820
:1026000080ED050A90ED050ADFED220A80EE201A22
:1026100080ED051A86ED041AD0ED060A0D48B0F9D2
:10262000000000EE100AB8EEC00A30EEC00A0748FB
:1026300080ED060A90ED060ADFED160A80EE201AFC
:1026400080ED061A86ED051ABDE8FF878408022092
:102650009C02002092020020EC010020FC010020DE
:10266000BC74933C83C00A3F00020020F4010020A8
:10267000240200200C02002010020020040200208E
:10268000280200201C02002020020020140200204A
:102690008E020020333303429002002010B52DED4E
:1026A0000C8B04468748FFF743FC864890ED020AEE
:1026B000F8EE000A20EE200AD0ED020A20EE200AF1
:1026C000D0ED030AB0EE001A60EE810A90ED031A15
:1026D00000EEC10AF7EE000A30EE200A10EE101AE2
:1026E000084606F0A7FB41EC1C0B764890ED010A6A
:1026F000F0EE000A20EE200AD0ED020A20EE200AB9
:10270000D0ED000AB0EE001A60EE810A90ED031AD7
:1027100000EE810A10EE101A084606F08BFB41EC21
:102720001D0BB0EE4C1AF0EE6C1AB0EE4D0AF0EE46
:102730006D0A01F09DFCB0EE40BAF0EE60BA51ECCB
:102740001B0B05F033FE41EC1A0B9FED5F0B53ECB6
:10275000102B06F0AFF841EC190B9FED5D0B53EC1D
:10276000102B05F009FF41EC180B05F02BFE00EED5
:10277000100A84ED000A534890ED010AF8EE000AB1
:1027800020EE200AD0ED030A20EE200AD0ED000A48
:10279000B0EE001A60EE810A90ED021A00EE810A96
:1027A00010EE101A084606F045FB41EC1C0BB0EE8B
:1027B0004C0AF0EE6C0A01F03FF9B0EE40BAF0EED0
:1027C00060BA51EC1B0B05F0F1FD41EC1A0B9FEDCB
:1027D0003E0B53EC102B06F06DF841EC190B9FEDFE
:1027E0003C0B53EC102B05F0C7FE41EC180B05F029
:1027F000E9FD00EE100A84ED010A324890ED010A6D
:10280000F8EE000A20EE200AD0ED010A20EE200AA0
:10281000D0ED020AB0EE001A60EE810A90ED021AC5
:1028200000EEC10AF7EE000A30EE200A10EE101A90
:10283000084606F0FFFA41EC1B0B224890ED020A15
:10284000F0EE000A20EE200AD0ED030A20EE200A66
:10285000D0ED000AB0EE001A60EE810A90ED011A88
:1028600000EE810A10EE101A084606F0E3FA41EC79
:102870001C0BB0EE4B1AF0EE6B1AB0EE4C0AF0EEF9
:102880006C0A01F0F5FBB0EE40AAF0EE60AA9FEDF5
:102890000E0B53EC102B51EC1A0B06F00BF841EC1D
:1028A000190B9FED0B0B53EC102B05F065FE41EC63
:1028B000180B05F087FD00EE100A84ED020ABDEC4E
:1028C0000C8B10BD40080220000000000080664014
:1028D00000000060FB21094010B586B000241422DE
:1028E000104901A8FDF708FE642002F0A7FF75203B
:1028F00000F01CF80C49087000BF0DE001AA02EBC3
:102900004402517801AA12F8140000F045F80120A1
:1029100002F094FF601CC4B20A2CEFDB002006B06A
:1029200010BD0000B88F00088C02002010B50446CE
:1029300000200B49086044F080000A4908700846EE
:10294000007800F0EBFA44F0800000F0E7FA064966
:10295000087001200549C1F898020348007810BDAD
:10296000988242423E0300203D0300200080424204
:1029700010B5044644F08000054908700846007808
:1029800000F0CCFA034908700846007810BD00003A
:10299000400300203F03002070B505460C46002090
:1029A0000A49086005F07F00094908700846007868
:1029B00000F0B4FA06480470007800F0AFFA012085
:1029C0000449C1F89802002070BD0000988242427C
:1029D0003C0300200080424200BFFEE77047000039
:1029E00070B5002100230F22C4781CB3174C246853
:1029F00004F4E064C4F5E064C4F30721C1F1040405
:102A0000E3B20A4144789C40E1B284781440214307
:102A10000C07210E0E4C05786155047804F01F0553
:102A20000124AC4005786D11AD0005F1E025C5F835
:102A3000004109E0047804F01F050124AC40054D75
:102A40000678761145F8264070BD00000CED00E0D8
:102A500000E400E080E100E002490143024A116025
:102A6000704700000000FA050CED00E000B58BB0E7
:102A70000121084600F000F90121102000F0FCF8C7
:102A80000121084600F028F9012208217448FEF7C8
:102A9000F4FD01220E217348FEF7EFFD4FF4807024
:102AA000099002208DF8280000208DF829008DF86B
:102AB0002A008DF82B0009A96948FEF796FD4FF40E
:102AC0008040099009A96748FEF78FFD012108465B
:102AD00000F012F90021012000F00EF944F61F6009
:102AE0000790B320ADF818000020ADF81A00ADF83B
:102AF000200006A95C4800F095FC6020ADF80400B9
:102B00000120ADF806000020ADF81000ADF8080077
:102B10000820ADF812004001ADF814000020ADF817
:102B200016004FF47A70039001A94F4800F0E4FBBF
:102B300001A94D4800F028FC08214B4800F01AFC80
:102B40000821494800F05CFC0121474800F08CFB5B
:102B50000121454800F0A6FB0121434800F096FB07
:102B600003F020FF0121202000F086F84FF4806060
:102B7000099000208DF828008DF82A0003208DF898
:102B8000290001208DF82B0009A93848FEF72DFDFA
:102B90004FF480613548FEF793FD0121080200F0F3
:102BA0006BF80121022000F097F80322052130483C
:102BB000FEF763FD2020099002208DF828000020F8
:102BC0008DF829008DF82A008DF82B0009A92848D6
:102BD000FEF70BFD0121022000F08EF800210220FB
:102BE00000F08AF844F61F600790B320ADF8180093
:102BF0000020ADF81A00ADF8200006A91D4800F02D
:102C000011FC6020ADF804000120ADF806000020A2
:102C1000ADF81000ADF808000820ADF81200400132
:102C2000ADF814000020ADF816004FF47A70039050
:102C300001A9104800F060FB08210E4800F09AFB43
:102C400001210C4800F010FB01210A4800F02AFB8A
:102C50000121084800F01AFB03F09AFE0BB000BDFA
:102C60000000024000100240000001400014024039
:102C7000002002400004014029B1064A12680243C4
:102C8000044B1A6004E0034A12688243014B1A6045
:102C9000704700003038024029B1064A12680243EA
:102CA000044B1A6004E0034A12688243014B1A6025
:102CB000704700004038024029B1064A12680243BA
:102CC000044B1A6004E0034A12688243014B1A6005
:102CD000704700002038024029B1064A12680243BA
:102CE000044B1A6004E0034A12688243014B1A60E5
:102CF000704700004438024029B1064A1268024376
:102D0000044B1A6004E0034A12688243014B1A60C4
:102D10007047000024380240F0B500210022002452
:102D2000022500260223324F3F6807F00C0121B133
:102D3000042905D0082937D105E02E4F076036E079
:102D40002D4F076033E02A4F3F1F3F68C7F380567F
:102D5000274F3F1F3F6807F03F036EB1264FB7FB79
:102D6000F3F7DFF88CC0ACF1040CDCF800C0CCF356
:102D7000881C07FB0CF40CE01E4FB7FBF3F7DFF8E1
:102D800070C0ACF1040CDCF800C0CCF3881C07FB6D
:102D90000CF4174F3F1F3F68C7F301477F1C7D00AE
:102DA000B4FBF5F7076002E0124F076000BF00BFF9
:102DB0000F4F3F6807F0F0010909104F7A5C076870
:102DC000D74047600A4F3F6807F4E051890A0B4F2C
:102DD0007A5C4768D7408760054F3F6807F46041D9
:102DE000490B064F7A5C4768D740C760F0BD0000CA
:102DF000083802400024F400001BB7001400002033
:102E000000B587B001212020FFF736FF0121022005
:102E1000FFF732FF01210805FFF75EFF4FF46070F6
:102E2000059002208DF8180000208DF81A0003206C
:102E30008DF8190000208DF81B0005A93448FEF715
:102E4000D4FB4FF48070059002208DF8180000200C
:102E50008DF81A0003208DF8190000208DF81B0052
:102E600005A92C48FEF7C1FB4020059001208DF8F4
:102E7000180000208DF81A0003208DF8190000209A
:102E80008DF81B0005A92248FEF7AFFB052207219C
:102E90001F48FEF7F2FB052206211D48FEF7EDFB59
:102EA000052209211A48FEF7E8FB052208211848E7
:102EB000FEF7E3FB01210805FFF71EFF00214FF499
:102EC0008010FFF719FF0020ADF800004FF482706A
:102ED000ADF802000020ADF80400ADF80600ADF832
:102EE00008004FF40070ADF80A003020ADF80C0077
:102EF0000020ADF80E000A20ADF810006946064823
:102F000000F066F80121044800F048F807B000BD61
:102F100000140240000402400050014070B5054614
:102F20000126002422E0012E0FD10221104800F0DA
:102F300041F850B1002401E0601CC4B2C82CFBDB96
:102F400029460B4800F042F800267EB901210848C6
:102F500000F030F850B1002401E0601CC4B2C82C6D
:102F6000FBDB034800F02FF8C0B270BDDBE70000C8
:102F70000050014010B50446074800884FF6C7715D
:102F80000840054908800846008820430880012140
:102F9000014800F003F810BD0050014021B1028843
:102FA00042F04002028004E002884FF6BF731A40EC
:102FB000028070470246002013890B400BB10120AC
:102FC00000E0002070470146888970478181704782
:102FD00010B50022028802F441520B884C8823432A
:102FE0008C882343CC8823430C8923434C89234377
:102FF0008C892343CC8923431A430280838B4FF26D
:10300000FF74234083830B8A038210BD0CB500201C
:10301000019000904148006840F480303F490860CA
:1030200000BF3E48006800F4003000900198401C4A
:103030000190009818B90198B0F5A04FF1D1374828
:10304000006800F4003010B10120009001E0002081
:1030500000900098012860D130484030006840F06E
:1030600080502E49403108602D48006840F44040AF
:103070002B49086029480830006828490831086051
:103080000846006840F4004008600846006840F4C4
:10309000A05008602348091F0860081F006840F01E
:1030A0008070091F086000BF1C48006800F00070B5
:1030B0000028F9D01A48006840F4803018490860A8
:1030C00000BF1748406800F480300028F9D0144849
:1030D000006840F400301249086000BF10484068A2
:1030E00000F400300028F9D040F205700E49086065
:1030F0000A480830006820F00300084908310860D9
:103100000846006840F00200086000BF034808302D
:10311000006800F00C000828F8D10CBD003802400F
:1031200000700040062D4008003C0240042808D1F1
:103130004FF0E021096941F004014FF0E0221161F4
:1031400007E04FF0E021096921F004014FF0E0228F
:103150001161704710B504F0D1FE012801D004F0D0
:103160007BFB10BD10B51548006840F47000134992
:1031700008601348006840F0010011490860002011
:103180000F49083108600E4800680E4908400C4994
:1031900008600D48091D0860081F006820F48020A1
:1031A000091F0860002006490C310860FFF72EFF58
:1031B0004FF0006001498039086010BD88ED00E0E3
:1031C00000380240FFFFF6FE103000240EB56946BD
:1031D0004FF0804000F026F901210846FFF75CFD22
:1031E0005420ADF800000020ADF8020042F210704B
:1031F00001900020ADF808000121880700F046F892
:1032000069464FF0804000F00DF90EBD10B5012168
:10321000084800F056F860B10121064800F030F887
:10322000054802684068521C40F1000002490A60EB
:10323000486010BD000400405003002010B501217B
:10324000074800F03EF8012804D10648FFF726FAA7
:10325000FEF738FA0121024800F015F810BD000011
:10326000000C00405008022021B1028842F0800288
:10327000028004E002884FF67F731A400280704794
:10328000CA4302827047CA430282704721B1028852
:1032900042F00102028004E002884FF6FE731A40F9
:1032A0000280704731B1B0F8442042F40042A0F8E7
:1032B000442005E0B0F84420C2F30E02A0F84420F8
:1032C000704730B50246002000230024158A05EA25
:1032D0000103958905EA010413B10CB1012000E056
:1032E000002030BD1AB183890B43838102E08389BA
:1032F0008B4383817047000070B5002400220023B7
:10330000058C4FF6FE7635400584028C8388048B4D
:103310004FF68F752C40B51E2C400D882C43751E22
:103320002A408D892A434D882A43104DA84202D055
:103330000F4DA84213D14FF6F7752A40CD892A4385
:103340004FF6FB752A408D882A434FF6FF652B40C8
:103350004FF6FF552B400D8A2B434D8A2B4383801C
:1033600004838D684563028470BD00000000014045
:10337000000401400A460021018B4FF6F773194003
:10338000114301837047000070B500220023002420
:10339000058C4EF6FF7635400584038C8488828B3D
:1033A00048F6FF752A404FF6FF452A400D884FF634
:1033B000FF7606EA05252A434DF6FF752B408D89D9
:1033C00006EA05352B434D8806EA05352B430A4DA1
:1033D000A84202D0094DA84208D14BF6FF752C40F7
:1033E0000D8A4FF6FF7606EA85152C43848082838A
:1033F0008D680564038470BD000001400004014035
:103400000A460021818B4FF2FF7319404FF6FF737C
:1034100003EA0223194381837047416370470164C3
:103420007047000000220288184B98420ED0184BBB
:1034300098420BD0B0F1804F08D0164B984205D07F
:10344000154B984202D0154B984204D14FF68F731A
:103450001A404B881A43124B984207D0114B98429E
:1034600004D04FF6FF431A400B891A4302804B6881
:10347000C3620B880385054B984202D0044B9842E7
:1034800001D18B7A038601238382704700000140BB
:10349000000401400004004000080040000C00400F
:1034A00000100040001400401FB504460121082010
:1034B000FFF7F2FB029440F25130ADF80400002017
:1034C000ADF80600ADF80C0001A90D48FFF7AAFF02
:1034D000012211460A48FFF705FF01210848FFF7BE
:1034E000D5FE32208DF8000003208DF801008DF804
:1034F000020001208DF803006846FFF771FA1FBD36
:10350000000C004000B597B001214848FFF7B4FB1C
:1035100001211020FFF7E0FB072211464448FEF787
:10352000ACF88020119002208DF8480000208DF822
:103530004A0003208DF8490000208DF84B0011A9A6
:103540003B48FEF752F83B4800F0F8F83A48139031
:103550000020ADF85000ADF852004FF48060ADF897
:1035600054000420ADF856000020ADF8580013A90F
:10357000304800F0B7F9002240F225512D4800F004
:103580008CF901212B4800F0C3F801224021294881
:1035900000F0CAF844208DF8400001208DF8410069
:1035A00000208DF8420001208DF8430010A8FFF79D
:1035B00017FA00212148FDF7E3FE00BF1F4800680D
:1035C00000F001000028F9D11C48FDF7E5FE4FF09E
:1035D000006001901748001D0290194803900020D8
:1035E000049012200590002006904FF48060079010
:1035F0000020089009904FF480700A904FF44030FA
:103600000B9000200C900D900E900F9001A90B488C
:10361000FDF7BEFF012210210848FDF79BFF0121A5
:103620000648FDF7ADFE17B000BD000002004000E7
:103630000004024000100140A0860100886402409E
:103640003C12022010B540F22551054800F0FBF86D
:1036500020B140F22551024800F04BF810BD0000A7
:103660000010014010B540F225510C4800F0EBF875
:1036700001280CD140F22551084800F03AF80748DB
:1036800000F09AF9C4B2214605A0FCF787FE40F28B
:103690002551024800F02DF810BD00000014014033
:1036A000B4AEBFDA363ACAD5B5BDC9CFCEBBBBFAC8
:1036B000B7A2CBCDB5C4D7D6B7FB3A25630D0A0068
:1036C00010B504462146054800F07BF900BF802173
:1036D000024800F0ABF80028F9D010BD00140140FA
:1036E00001F40072B2F5007F00D100BFCA4302802E
:1036F000704710B50022002340F66A14A14200D1A1
:1037000000BF0A1201249440A3B2DC43048010BD20
:1037100021B1828942F40052828104E082894DF60F
:10372000FF731A40828170471AB1838A0B438382E8
:1037300002E0838A8B4383827047000010B5044601
:103740003248844208D101211020FFF7D5FA002128
:103750001020FFF7D1FA57E02D48844209D101210A
:103760004804FFF7A9FA00214FF40030FFF7A4FA4C
:103770004AE02848844209D101218804FFF79CFAD5
:1037800000214FF48020FFF797FA3DE02248844261
:1037900009D10121C804FFF78FFA00214FF400205E
:1037A000FFF78AFA30E01D48844209D1012108055B
:1037B000FFF782FA00214FF48010FFF77DFA23E033
:1037C0001748844208D101212020FFF795FA0021F3
:1037D0002020FFF791FA17E01248844209D1012115
:1037E0008807FFF769FA00214FF08040FFF764FA7D
:1037F0000AE00D48844207D101214005FFF75CFA39
:1038000000216005FFF758FA10BD000000100140CC
:103810000044004000480040004C00400050004080
:103820000014014000780040007C00400246002067
:10383000B1F5007F00D100BF13880B400BB1012010
:1038400000E00020704770B50246002400230025E8
:10385000002040F66A16B14200D100BFC1F3421504
:1038600001F01F03012606FA03F3012D02D1968908
:10387000334006E0022D02D1168A334001E0968AD9
:1038800033400C12012606FA04F41688344013B1B2
:103890000CB1012000E0002070BDF0B5034600240B
:1038A00000260025002040F66A17B94200D100BF6B
:1038B0001846C1F3421401F01F06012707FA06F566
:1038C000012C01D10C3004E0022C01D1103000E0B9
:1038D00014301AB107682F43076002E00768AF434E
:1038E0000760F0BD2DE9FF4705460E460024A146BE
:1038F00000BFA046B08900B100BF2C8A24F4405418
:10390000F08804432C82AC8941F20C608443B08877
:1039100031890843718908430443AC81AC8A24F49B
:103920004074B0890443AC826846FFF7F5F920483B
:10393000854202D01F48854202D1DDF80C9001E09B
:10394000DDF80890A88900F4004040B109EBC900F7
:1039500000EB091031684900B0FBF1F707E009EB13
:10396000C90000EB091031688900B0FBF1F7642051
:10397000B7FBF0F004012009642101FB1078A8894D
:1039800000F4004040B1322000EBC800B0FBF1F081
:1039900000F00700044308E0322000EB0810642127
:1039A000B0FBF1F000F00F0004432C81BDE8FF876D
:1039B000001001400014014001468888C0F308004F
:1039C0007047C1F308028280704700BFFEE703B46E
:1039D00001984100009850EAC12018BF04204A0D08
:1039E00018BF40F0010040F2FF72B2EB515F08BF18
:1039F00040F00200012808BF052002B070474100D6
:103A0000080218BF04200A0E18BF40F001004FF052
:103A10007F4232EA010108BF40F00200012808BFDE
:103A200005207047014621F00040C0F1FF40C00F63
:103A3000704700000000000070B5C1482DED020B7A
:103A40002DED0E8B82B0119D25F000449FEDBEDB65
:103A50009FEDBFEB84423EDBA4F140511098A1F1F1
:103A60007F6108430FD0BC48844202DC28D1109803
:103A700030B39DED100B02B0BDEC0E8B02B0BDE873
:103A8000704000F07FBF9DED100B53EC1D2B51ECEF
:103A9000100B04F00FFF9DED100B41EC180B53ECD5
:103AA0001E2B51EC100B04F005FF53EC182B04F007
:103AB000BBFC41EC100B02B0BDEC0E8B02B070BD34
:103AC0000120FCF75CFD02B0BDEC0E8B02B0BDE83E
:103AD000704000F06DBFA1489FEDA18B844256DA83
:103AE0009DED100BB4F1795F0ADA51EC100BFFF782
:103AF0006EFF042808BF00F06BFF9DED100BDAE7A6
:103B000053EC102B51EC100B04F0D4FE41EC190BCC
:103B100095480621B0EE490AF0EE690A784400F0B3
:103B2000B5FE53EC192B51EC100B04F0C3FE41EC25
:103B30001A0B8E48B0EE490AF0EE690A0421784467
:103B400000F0A4FE53EC192B51EC100B04F0B2FE64
:103B500053EC182B04F068FC41EC100B51EC1A0BE1
:103B600053EC102B04F008FDCDE900019DED000B96
:103B700053EC102B9DED100B51EC100B04F09AFE42
:103B80009DED101B53EC112B04F04EFCD2E09DED8B
:103B9000100B51EC100B01F079FE53EC182B04F0D4
:103BA00087FF9FED730BCDE9000153EC102B9DEDCA
:103BB000000B51EC100B04F07DFE41EC190B6E482C
:103BC0000621B0EE490AF0EE690A784400F05EFE84
:103BD00053EC192B51EC100B04F06CFE41EC1B0B59
:103BE0006648B0EE490AF0EE690A0421784400F014
:103BF0004DFE53EC192B51EC100B04F05BFE53EC13
:103C0000182B04F011FC41EC1C0B51EC190B03F0C8
:103C1000E7F841EC180B5A489FED5BABA04222DC61
:103C200053EC1C2B51EC1B0B04F0A6FCCDE900015E
:103C30009DED000B51EC180B53EC102B04F03AFEE9
:103C400053EC182B04F0F0FB53EC1A2B04F032FE6B
:103C500053EC1D2B05F004F853EC1E2B04F028FF49
:103C600041EC100B5FE08DED008B002000909DED8E
:103C7000000B51EC180B53EC102B04F0D5FB9DED11
:103C8000000B41EC1E0B53EC102B51EC100B04F00D
:103C900011FE53EC192B04F00BFF53EC1E2B04F018
:103CA0006BFC41EC190B53EC1C2B51EC1B0B04F07F
:103CB00063FC41EC1B0B53EC1A2B51EC190B04F079
:103CC000F9FD53EC1D2B04F0F3FE41EC190B53EC02
:103CD0001A2B51EC180B04F0EDFD53EC1B2B04F0E8
:103CE000E9FD53EC192B04F0BBFF9DED000B41ECFB
:103CF000180B53EC1A2B51EC100B04F0DBFD9FED6D
:103D0000249B53EC192B04F0D3FE41EC100B51EC27
:103D1000180B53EC102B04F0A3FF53EC192B04F0F9
:103D2000C7FE41EC100B002D3FF7C5AE51EC100B58
:103D300004F03CFB41EC100BBDE60000000000006D
:103D40000000F03F00000000075C143326A6913C01
:103D5000182D4454FB21F93F0000F07F0000E03FA4
:103D6000000000000000F03FB0540000BE5400000E
:103D7000000000000000E03F02540000105400006A
:103D80003333EF3F0000000000000000000000405F
:103D9000182D4454FB21E93F70B59B482DED020BD3
:103DA0002DED068B079D25F00044A04218DC9748B6
:103DB000844202DC0AD1069840B19DED060BBDECB1
:103DC000068B02B0BDE8704000F0DCBD002DCCBF1A
:103DD0009FED8F0B9FED900BBDEC068B02B070BD7D
:103DE0008F48A04215DD8F48A042D8BF4FF0FF3466
:103DF00058DD9DED060B51EC100BFFF7E8FD042894
:103E000008BF00F0E5FD9DED060BBDEC068B02B092
:103E100070BD9DED060B51EC100B01F037FDCDE9A7
:103E2000060181489FED828BA0423CDD8248A04282
:103E30001FDD00249FED82AB9DED060B53EC1A2B8A
:103E400051EC100B04F0F0FA9DED060B41EC190B50
:103E500053EC1A2B51EC100B04F02CFD53EC182BE7
:103E600004F0FEFE53EC192B04F086FBCDE90601AD
:103E700049E09DED060B012453EC182B51EC100B7F
:103E800004F0D2FA9DED060B41EC190B53EC182B04
:103E900051EC100B04F0E4FE53EC192B04F06CFB16
:103EA000CDE906012FE06848A0421FDD02249FED06
:103EB000689B9DED060B53EC192B51EC100B04F095
:103EC000F9FC53EC182B04F0AFFA9DED060B41EC16
:103ED000180B53EC192B51EC100B04F0C1FE53ECF2
:103EE000182B04F049FBCDE906010CE09DED060B13
:103EF000032453EC102B9FED580B51EC100B04F0E6
:103F00003BFBCDE906019DED060B53EC102B51EC6C
:103F1000100B04F0CFFC41EC180B53EC182B04F001
:103F2000C9FC41EC190B4E480621B0EE490AF0EEEF
:103F3000690A784400F0AAFC53EC182B51EC100BE2
:103F400004F0B8FC41EC180B4648B0EE490AF0EE1C
:103F5000690A0521784400F099FC53EC192B51ECC7
:103F6000100B04F0A7FC41EC100B51EC180B53ECB8
:103F7000102B002C0EDA04F057FA9DED061B53ECC3
:103F8000112B04F097FC9DED061B53EC112B04F054
:103F90008FFD35E004F048FA9DED061B53EC112B24
:103FA00004F088FC41EC100B2F48784400EBC4006F
:103FB00090ED001B51EC100B53EC112B04F050FE54
:103FC0009DED061B53EC112B04F04AFE41EC100B47
:103FD0002648784400EBC40090ED001B51EC100B18
:103FE00053EC112B04F064FD41EC100B002DA2BF2B
:103FF000BDEC068B02B070BD51EC100B04F0D6F98D
:1040000041EC100B01E70000000010440000F07FBD
:10401000182D4454FB21F93F182D4454FB21F9BFBE
:104020000000DC3F0000203E0000F33F00000000E5
:10403000000000000000F03F0000E63F000000002C
:10404000000000000000004000800340000000006D
:10405000000000000000F83F000000000000F0BF7A
:104060005251000008510000925000004A500000D8
:1040700070B56B4E2DED040B2DED028B82B0DDF88B
:104080001CC0DDE905235C422CF000411C4341EAE1
:10409000D474049D22F00040B44205D86C422C43F5
:1040A00040EAD474B4420BD99DED061B9DED040B80
:1040B00002B0BDEC028B04B0BDE8704000F06CBCF7
:1040C000ACF14054A4F17F641C430BD0022404EAF9
:1040D000AC7444EAD27405439FED538B9FED542B8F
:1040E00007D015E09DED040B51EC100B00F062FEC3
:1040F00042E0002C11BF012C9DED040B02B0BDEC81
:10410000028B04BF04B070BD022C38D0032C3BD00E
:104110000B439FED491B9FED4A0B0AD0B14218D1CA
:10412000B04209D121F0804120F0804007910590F4
:104130000FE0002A15DA10E0434B7B44002C08BF47
:1041400093ED000B0DD0012C10D0022C17D0032CB6
:104150001AD0B0421DD1002A03DAB0EE410AF0EEC7
:10416000610A02B0BDEC028B04B070BD93ED000B90
:1041700051EC100B04F01AF941EC100BF1E7B0EE22
:10418000480AF0EE680AECE7B0EE420AF0EE620A86
:10419000E7E7401A00153C28C8BF8DED000B19DC7D
:1041A000BCF1000FBEBF10F13C0F9FED290B8DED50
:1041B000000B0FDB9DED060B53EC102B9DED040B5C
:1041C00051EC100B04F0D8F901F060FB00F0F2FDA7
:1041D000CDE90001002C08BF9DED000BC1D0012CE2
:1041E00010D0022C9FED1C0B53EC102B9DED000BFF
:1041F00051EC100B0DD004F033FD53EC182B04F0F0
:104200002FFDB9E7019880F0004001909DED000B73
:10421000A7E704F025FD53EC182B04F049FCABE7AD
:104220000000F07F00000000182D4454FB210940DD
:10423000182D4454FB2109C0182D4454FB21F9BF0B
:10424000182D4454FB21F93F7A4F00000000000074
:104250000000000000000000075C143326A6A13C0B
:1042600010EE100A10B510EE901A4FF0684202EBF3
:1042700040032DED028BB3F1654F3CBF02EB4102D1
:10428000B2F1654F7CD200BFC0F3C753C1F3C75230
:104290009A1A1B2A09DD10F0004F14BF9FED6E0A19
:1042A0009FED6E0ABDEC028B10BD12F11A0F1BDAE6
:1042B00011F0004F09D010F0004F0CBF9FED680ABD
:1042C0009FED680ABDEC028B10BD80EE208A18EECF
:1042D000100AFFF794FB042808BF00F097FBB0EE2C
:1042E000480ABDEC028B10BD4200B2EB410F37D93A
:1042F00010F0004F19BFDFED5C1A9FED5C1ADFED87
:104300005C1A9FED5C1AB0EE602A0A46F1EE400A94
:1043100080F00041B0EE420A10460A1A5200B2F193
:10432000807F34D2484010F0004FDFED532A9FEDDC
:10433000533A1DBFBEEE002A71EEE21A31EE431A67
:10434000B6EE002A04BF71EEA21A31EE031AF0EEA7
:10435000402A42EE602A40EE020A82EEA02A18E0CD
:1043600011F0004F04BF9FED461AF0EE411AD4D071
:1043700010F0004F1CBFDFED431A9FED431A00E021
:1043800026E004BFDFED411A9FED411AC5E780EE3C
:10439000202A22EE020ADFED3F0ADFED3F2ABDECC4
:1043A000028B40EE202ADFED3D0A40EE220ADFEDCF
:1043B0003C2A40EE202ADFED3B0A40EE220A22EEA4
:1043C000000A00EE201A31EE020A30EE210A10BD7A
:1043D0004FF07F42B2EB400F28BFB2EB410F05D246
:1043E000BDEC028BBDE8104000F005BB40EA0103C4
:1043F0005B0008BF41F0FF410BD0B2EB400F08BF9C
:10440000B2EB410F08D120F0804000EE100A21F0FD
:10441000804100EE901A37E7B2EB400F12BF5FEA1F
:10442000410240F0FF4001F000413FF42DAF4A004F
:1044300092EA40033FF528AF002AACBF9FED1A1A5D
:104440009FED1A1A20EE010A60EE810A10EE100AA2
:1044500010EE901A18E70000DB0FC9BFDB0FC93F51
:10446000DB0F4940DB0F49C00000C9BF22AAFDB9DC
:104470000000C93F22AAFD390060ED3EC30ACE37D5
:1044800000000000000049C022AA7DBA0000494097
:1044900022AA7D3A2DAD65BD8FB8D53D0FB511BEB1
:1044A00061C84C3EA8AAAABE0000804F0000802F21
:1044B00010EE101A08B5444A6846B2EB410F28D9ED
:1044C0004FF0E640B0EB410F94BF00204FF0FF30BB
:1044D00000900098002861DB60EE000A10F0010FE8
:1044E00045D010F0020FDFED391A9FED391A00EEBA
:1044F000E11ADFED381A40EE811A21EEA01AF0EE33
:10450000400A40EE010A08BFF1EE600AB0EE600A10
:1045100008BD314B21F0004293423CD911F0004FCD
:10452000DFED2E0A20EE201ADFED2D0A19BF31EE45
:10453000601A71EE200A31EE201A71EE600ABDEEAB
:10454000E01A11EE100A9FED271A00F0030000EEAA
:10455000C10A9FED251A009000EEC10A9FED231AB3
:1045600000EEC10A9FED221A00EEC10AB1E79FEDED
:10457000211A9FED210A10F0020F00EE810A9FED33
:104580001F1A00EE801AB7EE000A00EE810A18BF6B
:10459000B1EE400A08BD00F041FA9AE710EE100AA9
:1045A0004000B0F17F4F3CBFB7EE000A08BD07D115
:1045B0004FF00100FBF7E3FFBDE8084000F01EBA32
:1045C000BDE8084000F014BAB61F927E336D4C3936
:1045D000DA82083CA0AA2ABE490E494683F9223F46
:1045E0000000004B0000C93F00A0FD390020A233AD
:1045F0001A61342CB93AB2BACA9F2A3DDDFFFFBE18
:1046000010B52DED028BB0EE608AF0EE408A18EE08
:10461000101A18EE900A04F045FC00F07040B0F15A
:10462000005F0CD018EE100A20F00040C0F1FF40EF
:10463000C00F02BFB0EE480ABDEC028B10BDB0EE59
:10464000680ABDEC028B10BD00B510EE101A2DEDFE
:10465000028B81B0524A6846B2EB410F2ED94FF01F
:10466000E640B0EB410F94BF00204FF0FF300090C8
:104670000098B0EE408A00286ADB10F0010F4BD0A2
:1046800068EE080A9FED471A9FED470A00EE810A7F
:104690009FED461A10F0020F00EE801AB7EE000AE6
:1046A00000EE810A02BF01B0BDEC028B00BD00BF6D
:1046B00001B0B1EE400ABDEC028B00BD3C4B21F0D5
:1046C0000042934241D911F0004FDFED3A0A20EE4B
:1046D000201ADFED390A19BF31EE601A71EE200A97
:1046E00031EE201A71EE600ABDEEE01A11EE100AEA
:1046F0009FED321A00F0030000EEC10A9FED301A60
:10470000009000EEC10A9FED2F1A00EEC10A9FED46
:104710002E1A00EEC10AABE728EE080A9FED2B1A0D
:10472000DFED2B0A10F0020F40EE410A9FED291A2F
:1047300000EE201A61EE000AB0EE480A08EE200AE8
:10474000B6D101B0BDEC028B00BD00F067F98FE778
:1047500018EE100A4000B0F17F4F0DD218EE100A8B
:10476000FFF74DF9042808BF00F050F9B0EE480AF1
:1047700001B0BDEC028B00BD09D10120FBF7FFFEAB
:1047800001B0BDEC028B5DF804EB00F037B901B06D
:10479000B0EE480ABDEC028B5DF804EB00F028B9DE
:1047A000B61F927EB93AB2BACA9F2A3DDDFFFFBE5C
:1047B000490E494683F9223F0000004B0000C93FE3
:1047C00000A0FD390020A2331A61342C336D4C391E
:1047D000DA82083CA0AA2ABE00B52DED048BB0EE0B
:1047E000409AF0EE609A83B051EC190B04F06CF92A
:1047F00041EC180B18EE100A18EE901A8DED008B94
:10480000002818BF0120084320F00040C0F17F605D
:1048100000F1E040C00F14D019EE101A19EE900A02
:104820008DED009B002918BF0121084320F00040B6
:10483000C0F17F6000F1E040C00F04BF0120FBF732
:104840009EFEB0EE480A03B0F0EE680ABDEC048BA1
:1048500000BD10B52DED028BB1EEC08A18EE100A26
:1048600020F00040C0F1FF40C00F0AD010EE100A47
:1048700020F00040C0F1FF40C00F04BF0120FBF753
:104880007EFEB0EE480ABDEC028B10BD70B504464A
:104890002DED028B4D1E00EBC500B0EE408AF0EE10
:1048A000608A90ED000B35F0060017D053EC182B02
:1048B00051EC100B03F0FEFF41EC100B6D1E04EBEE
:1048C000C50090ED001B51EC100B53EC112B03F0C5
:1048D000ABFD41EC100B35F00600E7D1022D36D0D0
:1048E000042D1CD0062D1CBFBDEC028B70BD53ECFB
:1048F000182B51EC100B03F0DDFF94ED0A1B53EC69
:10490000112B03F091FD53EC182B03F0D3FF94ED22
:10491000081B53EC112B03F087FD41EC100B53ECFB
:10492000182B51EC100B03F0C5FF94ED061B53EC54
:10493000112B03F079FD53EC182B03F0BBFF94ED22
:10494000040B53EC102B03F06FFD41EC100B53ECF8
:10495000182B51EC100B03F0ADFF94ED021B53EC40
:10496000112B03F061FD53EC182B03F0A3FF94ED22
:10497000001B53EC112B03F057FDBDEC028B41ECF7
:10498000100B70BD10B553EC102B51EC100B03F055
:104990004BFD41EC100B10BD10B553EC112B51EC3D
:1049A000100B03F041FD41EC100B10BD00000000A6
:1049B0009FED050B10B553EC102B51EC100B03F0D1
:1049C000DBFD41EC100B10BD0000000000000000FA
:1049D0009FED050B10B553EC102B51EC100B03F0B1
:1049E00069FF41EC100B10BD00000000000000103A
:1049F00030EE000A704730EE200A7047DFED020A01
:104A000080EEA00A70470000000000009FED020A3F
:104A100020EE000A70470000000000102DE9F001B0
:104A20004FF07F42B2EB410F9FBF4FF0FF3101606B
:104A3000BDE8F00170474FF0004242EA0123C1F3A4
:104A4000C752783A551112F01F0C434CCCF1200696
:104A50007C44C1F3C752A2F178024FEA621204EB20
:104A6000820254F8254008BFD2E9015612D0556899
:104A700004FA0CF425FA06F73C43976805FA0CF59E
:104A800027FA06F8D26807FA0CFCF24045EA080556
:104A90004CEA0206A4FB034CA5FB0352A6FB0363EE
:104AA0001D449D4234BF012600261319334416B11C
:104AB000934202D903E0934201D2012200E0002296
:104AC000624402F1200C9206DC0C42EA443200EE11
:104AD000102A5B03DFED210AF8EEC01A00EE103A4F
:104AE0004FEA9C1C11F0004FB8EE400AC0F800C01D
:104AF00020EE201A00EE105ADFED190AB8EE400A37
:104B000020EE200A71EE810A70EE800A10EE902AE3
:104B100002F500626FF30B0200EE902A70EEE11ACC
:104B200031EEC11ADFED101A30EE411A9FED0D0A79
:104B300020EE800A01EE210A9FED0C1A00EE810A98
:104B400004BFBDE8F0017047CCF180510160BDE8C1
:104B5000F001B1EE400A70476C46000000000036DC
:104B60000000802C22AAFD29DB0FC92F0000C92FCD
:104B700000BF704710B52DED088B02F0CDF902F0A3
:104B800001FA01218807FEF781FB6C48B0F9160095
:104B900000EB8000800000EE100AB8EEC00A684802
:104BA000D0ED000A20EE200A10EE101A084604F09C
:104BB00041F941EC190B6149886803F064FE9FEDEF
:104BC000610B53EC102B03F075FE53EC192B03F023
:104BD0002BFC03F029FE00B25C4908805749B1F96B
:104BE0001810C1EBC10003F04EFE41EC190B534904
:104BF000C86803F048FE9FED560B53EC102B03F0F2
:104C000059FE53EC192B03F00FFC03F00DFE00B21C
:104C1000514908804D48B0F9000003F034FE9FED83
:104C2000490B53EC102B03F045FE03F0FDFD00B2E1
:104C30004A4908804848B0F9000003F024FE9FED7F
:104C4000410B53EC102B03F035FE03F0EDFD00B2E9
:104C5000434908804048008880B34248B0F90000CA
:104C6000B1F9001008444049B1F90010884214DC41
:104C70003C48B0F900003A49B1F9001008443B49FA
:104C8000B1F90010884208DB3648008834490988A9
:104C9000084400B23349088016E03248B0F90000F9
:104CA0002F49B1F9001008442F49B1F9001088428A
:104CB00005DD2D48B0F900002A49088004E02B48A2
:104CC000B0F90000274908801C48407D032803D024
:104CD00027480088032817D12648008801280BD1CF
:104CE000254800881D490988084424490988084442
:104CF00000B2224908801DE01E480088D0B940F665
:104D0000D2701E49088015E00C48407D022803D06F
:104D10001748008802280DD101201649088016483E
:104D200000880E490988084414490988084400B2DB
:104D300012490880BDEC088B10BD000055120220FE
:104D40004C0100209A9999999999B93F4401002002
:104D5000000000000000144046010020580100201F
:104D60005A0100205401002062010020600100204F
:104D700048010020A4000020720100205201002000
:104D800006480088064908800648008806490880C9
:104D90000648008806490880704700000801002086
:104DA000640100201001002066010020180100208D
:104DB0006801002010B541EC100BFEF7EDFF51EC3F
:104DC000100B10BD30B52DED0C8B8BB000F088FDB5
:104DD00000F0D4FDFE48008801287CD1FD48407DCC
:104DE000032803D0FC480088032810D1FB48B0F901
:104DF000000041F24C01884209DAF848B0F900009D
:104E000040F65871884202DD0020F1490880F448DC
:104E100090ED000ADFEDF30A20EE200ABDEEC00A95
:104E200010EE100A00B2F0490880F0490880F049FD
:104E30000880F0490880F0490880E848B0F900008F
:104E400000EE100AB8EEC00ADFEDEC0A80EE201A80
:104E5000F0EE41AAB7EE000A3AEE800AFFEE000A31
:104E600030EE200AF0EE40AADA48006800EE100AA0
:104E7000B8EEC00AE2480088E249098810FB01F058
:104E800000EE900AF8EEE00ADF4890ED001AF0EE2E
:104E9000409A40EE819ACF48406800EE100AB8EE82
:104EA000C00ADA480088D749098810FB01F000EEF3
:104EB000900AF8EEE00AD44890ED001AB0EE409A5D
:104EC00000EE819AB0EEC90AF0EE40CAB0EEE90AEF
:104ED000B0EE40DA00E0B4E1F0EE6C0AFFF790FBD0
:104EE000F0EE40DA69EEA90A49EE090AB0EE600A6E
:104EF000FFF7AFFC8DEE80AA1AEE100AFEF792FDC6
:104F000018B19FEDC30AB0EE40AAF0EE690AB0EE08
:104F1000490AFFF7A5F9B0EE001AC0EE010A9FEDAD
:104F2000BD1A80EE810AF5EE000A30EEC0BA1BEE23
:104F3000100AFEF777FD18B19FEDB50AB0EE40BA42
:104F40003AEE8B0AF0EE40AA2022B34903A8FBF701
:104F5000D3FA00242CE003A800EBC40090ED000A73
:104F600030EE6A0AF7EE080A30EE200A03A800EBDA
:104F7000C40080ED000A0DE003A800EBC40090ED32
:104F8000000AF7EE000A30EE600A03A800EBC40046
:104F900080ED000A03A800EBC40090ED000AF7EED4
:104FA000000AB4EEE00AF1EE10FAE5DC601C04B28F
:104FB000042CD0DB00242FE0002527E003A800EB21
:104FC000C50090ED000A03A9681C01EBC000D0EDFC
:104FD000000AB4EEE00AF1EE10FA15DD03A800EBCA
:104FE000C50103C9CDE9010103A800EBC50103AA6E
:104FF000681C02EBC00205CA05C103A9681C01EBCD
:10500000C000DDE9011206C0681C05B2C4F103004E
:10501000A842D3DC601C04B2032CCDDBDDED03BA67
:105020009FED7C0A2BEE800AF0EE000A20EE20CAEB
:10503000B0EE4C0AFFF708FBF0EE408AB0EE4C0AE7
:10504000FFF736FAB0EE408AB4EE000AF4EEC0BACA
:10505000F1EE10FA65DB68EE081A81EEA81A31EE5F
:10506000281A6E48D0ED001A61EE8A1A81EE812A64
:10507000B0EE420A80EE281A21EE081AF0EE410A3C
:105080000498B0F9000001EE100AB8EEC11AF7EE6C
:10509000001A70EE211A21EE211ABDEEC11A11EE8E
:1050A000100A00B2049908800698B0F9000001EED9
:1050B000100AB8EEC11AF7EE001A70EEA11A21EE2E
:1050C000211ABDEEC11A11EE100A01B20698018034
:1050D0000898B0F9000001EE100AB8EEC11AF7EE18
:1050E000001A71EEC01A21EE211ABDEEC11A11EE9E
:1050F000100A01B2089801800A98B0F9000001EE88
:10510000100AB8EEC11AF7EE001A71EEE01A21EE9D
:10511000211ABDEEC11A11EE100A01B20A980180DF
:105120008EE068EEA81A81EE881A31EE081A3B4824
:10513000D0ED001A61EE8A1A81EE812AB0EE420AA1
:1051400020EE281AC1EE081AF0EE610A0498B0F9B0
:10515000000001EE100AB8EEC11AF7EE001A70EE68
:10516000A11A21EE211ABDEEC11A11EE100A00B2E9
:10517000049908800698B0F9000001EE100AB8EE14
:10518000C11AF7EE001A70EE211A21EE211ABDEEB7
:10519000C11A11EE100A01B2069801800898B0F900
:1051A000000001EE100AB8EEC11AF7EE001A71EE17
:1051B000E01A21EE211ABDEEC11A11EE100A01B259
:1051C000089801800A98B0F9000001EE100A27E063
:1051D000A4000020551202204801002008010020F0
:1051E000AC00002000603045CE000020CC00002044
:1051F000CA000020C80000209C00002000000046DB
:10520000D0000020B6000020A8000020D20000201E
:1052100000000000DB0F4940988F00089800002034
:10522000B8EEC11AF7EE001A71EEC01A21EE211A7B
:10523000BDEEC11A11EE100A01B20A98018000BF3A
:10524000F7E07E4880687D49C98A7D4A128811FB53
:10525000020000B27B4908807848406800EE100ADE
:10526000B8EEC00A784800887849098810FB01F038
:1052700000EE900AF8EEE00A754890ED001A00EE94
:10528000810ABDEEC00A10EE100A00B27149088012
:105290006A48006800EE100AB8EEC00A6E4800883E
:1052A0006A49098810FB01F000EE900AF8EEE00A66
:1052B000674890ED001A00EE810ABDEEC00A10EEBC
:1052C000100A00B26549088062480088C0EB0010EF
:1052D00000B26349088061480088C0EB001000B24A
:1052E0006049088057480088800000B25E49088005
:1052F0005249C98B01F0200003F0C5FA41EC1C0BA8
:105300009FED5A0B53EC102B03F0D4FA41EC1B0B1E
:105310009FED580B53EC102B03F0CAFB41EC190B1B
:105320004649C98B01F0100003F0ADFA41EC1C0BAB
:105330009FED4E0B53EC102B03F0BCFA41EC1B0B12
:105340009FED4C0B53EC102B03F06EF841EC1A0B55
:1053500053EC192B03F0AEFA41EC180B03F032F8C2
:10536000464908603E48B0F9000000EE100AB8EE69
:10537000C00A0846D0ED000A20EE200ABDEEC00AA1
:1053800010EE100A00B23E4908803648B0F900001D
:1053900000EE100AB8EEC00A3848D0ED000A20EE40
:1053A000200ABDEEC00A10EE100A00B2354908808E
:1053B0002D48B0F9000000EE100AB8EEC00A2F48E0
:1053C000D0ED000A20EE200ABDEEC00A10EE100A51
:1053D00000B22D4908802A4800882A4909880844D3
:1053E00029490988084400B22849088024480088CF
:1053F000404224490988084423490988084400B2E6
:10540000234908801E48008840421E490988401AE6
:105410001D490988084400B21E49088018480088C0
:1054200018490988401A18490988084400B21A49DD
:1054300008800BB0BDEC0C8B30BD00005512022073
:10544000B8000020A2000020D2000020B6000020FA
:10545000A80000209E000020D0000020A000002016
:10546000BA000020BC000020BE00002000000000A8
:105470000000E03F000000000000F03FD4000020EA
:10548000B0000020B2000020B4000020C8000020BE
:10549000CA000020CC000020CE0000200848408830
:1054A000084908800848408808490880084840881A
:1054B000084908800848408808490880704700006B
:1054C000D8000020C0000020E0000020C200002022
:1054D000E8000020C4000020F0000020C6000020EA
:1054E00010B59FED072ADFED071AB2EE041ADFEDC3
:1054F000060A9FED060A064800F094F810BD000069
:10550000000000000AD7A33C0000FA4400803B459D
:10551000A4060220B0EE401A10B99FED400A704771
:1055200080ED041AC0ED030A70EEC11AC0ED051A31
:1055300090ED000A90ED052A20EE020A80ED080A9F
:1055400090ED090A90ED012AD0ED052A02EE220A1B
:1055500080ED090A90ED050A314A02EB810292EDD5
:10556000002A30EE420A90ED022A20EE020A80ED77
:105570000A0A90ED090A90ED072AB4EEC20AF1EE8C
:1055800010FA04DD90ED070A80ED090A10E090EDB5
:10559000090A90ED072AB1EE422AB4EEC20AF1EEF2
:1055A00010FA05D290ED070AB1EE400A80ED090A23
:1055B00090ED080A90ED092A30EE020A90ED0A2AD1
:1055C00030EE020A80ED0B0A90ED0B0A90ED062AF0
:1055D000B4EEC20AF1EE10FA04DD90ED060A80ED99
:1055E0000B0A10E090ED0B0A90ED062AB1EE422A6C
:1055F000B4EEC20AF1EE10FA05D290ED060AB1EE51
:10560000400A80ED0B0A90ED050A054A02EB810283
:1056100082ED000A90ED0B0A81E700000000000017
:10562000D406022000B9704780ED001AC0ED011ABF
:1056300080ED022ADFED062AC0ED052ADFED042AFF
:10564000C0ED042AC0ED070A80ED060A00BFEAE7B4
:10565000000000002DE9FC4107460C4615461E4699
:10566000380A8DF80000F8B28DF80100200A8DF894
:105670000200E0B28DF80300280A8DF80400E8B2B9
:105680008DF80500300A8DF80600F0B28DF807009D
:10569000082269469001FBF75DF9BDE8FC81000036
:1056A00010B501213848B0F9000000EE100AF8EEFC
:1056B000C00A3648B0F9000000EE100AB8EEC00A81
:1056C0003348FFF727FFBDEEC00A10EE100A00B204
:1056D0002D49088002212F48B0F9000000EE100A81
:1056E000F8EEC00A2C48B0F9000000EE100AB8EE3F
:1056F000C00A2748FFF70EFFBDEEC00A10EE100AE1
:1057000000B22449088003212448B0F9000000EECB
:10571000100AF8EEC00A2248B0F9000000EE100AA4
:10572000B8EEC00A1A48FFF7F5FEBDEEC00A10EE4B
:10573000100A00B21949088004211A48B0F9000083
:1057400000EE100AF8EEC00A1748B0F9000000EEAB
:10575000100AB8EEC00A0E48FFF7DCFEBDEEC00A24
:1057600010EE100A00B20F4908800846B0F9003068
:105770000A48B0F900200748B0F900100248B0F913
:105780000000FFF767FF10BDC8000020C000002028
:10579000A4060220CA000020C2000020CC00002085
:1057A000C4000020CE000020C600002010B5FFF786
:1057B00009FBFFF773FEFFF773FF10BDFFF790FEC5
:1057C00004E0FFF7F3FF0A2001F0B6FDF9E700005F
:1057D00070B504460025681FFDF7A8FC1348006853
:1057E0001349B0FBF1F013490870104800684FF4FA
:1057F000FA51B0FBF1F0104908600CB94FF47A741B
:105800000A480068B0FBF4F0C5086D1E4FF0E020B8
:10581000006940F002004FF0E02108610846456150
:10582000006940F00100086170BD00000000002028
:1058300000127A00480300204C03002070B5034694
:10584000002400210020002200254FF0E026756989
:105850000D4E366803FB06F44FF0E026B16910E008
:105860004FF0E026B06988420BD0884202D20E1A6F
:10587000324402E02E1A0E4432440146A24200D3C2
:1058800000E0EDE700BF70BD4C03002082B0CDE921
:10589000000121F0004001909DED000B02B051ECA1
:1058A000100B70470C48C08B00F4007018B1022038
:1058B0000A49087007E00848C08B00F4806010B106
:1058C0000320064908700448007D012802D0012009
:1058D000024908707047000055120220BF010020E5
:1058E0001648C08B00F0080018B101201449088048
:1058F0000CE01248C08B00F0040020B14FF0FF30E4
:105900000F49088002E000200D4908800B48C08B39
:1059100000F0010018B101200A4908800CE0074896
:10592000C08B00F0020020B14FF0FF300549088025
:1059300002E0002003490880704700005512022051
:10594000D0000020D200002010B504464FF4807033
:1059500040FA04F10148FBF7B3FE10BD0018024005
:1059600000BF054A128802F04002002AF9D0C2B2F4
:10597000014B1B1D1A807047001401401F48C08B4B
:1059800000F4005078B1B7EE000A1D4880ED000A1F
:10599000B7EE000A1B4880ED000AB6EE080A1A4866
:1059A00080ED000A28E01548C08B00F4804078B1F3
:1059B0009FED160A124880ED000A9FED150A114866
:1059C00080ED000AB7EE000A0F4880ED000A13E0F0
:1059D0000A48C08B00F4004070B19FED0E0A0848E1
:1059E00080ED000A9FED090A064880ED000A9FED50
:1059F000070A054880ED000A704700005512022092
:105A0000A8000020AC000020980000209A99993F3F
:105A1000CDCC8C3F6666A63F10B5B1EE0E2ADFED09
:105A2000131A9FED131ADFED130A9FED130A1348A3
:105A300000F0B4F89FED122ADFED0C1AB3EE0E1A47
:105A4000DFED100A9FED100A104800F0A7F89FED57
:105A5000102AF0EE041A9FED0F1ADFED0F0A9FEDEA
:105A6000060A0E4800F09AF810BD00000000000081
:105A7000BC160C4100803B4500409C46E8060220D5
:105A80007B14204200401C460060EA4618070220B2
:105A9000F628A0410000204200007A444807022076
:105AA000F0EE401A10B99FED3C0A7047C0ED041AA1
:105AB000C0ED030A30EEE12A80ED052A90ED000AE0
:105AC000D0ED052A20EE220A80ED080A90ED090AA1
:105AD000D0ED012A90ED053A02EE830A80ED090A25
