:020000040800F2
:10000000F81002204D0300087B1F00083D1B00086C
:10001000771F0008B9090008AB3400080000000091
:100020000000000000000000000000009502000831
:10003000051A000800000000E90200084528000831
:1000400071030008710300087103000871030008C0
:1000500071030008710300087103000871030008B0
:1000600071030008710300087103000871030008A0
:100070007103000871030008710300087103000890
:100080007103000871030008710300087103000880
:10009000BD0900087103000871030008710300081E
:1000A0007103000871030008710300087103000860
:1000B00071030008FD28000871030008710300089F
:1000C0007103000871030008710300087103000840
:1000D000710300084530000871030008710300082F
:1000E0007103000871030008710300087103000820
:1000F0007103000871030008710300087103000810
:1001000071030008710300082D290008710300081D
:1001100071030008710300087103000871030008EF
:1001200071030008710300089D15000871030008A1
:1001300071030008710300087103000871030008CF
:10014000F90D00087103000871030008710300082D
:10015000F11500087103000871030008A5310008BB
:10016000710300087103000871030008710300089F
:10017000710300087103000871030008000000000B
:100180007103000871030008592C0008952D000820
:10019000710300087103000871030008710300086F
:1001A00000000000000000007103000800F002F8E9
:1001B00000F061F80AA090E8000C82448344AAF1A0
:1001C0000107DA4501D100F056F8AFF2090EBAE89E
:1001D0000F0013F0010F18BFFB1A43F0010318477B
:1001E00078BF000098BF00000A444FF0000C10F8E0
:1001F000013B13F0070408BF10F8014B1D1108BFA5
:1002000010F8015B641E05D010F8016B641E01F844
:10021000016BF9D113F0080F1EBF10F8014BAD1C94
:100220000C1B09D16D1E58BF01F801CBFAD505E0B2
:1002300014F8016B01F8016B6D1EF9D59142D6D30C
:10024000704700000023002400250026103A28BF34
:1002500078C1FBD8520728BF30C148BF0B60704738
:10026000642900F0FF80002070471FB50AF029FFC5
:100270001FBD10B510BD00F03BFB1146FFF7F5FFA9
:1002800006F0FEFB00F059FB03B4FFF7F2FF03BCDE
:1002900004F0DAF92A4B19680868B0E8F04F80F3E7
:1002A0000988BFF36F8F4FF0000080F3118870470B
:1002B0000000000006480068006880F3088862B605
:1002C00061B6BFF34F8FBFF36F8F00DF00BF00BF7A
:1002D00008ED00E0DFF80C00016841F470010160F6
:1002E000704700BF88ED00E0EFF30980BFF36F8F28
:1002F000134B1A681EF0100F08BF20ED108A20E97A
:10030000F04F106008B44FF0500080F31188BFF335
:100310004F8FBFF36F8F09F05BFA4FF0000080F34F
:10032000118808BC19680868B0E8F04F1EF0100F7B
:1003300008BFB0EC108A80F30988BFF36F8F704755
:1003400024000020EFF30580704700000C4801688E
:1003500041F4700101600B4880470B480047FEE7FD
:10036000FEE7FEE7FEE7FEE7FEE7FEE7FEE7FEE765
:10037000FEE7000005480649044A064B70470000A6
:1003800088ED00E055280008AD010008F80C0220B7
:10039000F8100220F80C0220704710B54C1084EAC7
:1003A000530404D54042C1F1000138BF491E1B422D
:1003B00004D55242C3F1000338BF5B1E00F05FF961
:1003C00014F0804F04D04042C1F1000138BF491EF3
:1003D00014F0004F04D05242C3F1000338BF5B1E3B
:1003E00010BD00000FB4044910B503AA029800F034
:1003F00039FA10BC5DF814FB9C0200202DE9F04195
:100400000E460446002020622046E168884730B34B
:10041000252805D0D4E901219047206A401CF2E745
:10042000E168204600278847050018D0A5F1410063
:10043000192802D820354FF4006732462946204655
:100440002760FFF70DFF40B1012804D0F61D26F00C
:1004500007060836D8E7361DD6E72846DAE7206AC9
:10046000BDE8F0812DE9F0410646002410687529A9
:10047000314616A510D0AFF30080002802DA4042C2
:1004800013A507E031688A0701D512A502E04907E4
:1004900004D511A5012401E0AFF3008000210A2258
:1004A00006F1240709E0B0FBF2FCB0FBF2F302FB1B
:1004B0001C00303078541846491C0028F3D12346DC
:1004C0002A463046BDE8F04100F05BB9000000006C
:1004D0002D0000002B0000002000000040EA010376
:1004E00010B59B070FD1042A0DD310C808C9121FDD
:1004F0009C42F8D020BA19BA884201D9012010BD17
:100500004FF0FF3010BD1AB1D30703D0521C07E0E3
:10051000002010BD10F8013B11F8014B1B1B07D147
:1005200010F8013B11F8014B1B1B01D1921EF1D1B8
:10053000184610BD032A40F2308010F0030C00F082
:10054000158011F8013BBCF1020F624498BF11F80D
:1005500001CB00F8013B38BF11F8013BA2F10402C6
:1005600098BF00F801CB38BF00F8013B11F003033E
:1005700000F02580083AC0F0088051F8043B083AA2
:1005800051F804CBA0E80810F5E7121D5CBF51F844
:10059000043B40F8043BAFF30080D20724BF11F8BE
:1005A000013B11F801CB48BF11F8012B24BF00F823
:1005B000013B00F801CB48BF00F8012B704710B594
:1005C000203AC0F00B80B1E81850203AA0E818504B
:1005D000B1E81850A0E81850BFF4F5AF5FEA027C0C
:1005E00024BFB1E81850A0E8185044BF18C918C07B
:1005F000BDE810405FEA827C24BF51F8043B40F81C
:10060000043B08BF7047D20728BF31F8023B48BF00
:1006100011F8012B28BF20F8023B48BF00F8012B3E
:10062000704702F0FF0343EA032242EA024200F06D
:1006300002B84FF000020429C0F0128010F0030C41
:1006400000F02481CCF1040CBCF1020F18BF00F8BB
:10065000012BA8BF20F8022BA1EB0C0100F016B96A
:100660005FEAC17C24BF00F8012B00F8012B48BFD2
:1006700000F8012B7047704770477047704753EA86
:10068000020C00F069802DE9F04B4FF00006002BC2
:100690001FBFB3FA83F503FA05F424FA05F65E40AA
:1006A00012BF1643B2FA82F502FA05F4C5F120052D
:1006B0001EBF22FA05FC44EA0C04203556EA044C1D
:1006C0004FEA144418BF641C4FF000084FF00009B3
:1006D000904271EB030C39D3002919BFB1FA81F7AD
:1006E00001FA07F6B0FA80F700FA07F6C7F120071B
:1006F0001EBF20FA07FC46EA0C062037B6FBF4FCC6
:10070000A7EB0507103F07F01F0BCBF120060CFAF3
:100710000BFB2CFA06F644BFB3460026202FA4BFDD
:100720005E464FF0000B5BEA060C08BF4FF0010B72
:1007300019EB0B09ABFB027C48EB0608C01B06FB60
:1007400002CC0BFB03CC71EB0C01C1E70B4602465C
:1007500041464846BDE8F08B13B54FF000004FF01E
:100760000001AFF30080BDE81C40704710B500F0F9
:10077000B3F8006810BD10B5044600F0ADF8046091
:1007800010BD2DE9F0470D4699469246044600F10A
:1007900024080168880604D5E06921F01001216071
:1007A00000E00120A84201DD471B00E00027A1690D
:1007B0007A1902EB0900081AA0612078C00602D459
:1007C0002046AFF30080002608E0D4E901211AF8A2
:1007D00006009047206A401C761C20624E45F4DBE0
:1007E0002078C0060AD52046AFF3008006E0D4E9A1
:1007F000012130209047206A401C2062381EA7F15A
:100800000107F4DC07E0D4E9012118F8050090475E
:10081000206A401C2062281EA5F10105F3DC204659
:10082000AFF300802078000602D50220BDE8F087F3
:100830000120FBE701694A1C02610878704700B596
:100840008FB0CDE901310021059105497944CDE909
:10085000031011466846FFF7D1FD0FB000BD000040
:10086000E5FFFFFF074B70B50D467B44FFF7E7FF41
:100870000446284600F034F810B14FF0FF3070BD48
:10088000204670BD475900004FF0000200B51346E6
:1008900094469646203922BFA0E80C50A0E80C50A0
:1008A000B1F12001BFF4F7AF090728BFA0E80C5051
:1008B00048BF0CC05DF804EB890028BF40F8042B4A
:1008C00008BF704748BF20F8022B11F0804F18BFB7
:1008D00000F8012B7047000000487047940C02207C
:1008E000007B00F08000704700487047940C0220A5
:1008F0007546FFF7F9FFAE4605006946534620F0FE
:100900000700854618B020B5FFF734FDBDE820404C
:100910004FF000064FF000074FF000084FF0000BBB
:1009200021F00701AC46ACE8C009ACE8C009ACE86E
:10093000C009ACE8C0098D46704710B50446AFF356
:1009400000802046BDE81040FFF79EBC08B54FF47C
:10095000407001F04FFB4FF47A7004F097FD06F001
:1009600021F802F0CFFA4FF4E13002F07BFB07F000
:10097000D5F902F093F902F05DFA002005231A463A
:100980000121009000F0B0F9002005231A46012152
:10099000009000F0A5FA08F03FF801F0D5FD3020F6
:1009A00001F060FE01F0CCF801F02EFB642002F0B3
:1009B000EDF801F083FF08BD00BFFEE700B585B08C
:1009C0000021A34800F02DFC10B9002005B000BDA7
:1009D0006A4600219E4800F033FC0098A0F20120F6
:1009E000112829D2DFE800F00929496989A9C92815
:1009F000E928282828282828FE009DF80C009DF8C2
:100A00000B1040EA012000B2924908809DF80E10B8
:100A10009DF80D0041EA002000B28E4948809DF803
:100A200010109DF80F0041EA002000B2894988802B
:100A30009DF8110040B2887106E19DF80C009DF808
:100A40000B1040EA012000B2834908809DF80E1087
:100A50009DF80D0041EA002000B27F4948809DF8D2
:100A600010109DF80F0041EA002000B27A498880FA
:100A70009DF8110040B28871E6E09DF80C009DF8E9
:100A80000B1040EA012000B2744908809DF80E1056
:100A90009DF80D0041EA002000B2704948809DF8A1
:100AA00010109DF80F0041EA002000B26B498880C9
:100AB0009DF8110040B28871C6E09DF80C009DF8C9
:100AC0000B1040EA012000B2654908809DF80E1025
:100AD0009DF80D0041EA002000B2614948809DF870
:100AE00010109DF80F0041EA002000B25C49888098
:100AF0009DF8110040B28871A6E09DF80C009DF8A9
:100B00000B1040EA012000B2564908809DF80E10F3
:100B10009DF80D0041EA002000B2524948809DF83E
:100B200010109DF80F0041EA002000B24D49888066
:100B30009DF8110040B2887186E09DF80C009DF888
:100B40000B1040EA012000B2474908809DF80E10C2
:100B50009DF80D0041EA002000B2434948809DF80D
:100B600010109DF80F0041EA002000B23E49888035
:100B70009DF8110040B2887166E09DF80C009DF868
:100B80000B1040EA012000B2384908809DF80E1091
:100B90009DF80D0041EA002000B2344948809DF8DC
:100BA00010109DF80F0041EA002000B22F49888004
:100BB0009DF8110040B2887146E09DF80C009DF848
:100BC0000B1040EA012000B2294908809DF80E1060
:100BD0009DF80D0041EA002000B2254948809DF8AB
:100BE000101000E00BE09DF80F0041EA002000B279
:100BF0001F4988809DF8110040B2887124E09DF85B
:100C00000B109DF80C0041EA002000B21949088041
:100C10009DF80D109DF80E0041EA002000B2154924
:100C200048809DF80F109DF8100041EA002000B2A6
:100C3000104988809DF811109DF8120041EA0020AB
:100C400000B20C49C88000BF00BF9DF80A00BDE695
:100C500000640040380100204001002048010020CD
:100C60005001002058010020600100206801002090
:100C700070010020A80100202DE9F04186B0074650
:100C8000884615460024019700208DF80C008DF849
:100C90000D008DF80E5000BF06E018F804100DF19D
:100CA0000F000155601C84B2AC42F6DB01A90D486F
:100CB00000F03EFB0646002401E0601C84B2314691
:100CC000084800F0C9FB18B940F6FF708442F4DB15
:100CD00040F6FF70844203DB012006B0BDE8F081DE
:100CE0000020FAE7006400402DE9F0418AB0044694
:100CF0000D4616461F46DDF840800121082001F010
:100D000089FA0121480601F095FA0121480601F00F
:100D1000A1FA00214FF0007001F09CFA0320089026
:100D200002208DF8240000208DF8260003208DF885
:100D3000250001208DF8270008A92D4800F063FE4A
:100D4000092200212A4800F0A6FE09220121284894
:100D500000F0A1FE00208DF81A0001208DF81B0084
:100D600000208DF81C008DF81D008DF81E008DF8F8
:100D70001F008DF816808DF817408DF818608DF8DB
:100D80001950ADF8147005A91A4800F0C0F90020F8
:100D90008DF80E008DF80F0001208DF81000002056
:100DA000ADF80400ADF80600ADF80800ADF80A0093
:100DB000ADF80C0001208DF8110001A800F01AF91F
:100DC000012202210B4800F099F914208DF800004F
:100DD00004208DF8010000208DF8020001208DF81C
:100DE0000300684601F0CAF800200AB0BDE8F081AF
:100DF000000C02400064004000B585B000211A4894
:100E000000F00FFA10B9002005B000BD6A460021BD
:100E1000154800F015FA0098A0F20A20F8B99DF8DC
:100E20000C009DF80B1040EA012000B20F49088029
:100E30009DF80E109DF80D0041EA002000B20B490C
:100E400048809DF810109DF80F0041EA002000B284
:100E5000064988809DF8110040B2887100BF00BF2C
:100E60009DF80A00D0E700000068004078010020EB
:100E70002DE9F041074688461546002416480760CC
:100E800000201549087248720846857200BF06E0C6
:100E900018F8041010480B300155601C84B2AC42A5
:100EA000F6DB0D490D4800F043FA0646002401E048
:100EB000601C84B23146094800F0CEFA18B940F6F9
:100EC000FF708442F4DB40F6FF70844202DB0120B5
:100ED000BDE8F0810020FBE7E00902200068004047
:100EE0002DE9F0418AB004460D4616461F46DDF84E
:100EF00040800121022001F08DF90121880601F0D6
:100F000099F90121880601F0A5F900214FF08060D0
:100F100001F0A0F94FF44050089002208DF8240011
:100F200000208DF8260003208DF8250001208DF883
:100F3000270008A92D4800F066FD09220C212B4846
:100F400000F0A9FD09220D21284800F0A4FD002091
:100F50008DF81A0001208DF81B0000208DF81C0070
:100F60008DF81D008DF81E008DF81F008DF816807D
:100F70008DF817408DF818608DF81950ADF8147081
:100F800005A91B4800F0C3F80E208DF80E000020C4
:100F90008DF80F0001208DF810000020ADF804003E
:100FA000ADF80600ADF80800ADF80A00ADF80C0089
:100FB00001208DF8110001A800F01CF80122022187
:100FC0000B4800F09BF840208DF8000004208DF8BD
:100FD000010000208DF8020001208DF80300684612
:100FE00000F0CCFF00200AB0BDE8F0810004024010
:100FF0000068004010B50021837A012202FA03F153
:101000003D4A126842F001023B4B1A603A4A1C32D8
:1010100012688A43384B1C331A60027BCAB9364ABD
:101020000C3212688A43344B0C331A604288C388EE
:1010300042EA0343304A4032847A42F8343002882C
:10104000838842EA03432C4A4032847A02EBC4028A
:101050005360027B012A19D1274A0C3212680A43D5
:10106000254B0C331A604288038842EA0343224A24
:101070004032847A42F83430C288838842EA03439B
:101080001D4A4032847A02EBC4025360C27A3AB9F4
:10109000194A121D12688A43174B1B1D1A6006E07D
:1010A000154A121D12680A43134B1B1D1A60028950
:1010B00032B9114A143212688A430F4B14331A6042
:1010C0000289012A06D10C4A143212680A430A4BDB
:1010D00014331A60427B012A06D1074A1C32126877
:1010E0000A43054B1C331A60034A126822F00102BE
:1010F000014B1A6010BD0000006600401AB1436940
:101100000B43436102E043698B434361704730B551
:10111000024600200023146824F0020414601468BE
:1011200044F00104146000E05B1C546804F0010406
:101130001CB94FF6FF74A342F6D1546804F00104C1
:101140000CB900206CE08C79012C04D1146844F0B7
:101150008004146003E0146824F080041460CC79E7
:10116000012C04D1146844F04004146003E01468B6
:1011700024F0400414600C7A012C04D1146844F06B
:101180002004146003E0146824F0200414604C7AF6
:10119000012C04D1146844F01004146003E01468B6
:1011A00024F0100414608C7A012C04D1146844F0EB
:1011B0000804146003E0146824F008041460CC7A76
:1011C000012C04D1146844F00404146003E0146892
:1011D00024F0040414608C78A407CD7844EA0564F4
:1011E0000D7944EA05444D7944EA05540D886D1E95
:1011F0002C43D461146824F001041460002300E03F
:101200005B1C546804F001041CB14FF6FF74A34248
:10121000F6D1546804F001040CB1002000E0012074
:1012200030BD0246002019B9D36803F0030006E080
:10123000012903D1136903F0030000E00020704787
:1012400010B500F5D87303EB01131B6803F004031A
:101250001372137A53B900F5D87303EB01131B68AB
:1012600040F2FF7404EA5353136009E000F5D873A9
:1012700003EB01131B686FF0604404EAD30353606F
:1012800000F5D87303EB01131B6803F002035372DC
:1012900000F5D87303EB01135B6803F00F0393723F
:1012A00000F5D87303EB01135B681B0AD37400F5D8
:1012B000D87303EB01139B68D37200F5D87303EB6B
:1012C00001139B681C0A147300F5D87303EB011318
:1012D0009B681C0C547300F5D87303EB01139B68D7
:1012E0001B0E937300F5D87303EB0113DB68D37304
:1012F00000F5D87303EB0113DB681C0A147400F5C6
:10130000D87303EB0113DB681C0C547400F5D8731D
:1013100003EB0113DB681B0E937421B9C36843F020
:101320002003C36003E0036943F02003036110BDA1
:1013300010B502460020936803F08063B3F1806F1C
:1013400000D110E0936803F00063B3F1006F01D1A6
:10135000012008E0936803F08053B3F1805F01D16E
:10136000022000E00420042874D002F5C07303EBCF
:1013700000131B6803F0010402F5C07303EB0013B4
:101380001C600B7A7BB94B7A0C8843EA445302F514
:10139000C07404EB00142468234302F5C07404EB0A
:1013A0000014236010E00B7A4C6843EAC4034C7AC3
:1013B000234302F5C07404EB00142468234302F5B0
:1013C000C07404EB001423608B7A03F00F038B725C
:1013D00002F5C07303EB00135B6823F00F0402F502
:1013E000C07303EB00135C6002F5C07303EB0013E2
:1013F0005B688C7A234302F5C07404EB00146360CD
:101400008B7B1C064B7B44EA03440B7B44EA03239F
:10141000CC7A234302F5C07404EB0014A3608B7CE8
:101420001C064B7C44EA03440B7C44EA0323CC7B3C
:10143000234302F5C07404EB0014E36002F5C073AB
:1014400003EB00131B6843F0010402F5C07303EBC8
:1014500000131C6010BD000010B50246002321B12E
:10146000012907D002290FD109E090681D4C00EA3C
:1014700004030BE090681C4C00EA040306E090684B
:101480001A4C00EA040301E0002300BF00BF184C1F
:10149000181BA34216D007DC83B16FF0806018449C
:1014A00070B1022818D111E0B0F5007F10D0114CB6
:1014B000204448B1B0F5003F0ED10BE002230DE00F
:1014C00000230BE0002309E0002307E0012305E0EF
:1014D000012303E0012301E0002300BF00BFD8B2D5
:1014E00010BD00000300000400030008000003100A
:1014F000000100080001FFF710B500F07FFB1D4957
:1015000008600846006820B941F2883000F036F8DB
:101510002EE01848006801280BD141F6583000F041
:101520002DF8012003F002FF4FF4E6701249088005
:101530001EE01048006802280BD142F2283000F06B
:101540001DF8022003F0F2FE4FF407700A490880EC
:101550000EE00848006803280AD142F6E06000F077
:101560000DF8022003F0E2FE4FF4207002490880DB
:1015700010BD000018020020FE0000207CB50546CA
:10158000ACB220128DF80000E0B28DF8010002220A
:1015900069464FF40470FFF76FFB7CBD10B511492D
:1015A000114800F0B3F9D8B14FF081510E4800F066
:1015B000C1F80C490C4800F0D7F80C4800F024FBA7
:1015C000C8210A48FFF735F8002400BF05E00749A5
:1015D000085D01F0CFFB601CC4B2642CF7DB00BFD8
:1015E00010BD00000080201040640240450A022027
:1015F00010B54B494B4800F089F900287ED04A4984
:10160000484800F097F84649464800F0ADF847488A
:1016100000784649497840EA0120C0F30A0044496D
:10162000086042484078C0104049897840EA41103B
:10163000C0F30A003E4948603C48807880113B492D
:10164000C97840EA81003949097940EA8120C0F32C
:101650000A00374988603548007940103349497994
:1016600040EAC110C0F30A003149C8602F484079F0
:10167000C0F3011008752D484079001180084875A5
:101680002A4880792949C97940EA012000B22849CD
:10169000C8822648007A2549497A40EA012001B2E9
:1016A000234801832148807A2049C97A40EA0120F1
:1016B00001B21F4841831D48017B1D4801771B482B
:1016C000417B1B4841771948807B1849C97B40EA18
:1016D00001201749C8831548007C1449497C40EA19
:1016E00001201349086108460068A0F58060086081
:1016F00008464068A0F58060486000E00EE00846BB
:101700008068A0F5806088600846C068A0F58060A9
:10171000C86008460069A0F58060086110BD00003F
:101720000088002088640240000800200C0A022083
:10173000250A02200246094B9A4201D2084801E0DC
:101740000648103801F000531BB1064B0B40C36034
:1017500002E0044B0B4083607047000010640240BD
:10176000006002407D0F7D0F0246094B9A4201D274
:10177000084801E00648103801F000531BB1064B41
:101780000B40C36002E0044B0B40836070470000D5
:1017900010640240006002407D0F7D0F21B102689D
:1017A00042F00102026003E0026822F001020260DE
:1017B00070470000016821F0010101600021016013
:1017C00041608160C1600161212141614A498842D3
:1017D00004D13D21484A103A91608CE046491831C5
:1017E000884205D14FF47461434A103A916082E017
:1017F00041493031884205D14FF474113E4A103AC4
:10180000916078E03C494831884205D14FF07461DD
:10181000394A103A91606EE037496031884204D10C
:101820003649354A103AD16065E03349783188420B
:1018300004D13349304A103AD1605CE02E499031EE
:10184000884204D12F492C4A103AD16053E02A49EA
:10185000A831884205D14FF03D51274A103AD16056
:1018600049E02949884204D13D21274A083A1160BC
:1018700041E025491831884205D14FF47461224A6C
:10188000083A116037E020493031884205D14FF4E1
:1018900074111D4A083A11602DE01B4948318842F5
:1018A00005D14FF07461184A083A116023E01649D7
:1018B0006031884204D11149134A121F11601AE0A5
:1018C00011497831884204D10D490F4A121F116025
:1018D00011E00D499031884204D10A490A4A121F89
:1018E000116008E00849A831884204D14FF03D5109
:1018F000054A121F11607047106002403D00002031
:10190000400F002000003D201064024070B50246E8
:10191000002000240025124EB24201D2114B01E0FA
:101920000F4B103B104E0E4036B11E2606EAD12456
:10193000166806EA040502E0566906F0800501F023
:1019400000560EB15C6800E01C68084E344004EAA2
:10195000010616B10DB1012000E0002070BD0000AD
:1019600010640240006002403C0F3C0F7D0F7D0F71
:1019700010B501F080034BB122B1436943F08003FD
:10198000436103E0436923F08003436180290BD066
:101990002AB1036801F01E042343036004E00368D6
:1019A00001F01E04A343036010BD000010B5002227
:1019B0000268134B1A40CC680B6823434C692343DD
:1019C0008C692343CC6923430C6A23434C6A234329
:1019D0008C6A23434C6B23438C6B23431A43026072
:1019E000426922F00702D1E90B3423431A434261D2
:1019F0000B6943604B6883608B68C36010BD000057
:101A00003F801CF07047F0B50A46002100230024F7
:101A100000BF3DE0012505FA01F3156805EA03045E
:101A20009C4234D105684F000326BE40B543056093
:101A300015794E00B5400668354305601579012DCE
:101A400002D01579022D16D185684F000326BE40BD
:101A5000B543856055794E00B5408668354385604D
:101A6000456801268E40B5434560456896798E40AD
:101A7000B6B235434560C5684F000326BE40B54346
:101A8000C560D5794E00B540C6683543C560491C70
:101A90001029BFD3F0BDF0B5002300244D07ED0E93
:101AA00002FA05F3CE1000F1200555F826504E0736
:101AB000F70E0F26BE40B543CF1000F1200646F8C2
:101AC0002750CE1000F1200555F8265045EA0304B2
:101AD000CE1000F1200545F82640F0BD4183704747
:101AE0000183704730B5034613B94FF6FF7030BD20
:101AF00009E013F8014B82EA0400C0B2054D35F845
:101B0000100080EA2222081EA1F10101F1D1104645
:101B1000EDE70000D8B1000830B5034605E013F842
:101B2000010B80EA02040448025D081EA1F10105D0
:101B3000A9B2F4D1104630BDD7B0000800BFFEE70F
:101B400010B500F047F905F0E9F810BD0EB502AA8E
:101B500001A9684604F0D6FF00B10EBD9DED000A54
:101B60000E48D0ED000A30EE600A0D4880ED000A04
:101B70009DED010A0948D0ED010A30EE600A0848DF
:101B800080ED010A9DED020A0448D0ED020A30EE14
:101B9000600A034880ED020A00BFDEE7000A022067
:101BA000F409022010B51048D0F802000F4908606F
:101BB0000F4890ED000A0846D0ED000AB4EE600A26
:101BC000F1EE10FA0AD00B480088401C0949088041
:101BD000064890ED000A064880ED000A08F03EFA3B
:101BE0000549086010BD0000AF000020D0000020B3
:101BF000D4000020BE000020C8000020014840782A
:101C0000704700003C0602202DE9F0410446002503
:101C1000002714B90120BDE8F0815E482168016009
:101C2000217901712078A52872D10521204601F083
:101C30005FFC01286DD1607800F10906314620462D
:101C400001F036FC0128F5D101256079A17940EA3F
:101C5000012740F20121781A8F423CD012DC40F279
:101C60000111A7EB01008F4224D006DC012F11D017
:101C7000022F16D0032F61D117E001281FD00228B0
:101C80005CD123E0072859D2DFE800F0582B313728
:101C90003B444E004048B4F807100180617A8170DF
:101CA0004CE03E48E179017048E03D48B4F8071047
:101CB000018043E03B48D4F8071001603EE03A4819
:101CC000B4F807100180617A817037E03748B4F8C2
:101CD0000710018032E00F22E11D3548FEF72AFC93
:101CE0002CE00E22E11D3348FEF724FC26E01022F2
:101CF000E11D3148FEF71EFC20E03048E17901701B
:101D00001CE02F48B4F807100180617A817015E05B
:101D100035E024E02B48E17901700078000910B922
:101D200001202949087009E02848D4F8071001600B
:101D3000B4F80B108180FFF735FF00BF00BF1548D6
:101D4000B0F80110E01D08448078A52807D111499A
:101D5000B1F80120E11D1144881CFFF755FF0D4823
:101D6000B0F80110E01D08448078A52807D1094982
:101D7000B1F80120E11D1144881CFFF745FF012D3A
:101D800003D101201249087002E0002010490870B8
:101D9000284640E7B50000209C0000209F0000205E
:101DA000A0000020A2000020A6000020A900002022
:101DB0003C0602204B06022059060220AB00002000
:101DC000AC000020AE000020C0000020AF000020CA
:101DD000BA00002010B580216B2000F0A4F832205A
:101DE00003F08AFB00216B2000F09DF8182000F022
:101DF00085F8002000F074F8042000F086F8322006
:101E000000F08AF8002000F072F80021382000F07D
:101E10008AF88021372000F086F801216B2000F03D
:101E200082F800216C2000F07EF8322000F074F877
:101E300010BD2DE9F04106460C46154600F01EF88F
:101E400046F0800000F022F85DB1002706E0FF2098
:101E500000F01CF82070641C781CC7B2AF42F6DB9F
:101E600000BF00F003F8BDE8F081000010B540218C
:101E70000148FFF735FE10BD0014024010B54021A7
:101E80000148FFF72BFE10BD0014024070B5054657
:101E9000002405E0601CC4B2C82C01DD002070BD28
:101EA00002210E4800F0FEFB0028F3D029460B4823
:101EB00000F004FC002405E0601CC4B2C82C01DD65
:101EC0000020ECE70121054800F0ECFB0028F3D0EE
:101ED000024800F0F0FBC0B2E1E700000050014012
:101EE00010B5044621461C2000F01DF810BD10B5A9
:101EF00004462146232000F016F810BD10B5044614
:101F000021461B2000F00FF810BD10B504462146F5
:101F10001A2000F008F810BD10B50446214619201B
:101F200000F001F810BD70B505460C46FFF7A6FF9E
:101F30002846FFF7ABFF2046FFF7A8FFFFF796FF05
:101F400070BD2DE9F04107460C461546FFF796FF98
:101F50003846FFF79BFF55B1002605E02078FFF7D4
:101F600095FF641C701CC6B2AE42F7DB00BFFFF7E2
:101F70007DFFBDE8F08100BFFEE7704770B500212E
:101F800000230F22C4781CB3174C246804F4E064C7
:101F9000C4F5E064C4F30721C1F10404E3B20A41CB
:101FA00044789C40E1B28478144021430C07210E10
:101FB0000E4C05786155047804F01F050124AC40EF
:101FC00005786D11AD0005F1E025C5F8004109E087
:101FD000047804F01F050124AC40054D0678761105
:101FE00045F8264070BD00000CED00E000E400E084
:101FF00080E100E002490143024A1160704700009D
:102000000000FA050CED00E000B58BB00121084698
:1020100000F000F90121102000F0FCF80121084631
:1020200000F028F9012208217448FFF734FD01224D
:102030000E217348FFF72FFD4FF4807009900220A6
:102040008DF8280000208DF829008DF82A008DF8E1
:102050002B0009A96948FFF7D6FC4FF4804009908E
:1020600009A96748FFF7CFFC0121084600F012F9E3
:102070000021012000F00EF944F61F600790B32004
:10208000ADF818000020ADF81A00ADF8200006A940
:102090005C4800F039FD6020ADF804000120ADF887
:1020A00006000020ADF81000ADF808000820ADF8DB
:1020B00012004001ADF814000020ADF816004FF4F6
:1020C0007A70039001A94F4800F088FC01A94D489F
:1020D00000F0CCFC08214B4800F0BEFC0821494828
:1020E00000F000FD0121474800F030FC0121454887
:1020F00000F04AFC0121434800F03AFC06F08CFC59
:102100000121202000F086F84FF480600990002023
:102110008DF828008DF82A0003208DF82900012071
:102120008DF82B0009A93848FFF76DFC4FF480614A
:102130003548FFF7D5FC0121080200F06BF80121BA
:10214000022000F097F8032205213048FFF7A3FC96
:102150002020099002208DF8280000208DF8290009
:102160008DF82A008DF82B0009A92848FFF74BFCB1
:102170000121022000F08EF80021022000F08AF8F0
:1021800044F61F600790B320ADF818000020ADF8AA
:102190001A00ADF8200006A91D4800F0B5FC60202B
:1021A000ADF804000120ADF806000020ADF81000E5
:1021B000ADF808000820ADF812004001ADF8140099
:1021C0000020ADF816004FF47A70039001A9104872
:1021D00000F004FC08210E4800F03EFC01210C48F0
:1021E00000F0B4FB01210A4800F0CEFB01210848B1
:1021F00000F0BEFB06F006FC0BB000BD0000024084
:102200000010024000000140001402400020024083
:102210000004014029B1064A12680243044B1A60C7
:1022200004E0034A12688243014B1A6070470000C1
:102230003038024029B1064A12680243044B1A6042
:1022400004E0034A12688243014B1A6070470000A1
:102250004038024029B1064A12680243044B1A6012
:1022600004E0034A12688243014B1A607047000081
:102270002038024029B1064A12680243044B1A6012
:1022800004E0034A12688243014B1A607047000061
:102290004438024029B1064A12680243044B1A60CE
:1022A00004E0034A12688243014B1A607047000041
:1022B00024380240F0B50021002200240225002627
:1022C0000223324F3F6807F00C0121B1042905D0E9
:1022D000082937D105E02E4F076036E02D4F076003
:1022E00033E02A4F3F1F3F68C7F38056274F3F1FF9
:1022F0003F6807F03F036EB1264FB7FBF3F7DFF8F7
:102300008CC0ACF1040CDCF800C0CCF3881C07FBDB
:102310000CF40CE01E4FB7FBF3F7DFF870C0ACF124
:10232000040CDCF800C0CCF3881C07FB0CF4174F3E
:102330003F1F3F68C7F301477F1C7D00B4FBF5F7E3
:10234000076002E0124F076000BF00BF0F4F3F68F9
:1023500007F0F0010909104F7A5C0768D740476021
:102360000A4F3F6807F4E051890A0B4F7A5C4768CF
:10237000D7408760054F3F6807F46041490B064F1F
:102380007A5C4768D740C760F0BD0000083802405B
:102390000024F400001BB7001400002010B52DED40
:1023A000048B5C48B0F9000041F20401884231DB43
:1023B0005848B0F9000008F006FB41EC190B9FEDFE
:1023C000560B53EC102B08F077F941EC180B9FEDEE
:1023D000540B53EC102B08F0E3FC534A03C2524851
:1023E00090ED000B53EC102B9FED500B51EC100BAC
:1023F00008F000FB41EC190B9FED4E0B53EC102B3A
:1024000008F0B2F841EC180B08F0AEFA00B24B49F4
:1024100008807BE03F48B0F9000040F6EC6188425C
:1024200033DA3C48B0F9000008F0CDFA41EC190B62
:1024300053EC192B9FED380B51EC100B08F03CF9C5
:1024400041EC180B9FED360B53EC102B08F0A8FC59
:10245000354A03C2344890ED000B53EC102B9FED2E
:10246000380B51EC100B08F0C5FA41EC190B9FED3D
:10247000310B53EC102B08F077F841EC180B08F0F7
:1024800073FA00B22D49088040E02248B0F90000FC
:1024900040F6EC61884239DB1E48B0F9000041F299
:1024A0000401884232DA1B48B0F9000008F08BFAC8
:1024B00041EC190B53EC192B9FED170B51EC100B42
:1024C00008F0FAF841EC180B9FED150B53EC102BAC
:1024D00008F066FC144A03C2134890ED000B53EC5D
:1024E000102B9FED170B51EC100B08F083FA41EC09
:1024F000190B9FED100B53EC102B08F035F841EC45
:10250000180B08F031FA00B20C490880BDEC048BBE
:1025100010BD000060020020000000000004B04078
:10252000000000000000F03F6802002000000000F2
:1025300000409F40000000000088B34022020020BD
:102540000000000000909A4000B587B001212020D3
:10255000FFF760FE01210220FFF75CFE0121080564
:10256000FFF788FE4FF46070059002208DF8180088
:1025700000208DF81A0003208DF8190000208DF836
:102580001B0005A93448FFF73EFA4FF48070059010
:1025900002208DF8180000208DF81A0003208DF815
:1025A000190000208DF81B0005A92C48FFF72BFA15
:1025B0004020059001208DF8180000208DF81A00A9
:1025C00003208DF8190000208DF81B0005A9224872
:1025D000FFF719FA052207211F48FFF75CFA0522C9
:1025E00006211D48FFF757FA052209211A48FFF76F
:1025F00052FA052208211848FFF74DFA0121080573
:10260000FFF748FE00214FF48010FFF743FE002043
:10261000ADF800004FF48270ADF802000020ADF874
:102620000400ADF80600ADF808004FF40070ADF8F6
:102630000A003020ADF80C000020ADF80E000A2092
:10264000ADF810006946064800F03AF80121044848
:1026500000F01CF807B000BD001402400004024066
:102660000050014010B50446074800884FF6C77176
:102670000840054908800846008820430880012159
:10268000014800F003F810BD0050014021B102885C
:1026900042F04002028004E002884FF6BF731A4005
:1026A000028070470246002013890B400BB10120C5
:1026B00000E000207047014688897047818170479B
:1026C00010B50022028802F441520B884C88234343
:1026D0008C882343CC8823430C8923434C89234390
:1026E0008C892343CC8923431A430280838B4FF286
:1026F000FF74234083830B8A038210BD0CB5002036
:10270000019000904148006840F480303F490860E3
:1027100000BF3E48006800F4003000900198401C63
:102720000190009818B90198B0F5A04FF1D1374841
:10273000006800F4003010B10120009001E000209A
:1027400000900098012860D130484030006840F087
:1027500080502E49403108602D48006840F44040C8
:102760002B4908602948083000682849083108606A
:102770000846006840F4004008600846006840F4DD
:10278000A05008602348091F0860081F006840F037
:102790008070091F086000BF1C48006800F00070CE
:1027A0000028F9D01A48006840F4803018490860C1
:1027B00000BF1748406800F480300028F9D0144862
:1027C000006840F400301249086000BF10484068BB
:1027D00000F400300028F9D040F205700E4908607E
:1027E0000A480830006820F00300084908310860F2
:1027F0000846006840F00200086000BF0348083047
:10280000006800F00C000828F8D10CBD0038024028
:1028100000700040062D4008003C0240042808D10A
:102820004FF0E021096941F004014FF0E02211610D
:1028300007E04FF0E021096921F004014FF0E022A8
:102840001161704710B507F0F9FB012801D007F0BE
:10285000A3F810BD10B51548006840F47000134986
:1028600008601348006840F001001149086000202A
:102870000F49083108600E4800680E4908400C49AD
:1028800008600D48091D0860081F006820F48020BA
:10289000091F0860002006490C310860FFF72EFF71
:1028A0004FF0006001498039086010BD88ED00E0FC
:1028B00000380240FFFFF6FE103000240EB56946D6
:1028C0004FF0804000F020F901210846FFF7B2FCEC
:1028D0005420ADF800000020ADF8020042F2107064
:1028E00001900020ADF808000121880700F040F8B1
:1028F00069464FF0804000F007F90EBD10B5012188
:10290000084800F050F860B10121064800F02AF8AC
:10291000054802684068521C40F1000002490A6004
:10292000486010BD00040040A802002010B501213D
:10293000054800F038F8012801D1FFF707F9012117
:10294000014800F012F810BD000C004021B10288CF
:1029500042F08002028004E002884FF67F731A4042
:1029600002807047CA4302827047CA43028270479E
:1029700021B1028842F00102028004E002884FF691
:10298000FE731A400280704731B1B0F8442042F41F
:102990000042A0F8442005E0B0F84420C2F30E0243
:1029A000A0F84420704730B50246002000230024E0
:1029B000158A05EA0103958905EA010413B10CB1F2
:1029C000012000E0002030BD1AB183890B438381D0
:1029D00002E083898B4383817047000070B5002437
:1029E00000220023058C4FF6FE7635400584028CCC
:1029F0008388048B4FF68F752C40B51E2C400D88B4
:102A00002C43751E2A408D892A434D882A43104D38
:102A1000A84202D00F4DA84213D14FF6F7752A40B5
:102A2000CD892A434FF6FB752A408D882A434FF6FD
:102A3000FF652B404FF6FF552B400D8A2B434D8AE7
:102A40002B43838004838D684563028470BD00003E
:102A500000000140000401400A460021018B4FF6AE
:102A6000F7731940114301837047000070B50022CD
:102A700000230024058C4EF6FF7635400584038C38
:102A80008488828B48F6FF752A404FF6FF452A401E
:102A90000D884FF6FF7606EA05252A434DF6FF75A9
:102AA0002B408D8906EA05352B434D8806EA05350E
:102AB0002B430A4DA84202D0094DA84208D14BF63B
:102AC000FF752C400D8A4FF6FF7606EA85152C43DC
:102AD000848082838D680564038470BD000001409A
:102AE000000401400A460021818B4FF2FF73194018
:102AF0004FF6FF7303EA0223194381837047416352
:102B0000704701647047000000220288184B984209
:102B10000ED0184B98420BD0B0F1804F08D0164B16
:102B2000984205D0154B984202D0154B984204D1DB
:102B30004FF68F731A404B881A43124B984207D0B6
:102B4000114B984204D04FF6FF431A400B891A43A9
:102B500002804B68C3620B880385054B984202D004
:102B6000044B984201D18B7A0386012383827047FC
:102B70000000014000040140000400400008004043
:102B8000000C004000100040001400401FB5044637
:102B900001210820FFF74EFB029440F25130ADF8BE
:102BA00004000020ADF80600ADF80C0001A90D48A6
:102BB000FFF7AAFF012211460A48FFF705FF01218E
:102BC0000848FFF7D5FE32208DF8000003208DF86D
:102BD00001008DF8020001208DF803006846FFF720
:102BE000CDF91FBD000C004010B51748FEF7E2FDFF
:102BF0004FF00060154908600020C8601448486024
:102C0000144888600020C860642008610020486182
:102C10004FF4806088610020C86108624FF48070C2
:102C200048624FF4403088620420C8620320086381
:102C30000020486388630448FEF7B8FE012102487B
:102C4000FEF7ACFD10BD000040600240740B022096
:102C500004780040100B022010B540F224410C48CB
:102C600000F061FB90B10A4800880A4908600848F2
:102C7000001D00880860064800F00EFCC4B2204623
:102C800000F078F801210448FEF788FD10BD00002F
:102C900000780040B00200204060024000B587B0DC
:102CA00001211020FFF7B6FA01218807FFF7C2FAC9
:102CB000082211462D48FEF7EEFE082207212B4878
:102CC000FEF7E9FE4FF48070019002208DF80800B5
:102CD00000208DF80A0003208DF8090001208DF8EE
:102CE0000B0001A92148FEF78EFE4FF48070019081
:102CF00001A91E48FEF787FE4FF4E1300390002043
:102D0000ADF81000ADF81200ADF814000C20ADF8CD
:102D100016000020ADF8180003A9154800F052FB7A
:102D20000121134800F064FA012240F224411048C6
:102D300000F023FB012240210D4800F065FA01223A
:102D400080210B4800F060FAFFF74EFF52208DF80B
:102D5000000000208DF801008DF8020001208DF8A0
:102D600003006846FFF70AF907B000BD00100240F3
:102D70000078004010B504462146054800F091FB5C
:102D800000BF4021024800F0C1FA0028F9D010BD70
:102D90000078004010B540F22551214800F0C3FAF8
:102DA00090B320211E4800F00BFA40F225511C4838
:102DB00000F00FFA1A4800F06FFBC1B21948027810
:102DC0000078401C174B187017488154184600783B
:102DD0000F381549085CAA2816D118460078401EFD
:102DE000085CBB2810D1002404E00F48005D0F49A7
:102DF0000855641C0B4800788442F6DB0020094922
:102E0000087001200A4908701021054800F07EFA78
:102E100028B1002240F22441014800F0AEFA10BD72
:102E2000007C0040B4020020BC0B0220200C0220D9
:102E3000B502002000B587B001211020FFF7EAF9A4
:102E40000121C807FFF7F6F9082201212B48FEF7F8
:102E500022FE082200212948FEF71DFE02200190D3
:102E60008DF8080000208DF80A0003208DF8090075
:102E700001208DF80B0001A92048FEF7C4FD0120B8
:102E8000019001A91D48FEF7BEFD4FF4E13003900B
:102E90000020ADF81000ADF81200ADF814000C20C1
:102EA000ADF816000020ADF8180003A9144800F092
:102EB00089FA0121124800F09BF9012240F22441D5
:102EC0000F4800F05AFA012240F225510C4800F058
:102ED00054FA012240210A4800F096F953208DF857
:102EE000000000208DF801008DF8020001208DF80F
:102EF00003006846FFF742F807B000BD001002402B
:102F0000007C004000B597B001214848FFF782F9E6
:102F100001211020FFF7AEF9072211464448FEF7C1
:102F2000BAFD8020119002208DF8480000208DF815
:102F30004A0003208DF8490000208DF84B0011A9AC
:102F40003B48FEF760FD3B4800F068F93A481390B3
:102F50000020ADF85000ADF852004FF48060ADF89D
:102F600054000420ADF856000020ADF8580013A915
:102F7000304800F027FA002240F225512D4800F099
:102F8000FCF901212B4800F033F9012240212948A6
:102F900000F03AF944208DF8400001208DF84100FE
:102FA00000208DF8420001208DF8430010A8FEF7A4
:102FB000E5FF00212148FEF7F1FB00BF1F48006834
:102FC00000F001000028F9D11C48FEF7F3FB4FF098
:102FD000006001901748001D0290194803900020DE
:102FE000049012200590002006904FF48060079016
:102FF0000020089009904FF480700A904FF4403000
:103000000B9000200C900D900E900F9001A90B4892
:10301000FEF7CCFC012210210848FEF7A9FC012193
:103020000648FEF7BBFB17B000BD000002004000E1
:103030000004024000100140A086010088640240A4
:103040000C0A022010B540F22551054800F06BF93A
:1030500020B140F22551024800F0BBF810BD00003D
:103060000010014010B596B0044601214020FFF742
:10307000D1F801212020FFF7FDF808220921454859
:10308000FEF709FD08220E214248FEF704FD4FF429
:103090008440149002208DF8540003208DF85500D0
:1030A00000208DF8560001208DF8570014A93948EA
:1030B000FEF7A9FC4FF4E13010900020ADF8440079
:1030C000ADF84600ADF84800ADF84C000C20ADF866
:1030D0004A0010A9304800F075F901212E4800F08F
:1030E00087F8012240212C4800F08EF840212A4820
:1030F00000F066F8002240F22551274800F03DF923
:103100003A208DF83C0003208DF83D008DF83E00FC
:1031100001208DF83F000FA8FEF730FF00211F4867
:10312000FEF73CFB00BF1D48006800F001000028CE
:10313000F9D11A48FEF73EFB4FF020600090164888
:10314000001D019016480290002003906420049016
:10315000002005904FF480600690002007900890B2
:103160004FF4807009904FF440300A9000200B908B
:103170000C900D900E9069460848FEF717FC01224E
:1031800010210648FEF7F4FB01210448FEF706FB78
:1031900016B010BD00180240001401404064024007
:1031A000450A022010B540F22551044800F0BBF852
:1031B00040F22551014800F00CF810BD0014014008
:1031C00001F40072B2F5007F00D100BFCA43028053
:1031D000704710B50022002340F66A14A14200D1C6
:1031E00000BF0A1201249440A3B2DC43048010BD46
:1031F00021B1828942F40052828104E082894DF635
:10320000FF731A40828170471AB1838A0B4383820D
:1032100002E0838A8B4383827047000010B5044626
:103220003248844208D101211020FFF733F80021F1
:103230001020FFF72FF857E02D48844209D10121D3
:103240004804FFF707F800214FF40030FFF702F8B9
:103250004AE02848844209D101218804FEF7FAFF98
:1032600000214FF48020FEF7F5FF3DE02248844224
:1032700009D10121C804FEF7EDFF00214FF4002021
:10328000FEF7E8FF30E01D48844209D1012108051E
:10329000FEF7E0FF00214FF48010FEF7DBFF23E094
:1032A0001748844208D101212020FEF7F3FF0021B6
:1032B0002020FEF7EFFF17E01248844209D10121D8
:1032C0008807FEF7C7FF00214FF08040FEF7C2FFDE
:1032D0000AE00D48844207D101214005FEF7BAFFFC
:1032E00000216005FEF7B6FF10BD00000010014090
:1032F0000044004000480040004C004000500040A6
:103300000014014000780040007C0040024600208C
:10331000B1F5007F00D100BF13880B400BB1012035
:1033200000E00020704770B502460024002300250D
:10333000002040F66A16B14200D100BFC1F3421529
:1033400001F01F03012606FA03F3012D02D196892D
:10335000334006E0022D02D1168A334001E0968AFE
:1033600033400C12012606FA04F41688344013B1D7
:103370000CB1012000E0002070BDF0B50346002430
:1033800000260025002040F66A17B94200D100BF90
:103390001846C1F3421401F01F06012707FA06F58B
:1033A000012C01D10C3004E0022C01D1103000E0DE
:1033B00014301AB107682F43076002E00768AF4373
:1033C0000760F0BD2DE9FF4705460E460024A146E3
:1033D00000BFA046B08900B100BF2C8A24F440543D
:1033E000F08804432C82AC8941F20C608443B0889D
:1033F00031890843718908430443AC81AC8A24F4C1
:103400004074B0890443AC826846FEF753FF2048FD
:10341000854202D01F48854202D1DDF80C9001E0C0
:10342000DDF80890A88900F4004040B109EBC9001C
:1034300000EB091031684900B0FBF1F707E009EB38
:10344000C90000EB091031688900B0FBF1F7642076
:10345000B7FBF0F004012009642101FB1078A88972
:1034600000F4004040B1322000EBC800B0FBF1F0A6
:1034700000F00700044308E0322000EB081064214C
:10348000B0FBF1F000F00F0004432C81BDE8FF8792
:10349000001001400014014001468888C0F3080074
:1034A0007047C1F308028280704700BFFEE700004A
:1034B00070B505460C4600260DB1022C01D800203F
:1034C00070BDA11E094802882846FEF70BFB064680
:1034D000F1B2A01E285C814206D1601E285CB0EBD0
:1034E000162F01D10120EBE70020E9E7980000202A
:1034F00070B505460C4600260DB1022C01DC0020FB
:1035000070BD601E81B2FF222846FEF705FB06460D
:10351000601E285CB04201D10120F1E70020EFE7F6
:1035200003B401984100009850EAC12018BF04205C
:103530004A0D18BF40F0010040F2FF72B2EB515F3C
:1035400008BF40F00200012808BF052002B0704704
:103550004100080218BF04200A0E18BF40F0010005
:103560004FF07F4232EA010108BF40F0020001281B
:1035700008BF05207047014621F00040C0F1FF4020
:10358000C00F70470000000070B5C1482DED020B60
:103590002DED0E8B82B0119D25F000449FEDBEDB1A
:1035A0009FEDBFEB84423EDBA4F140511098A1F1A6
:1035B0007F6108430FD0BC48844202DC28D11098B8
:1035C00030B39DED100B02B0BDEC0E8B02B0BDE828
:1035D000704000F042BF9DED100B53EC1D2B51ECE1
:1035E000100B07F007FA9DED100B41EC180B53EC94
:1035F0001E2B51EC100B07F0FDF953EC182B06F0C5
:10360000B3FF41EC100B02B0BDEC0E8B02B070BDED
:103610000120FDF7B0F802B0BDEC0E8B02B0BDE8A2
:10362000704000F031BFA1489FEDA18B844256DA73
:103630009DED100BB4F1795F0ADA51EC100BFFF736
:103640006FFF042808BF00F02FFF9DED100BDAE795
:1036500053EC102B51EC100B07F0CCF941EC190B8B
:1036600095480621B0EE490AF0EE690A784400F068
:1036700078FE53EC192B51EC100B07F0BBF941EC21
:103680001A0B8E48B0EE490AF0EE690A042178441C
:1036900000F067FE53EC192B51EC100B07F0AAF960
:1036A00053EC182B06F060FF41EC100B51EC1A0B99
:1036B00053EC102B07F000F8CDE900019DED000B55
:1036C00053EC102B9DED100B51EC100B07F092F901
:1036D0009DED101B53EC112B06F046FFD2E09DED43
:1036E000100B51EC100B02F019FD53EC182B07F0E6
:1036F0007FFA9FED730BCDE9000153EC102B9DED8C
:10370000000B51EC100B07F075F941EC190B6E48EA
:103710000621B0EE490AF0EE690A784400F021FE75
:1037200053EC192B51EC100B07F064F941EC1B0B17
:103730006648B0EE490AF0EE690A0421784400F0C8
:1037400010FE53EC192B51EC100B07F053F953EC0E
:10375000182B06F009FF41EC1C0B51EC190B05F07E
:1037600047FC41EC180B5A489FED5BABA04222DCB2
:1037700053EC1C2B51EC1B0B06F09EFFCDE9000116
:103780009DED000B51EC180B53EC102B07F032F9A8
:1037900053EC182B06F0E8FE53EC1A2B07F02AF92D
:1037A00053EC1D2B07F0FCFA53EC1E2B07F020FA0C
:1037B00041EC100B5FE08DED008B002000909DED43
:1037C000000B51EC180B53EC102B06F0CDFE9DEDC9
:1037D000000B41EC1E0B53EC102B51EC100B07F0BF
:1037E00009F953EC192B07F003FA53EC1E2B06F0E2
:1037F00063FF41EC190B53EC1C2B51EC1B0B06F037
:103800005BFF41EC1B0B53EC1A2B51EC190B07F02F
:10381000F1F853EC1D2B07F0EBF941EC190B53ECCD
:103820001A2B51EC180B07F0E5F853EC1B2B07F0A3
:10383000E1F853EC192B07F0B3FA9DED000B41ECC6
:10384000180B53EC1A2B51EC100B07F0D3F89FED2B
:10385000249B53EC192B07F0CBF941EC100B51ECE6
:10386000180B53EC102B07F09BFA53EC192B07F0B5
:10387000BFF941EC100B002D3FF7C5AE51EC100B1A
:1038800006F034FE41EC100BBDE600000000000025
:103890000000F03F00000000075C143326A6913CB6
:1038A000182D4454FB21F93F0000F07F0000E03F59
:1038B000000000000000F03FD8890000E689000009
:1038C000000000000000E03F2A8900003889000065
:1038D0003333EF3F00000000000000000000004014
:1038E000182D4454FB21E93F70B59B482DED020B88
:1038F0002DED068B079D25F00044A04218DC97486B
:10390000844202DC0AD1069840B19DED060BBDEC65
:10391000068B02B0BDE8704000F09FBD002DCCBF0B
:103920009FED8F0B9FED900BBDEC068B02B070BD31
:103930008F48A04215DD8F48A042D8BF4FF0FF341A
:1039400058DD9DED060B51EC100BFFF7E9FD042847
:1039500008BF00F0A9FD9DED060BBDEC068B02B083
:1039600070BD9DED060B51EC100B02F0D7FBCDE9BD
:10397000060181489FED828BA0423CDD8248A04237
:103980001FDD00249FED82AB9DED060B53EC1A2B3F
:1039900051EC100B06F0E8FD9DED060B41EC190B08
:1039A00053EC1A2B51EC100B07F024F853EC182BA6
:1039B00007F0F6F953EC192B06F07EFECDE906016F
:1039C00049E09DED060B012453EC182B51EC100B34
:1039D00006F0CAFD9DED060B41EC190B53EC182BBC
:1039E00051EC100B07F0DCF953EC192B06F064FED8
:1039F000CDE906012FE06848A0421FDD02249FEDBB
:103A0000689B9DED060B53EC192B51EC100B06F047
:103A1000F1FF53EC182B06F0A7FD9DED060B41ECD2
:103A2000180B53EC192B51EC100B07F0B9F953ECB0
:103A3000182B06F041FECDE906010CE09DED060BCA
:103A4000032453EC102B9FED580B51EC100B06F098
:103A500033FECDE906019DED060B53EC102B51EC26
:103A6000100B06F0C7FF41EC180B53EC182B06F0B7
:103A7000C1FF41EC190B4E480621B0EE490AF0EEA9
:103A8000690A784400F06DFC53EC182B51EC100BD4
:103A900006F0B0FF41EC180B4648B0EE490AF0EED4
:103AA000690A0521784400F05CFC53EC192B51ECB9
:103AB000100B06F09FFF41EC100B51EC180B53EC70
:103AC000102B002C0EDA06F04FFD9DED061B53EC7B
:103AD000112B06F08FFF9DED061B53EC112B07F009
:103AE00087F835E006F040FD9DED061B53EC112BE9
:103AF00006F080FF41EC100B2F48784400EBC40027
:103B000090ED001B51EC100B53EC112B07F048F912
:103B10009DED061B53EC112B07F042F941EC100B05
:103B20002648784400EBC40090ED001B51EC100BCC
:103B300053EC112B07F05CF841EC100B002DA2BFE9
:103B4000BDEC068B02B070BD51EC100B06F0CEFC44
:103B500041EC100B01E70000000010440000F07F72
:103B6000182D4454FB21F93F182D4454FB21F9BF73
:103B70000000DC3F0000203E0000F33F000000009A
:103B8000000000000000F03F0000E63F00000000E1
:103B90000000000000000040008003400000000022
:103BA000000000000000F83F000000000000F0BF2F
:103BB0007A86000030860000BA8500007285000019
:103BC00070B56B4E2DED040B2DED028B82B0DDF840
:103BD0001CC0DDE905235C422CF000411C4341EA96
:103BE000D474049D22F00040B44205D86C422C43AA
:103BF00040EAD474B4420BD99DED061B9DED040B35
:103C000002B0BDEC028B04B0BDE8704000F02FBCE8
:103C1000ACF14054A4F17F641C430BD0022404EAAD
:103C2000AC7444EAD27405439FED538B9FED542B43
:103C300007D015E09DED040B51EC100B00F08EFE4B
:103C400042E0002C11BF012C9DED040B02B0BDEC35
:103C5000028B04BF04B070BD022C38D0032C3BD0C3
:103C60000B439FED491B9FED4A0B0AD0B14218D17F
:103C7000B04209D121F0804120F0804007910590A9
:103C80000FE0002A15DA10E0434B7B44002C08BFFC
:103C900093ED000B0DD0012C10D0022C17D0032C6B
:103CA0001AD0B0421DD1002A03DAB0EE410AF0EE7C
:103CB000610A02B0BDEC028B04B070BD93ED000B45
:103CC00051EC100B06F012FC41EC100BF1E7B0EEDA
:103CD000480AF0EE680AECE7B0EE420AF0EE620A3B
:103CE000E7E7401A00153C28C8BF8DED000B19DC32
:103CF000BCF1000FBEBF10F13C0F9FED290B8DED05
:103D0000000B0FDB9DED060B53EC102B9DED040B10
:103D100051EC100B06F0D0FC02F000FA00F01EFE91
:103D2000CDE90001002C08BF9DED000BC1D0012C96
:103D300010D0022C9FED1C0B53EC102B9DED000BB3
:103D400051EC100B0DD007F02BF853EC182B07F0AB
:103D500027F8B9E7019880F0004001909DED000B35
:103D6000A7E707F01DF853EC182B06F041FFABE76F
:103D70000000F07F00000000182D4454FB21094092
:103D8000182D4454FB2109C0182D4454FB21F9BFC0
:103D9000182D4454FB21F93FA284000000000000CC
:103DA0000000000000000000075C143326A6A13CC0
:103DB00010EE100A10B510EE901A4FF0684202EBA8
:103DC00040032DED028BB3F1654F3CBF02EB410286
:103DD000B2F1654F7CD200BFC0F3C753C1F3C752E5
:103DE0009A1A1B2A09DD10F0004F14BF9FED6E0ACE
:103DF0009FED6E0ABDEC028B10BD12F11A0F1BDA9B
:103E000011F0004F09D010F0004F0CBF9FED680A71
:103E10009FED680ABDEC028B10BD80EE208A18EE83
:103E2000100AFFF795FB042808BF00F05BFBB0EE1B
:103E3000480ABDEC028B10BD4200B2EB410F37D9EE
:103E400010F0004F19BFDFED5C1A9FED5C1ADFED3B
:103E50005C1A9FED5C1AB0EE602A0A46F1EE400A49
:103E600080F00041B0EE420A10460A1A5200B2F148
:103E7000807F34D2484010F0004FDFED532A9FED91
:103E8000533A1DBFBEEE002A71EEE21A31EE431A1C
:103E9000B6EE002A04BF71EEA21A31EE031AF0EE5C
:103EA000402A42EE602A40EE020A82EEA02A18E082
:103EB00011F0004F04BF9FED461AF0EE411AD4D026
:103EC00010F0004F1CBFDFED431A9FED431A00E0D6
:103ED00026E004BFDFED411A9FED411AC5E780EEF1
:103EE000202A22EE020ADFED3F0ADFED3F2ABDEC79
:103EF000028B40EE202ADFED3D0A40EE220ADFED84
:103F00003C2A40EE202ADFED3B0A40EE220A22EE58
:103F1000000A00EE201A31EE020A30EE210A10BD2E
:103F20004FF07F42B2EB400F28BFB2EB410F05D2FA
:103F3000BDEC028BBDE8104000F0C9BA40EA0103B5
:103F40005B0008BF41F0FF410BD0B2EB400F08BF50
:103F5000B2EB410F08D120F0804000EE100A21F0B2
:103F6000804100EE901A37E7B2EB400F12BF5FEAD4
:103F7000410240F0FF4001F000413FF42DAF4A0004
:103F800092EA40033FF528AF002AACBF9FED1A1A12
:103F90009FED1A1A20EE010A60EE810A10EE100A57
:103FA00010EE901A18E70000DB0FC9BFDB0FC93F06
:103FB000DB0F4940DB0F49C00000C9BF22AAFDB991
:103FC0000000C93F22AAFD390060ED3EC30ACE378A
:103FD00000000000000049C022AA7DBA000049404C
:103FE00022AA7D3A2DAD65BD8FB8D53D0FB511BE66
:103FF00061C84C3EA8AAAABE0000804F0000802FD6
:1040000010EE101A08B5444A6846B2EB410F28D9A1
:104010004FF0E640B0EB410F94BF00204FF0FF306F
:1040200000900098002861DB60EE000A10F0010F9C
:1040300045D010F0020FDFED391A9FED391A00EE6E
:10404000E11ADFED381A40EE811A21EEA01AF0EEE7
:10405000400A40EE010A08BFF1EE600AB0EE600AC5
:1040600008BD314B21F0004293423CD911F0004F82
:10407000DFED2E0A20EE201ADFED2D0A19BF31EEFA
:10408000601A71EE200A31EE201A71EE600ABDEE60
:10409000E01A11EE100A9FED271A00F0030000EE5F
:1040A000C10A9FED251A009000EEC10A9FED231A68
:1040B00000EEC10A9FED221A00EEC10AB1E79FEDA2
:1040C000211A9FED210A10F0020F00EE810A9FEDE8
:1040D0001F1A00EE801AB7EE000A00EE810A18BF20
:1040E000B1EE400A08BD00F005FA9AE710EE100A9A
:1040F0004000B0F17F4F3CBFB7EE000A08BD07D1CA
:104100004FF00100FCF737FBBDE8084000F0E2B9D2
:10411000BDE8084000F0D8B9B61F927E336D4C3927
:10412000DA82083CA0AA2ABE490E494683F9223FFA
:104130000000004B0000C93F00A0FD390020A23361
:104140001A61342CB93AB2BACA9F2A3DDDFFFFBECC
:1041500010B52DED028BB0EE608AF0EE408A18EEBD
:10416000101A18EE900A06F03DFF00F07040B0F112
:10417000005F0CD018EE100A20F00040C0F1FF40A4
:10418000C00F02BFB0EE480ABDEC028B10BDB0EE0E
:10419000680ABDEC028B10BD00B510EE101A2DEDB3
:1041A000028B81B0524A6846B2EB410F2ED94FF0D4
:1041B000E640B0EB410F94BF00204FF0FF3000907D
:1041C0000098B0EE408A00286ADB10F0010F4BD057
:1041D00068EE080A9FED471A9FED470A00EE810A34
:1041E0009FED461A10F0020F00EE801AB7EE000A9B
:1041F00000EE810A02BF01B0BDEC028B00BD00BF22
:1042000001B0B1EE400ABDEC028B00BD3C4B21F089
:104210000042934241D911F0004FDFED3A0A20EEFF
:10422000201ADFED390A19BF31EE601A71EE200A4B
:1042300031EE201A71EE600ABDEEE01A11EE100A9E
:104240009FED321A00F0030000EEC10A9FED301A14
:10425000009000EEC10A9FED2F1A00EEC10A9FEDFB
:104260002E1A00EEC10AABE728EE080A9FED2B1AC2
:10427000DFED2B0A10F0020F40EE410A9FED291AE4
:1042800000EE201A61EE000AB0EE480A08EE200A9D
:10429000B6D101B0BDEC028B00BD00F02BF98FE769
:1042A00018EE100A4000B0F17F4F0DD218EE100A40
:1042B000FFF74EF9042808BF00F014F9B0EE480AE1
:1042C00001B0BDEC028B00BD09D10120FCF753FA0F
:1042D00001B0BDEC028B5DF804EB00F0FBB801B05F
:1042E000B0EE480ABDEC028B5DF804EB00F0ECB8D0
:1042F000B61F927EB93AB2BACA9F2A3DDDFFFFBE11
:10430000490E494683F9223F0000004B0000C93F97
:1043100000A0FD390020A2331A61342C336D4C39D2
:10432000DA82083CA0AA2ABE10B52DED028BB1EEB0
:10433000C08A18EE100A20F00040C0F1FF40C00F04
:104340000AD010EE100A20F00040C0F1FF40C00F6C
:1043500004BF0120FCF70FFAB0EE480ABDEC028B57
:1043600010BD70B504462DED028B4D1E00EBC5004F
:10437000B0EE408AF0EE608A90ED000B35F006005A
:1043800017D053EC182B51EC100B06F033FB41EC1B
:10439000100B6D1E04EBC50090ED001B51EC100BD3
:1043A00053EC112B06F0E0F841EC100B35F0060051
:1043B000E7D1022D36D0042D1CD0062D1CBFBDEC3C
:1043C000028B70BD53EC182B51EC100B06F012FB56
:1043D00094ED0A1B53EC112B06F0C6F853EC182B86
:1043E00006F008FB94ED081B53EC112B06F0BCF80B
:1043F00041EC100B53EC182B51EC100B06F0FAFAB1
:1044000094ED061B53EC112B06F0AEF853EC182B71
:1044100006F0F0FA94ED040B53EC102B06F0A4F820
:1044200041EC100B53EC182B51EC100B06F0E2FA98
:1044300094ED021B53EC112B06F096F853EC182B5D
:1044400006F0D8FA94ED001B53EC112B06F08CF813
:10445000BDEC028B41EC100B70BD10B553EC102B72
:1044600051EC100B06F080F841EC100B10BD10B5AC
:1044700053EC112B51EC100B06F076F841EC100BBD
:1044800010BD0000000000009FED050B10B553ECBF
:10449000102B51EC100B06F00FF941EC100B10BD76
:1044A00000000000000000009FED050B10B553EC6C
:1044B000102B51EC100B06F09DFA41EC100B10BDC7
:1044C000000000000000001030EE000A704730EEDF
:1044D000200A7047DFED020A80EEA00A7047000054
:1044E000000000009FED020A20EE000A7047000065
:1044F000000000102DE9F0014FF07F42B2EB410FB8
:104500009FBF4FF0FF310160BDE8F00170474FF0F1
:10451000004242EA0123C1F3C752783A551112F022
:104520001F0C434CCCF120067C44C1F3C752A2F1CE
:1045300078024FEA621204EB820254F8254008BF69
:10454000D2E9015612D0556804FA0CF425FA06F7A0
:104550003C43976805FA0CF527FA06F8D26807FA83
:104560000CFCF24045EA08054CEA0206A4FB034CA9
:10457000A5FB0352A6FB03631D449D4234BF0126E5
:1045800000261319334416B1934202D903E0934233
:1045900001D2012200E00022624402F1200C9206C6
:1045A000DC0C42EA443200EE102A5B03DFED210A04
:1045B000F8EEC01A00EE103A4FEA9C1C11F0004FC2
:1045C000B8EE400AC0F800C020EE201A00EE105AE3
:1045D000DFED190AB8EE400A20EE200A71EE810ADA
:1045E00070EE800A10EE902A02F500626FF30B0263
:1045F00000EE902A70EEE11A31EEC11ADFED101ACA
:1046000030EE411A9FED0D0A20EE800A01EE210ADC
:104610009FED0C1A00EE810A04BFBDE8F00170475F
:10462000CCF180510160BDE8F001B1EE400A704765
:104630000C7C0000000000360000802C22AAFD291E
:10464000DB0FC92F0000C92F00BF704710B52DED3B
:104650000C8B04F081FD04F09DFD01218807FEF71D
:1046600087F99B49B1F91810C80006F0ACF941EC84
:10467000190B9749C86806F0A6F941EC1B0B9FED92
:10468000950B53EC102B06F0B5F941EC1A0B53ECDB
:10469000192B05F069FF41EC180B06F065F900B223
:1046A0008E4908808A49B1F9161001EB810006F0A5
:1046B0008AF941EC190B8649886806F084F941ECC7
:1046C0001B0B9FED870B53EC102B06F093F941EC7D
:1046D0001A0B53EC192B05F047FF41EC180B06F0B1
:1046E00043F900B2804908807949B1F9161001EB0D
:1046F000810006F068F941EC1A0B7549886806F0EC
:1047000062F941EC1C0B9FED790B53EC102B06F07A
:1047100071F941EC1B0B53EC1A2B05F025FF41EC12
:10472000190B05F0E3FE41EC180B06F01DF900B281
:10473000704908806C48B0F90000404206F043F927
:1047400041EC190B9FED660B53EC102B06F052F960
:1047500041EC180B06F008F900B2674908805F4881
:10476000B0F9000006F02FF941EC190B9FED5C0B3E
:1047700053EC102B06F03EF941EC180B06F0F4F860
:1047800000B25E4908805548008880B35C48B0F9A3
:104790000000B1F9001008445A49B1F900108842EC
:1047A00014DC5748B0F900005449B1F9001008442E
:1047B0005549B1F90010884208DB514800884F493B
:1047C0000988084400B24E49088016E04C48B0F908
:1047D00000004A49B1F9001008444A49B1F90010F3
:1047E000884205DD4748B0F900004549088004E0EB
:1047F0004548B0F90000424908803548407D03280B
:1048000003D04248008803281FD14148008801286E
:104810000AD1404800883849098808443E49098837
:10482000084400B23C4908803948008848B9012052
:104830003A49088000202C49088040F6D2203649A9
:104840000880012003F0F0F93FE02148407D022874
:1048500003D02E480088022834D101202C4908803A
:104860002448B0F9000006F0AEF841EC1D0B9FEDB6
:104870002C0B53EC102B06F0BDF841EC1B0B25481C
:10488000B0F9000006F09FF841EC1C0B53EC1B2B19
:1048900005F06AFE41EC190B1F48B0F9000006F064
:1048A00092F841EC1A0B53EC192B05F05DFE41EC2C
:1048B000180B06F059F800B217490880022003F0DF
:1048C000B3F902E0012003F0AFF9BDEC0C8B10BD91
:1048D000250A02200000000000001440E201002030
:1048E0009A9999999999B93FDE010020333333336E
:1048F0003333D33FE0010020E8010020EA0100202B
:10490000E6010020F2010020F0010020DC0100207F
:104910000801002000020020E4010020080200201D
:10492000C3F5285C8FC2C53F064800880649088049
:10493000064800880649088006480088064908801D
:104940007047000070010020F40100207801002071
:104950006002002080010020F601002010B541EC2B
:10496000100BFEF7C1FF51EC100B10BD30B52DED53
:104970000C8B8BB001F0DEFB01F02AFCFE480088B6
:1049800001287CD1FD48407D032803D0FC480088E5
:10499000032810D1FB48B0F9000040F64C318842A2
:1049A00009DAF848B0F9000040F65821884202DDE3
:1049B0000020F1490880F44890ED000ADFEDF30A89
:1049C00020EE200ABDEEC00A10EE100A00B2F04937
:1049D0000880F0490880F0490880F0490880F049D3
:1049E0000880E848B0F9000000EE100AB8EEC00AEE
:1049F000DFEDEC0A80EE201AF0EE41AAB7EE000AD5
:104A000030EE6A0ADFEDE80A30EE200AF0EE40AA46
:104A1000DA48006800EE100AB8EEC00AE3480088E1
:104A2000E349098810FB01F000EE900AF8EEE00A75
:104A3000E04890ED001AF0EE409A40EE819ACF489F
:104A4000406800EE100AB8EEC00ADB480088D8497A
:104A5000098810FB01F000EE900AF8EEE00AD54854
:104A600090ED001AB0EE409A00EE819AB0EEC90ABD
:104A7000F0EE40CAB0EEE90AB0EE40DA00E0B6E18E
:104A8000F0EE6C0AFFF764FBF0EE40DA69EEA90A7B
:104A900049EE090AB0EE600AFFF746FC8DEE80AAE7
:104AA0001AEE100AFEF767FD18B19FEDC40AB0EECA
:104AB00040AAF0EE690AB0EE490AFFF779F9B0EEC4
:104AC000001AC0EE010A9FEDBE1A80EE810AF5EED3
:104AD000000A30EEC0BA1BEE100AFEF74CFD18B10A
:104AE0009FEDB60AB0EE40BA3AEE8B0AF0EE40AA5D
:104AF0002022B44903A8FBF762FD00242CE003A8A0
:104B000000EBC40090ED000A30EE6A0AF7EE080AE6
:104B100030EE200A03A800EBC40080ED000A0DE08F
:104B200003A800EBC40090ED000AF7EE000A30EE97
:104B3000600A03A800EBC40080ED000A03A800EBA4
:104B4000C40090ED000AF7EE000AB4EEE00AF1EEC0
:104B500010FAE5DC601C04B2042CD0DB00242FE04A
:104B6000002527E003A800EBC50090ED000A03A98B
:104B7000681C01EBC000D0ED000AB4EEE00AF1EED3
:104B800010FA15DD03A800EBC50103C9CDE9010149
:104B900003A800EBC50103AA681C02EBC00205CA0A
:104BA00005C103A9681C01EBC000DDE9011206C0C4
:104BB000681C05B2C4F10300A842D3DC601C04B237
:104BC000032CCDDBDDED03BA9FED7D0A2BEE800AD1
:104BD000F0EE000A20EE20CAB0EE4C0AFFF7DCFA35
:104BE000F0EE408AB0EE4C0AFFF70AFAB0EE408AC7
:104BF000B4EE000AF4EEC0BAF1EE10FA65DB68EE2E
:104C0000081A81EEA81A31EE281A6F48D0ED001A62
:104C100061EE8A1A81EE812AB0EE420A80EE281AED
:104C200021EE081AF0EE410A0498B0F9000001EEF6
:104C3000100AB8EEC11AF7EE001A70EE211A21EE32
:104C4000211ABDEEC11A11EE100A00B204990880B3
:104C50000698B0F9000001EE100AB8EEC11AF7EE9E
:104C6000001A70EEA11A21EE211ABDEEC11A11EE42
:104C7000100A01B2069801800898B0F9000001EE10
:104C8000100AB8EEC11AF7EE001A71EEC01A21EE42
:104C9000211ABDEEC11A11EE100A01B20898018066
:104CA0000A98B0F9000001EE100AB8EEC11AF7EE4A
:104CB000001A71EEE01A21EE211ABDEEC11A11EEB2
:104CC000100A01B20A98018090E068EEA81A81EEFD
:104CD000881A31EE081A3C48D0ED001A61EE8A1AA3
:104CE00081EE812AB0EE420A20EE281AC1EE081A9F
:104CF000F0EE610A0498B0F9000001EE100AB8EE77
:104D0000C11AF7EE001A70EEA11A21EE211ABDEEBB
:104D1000C11A11EE100A00B2049908800698B0F981
:104D2000000001EE100AB8EEC11AF7EE001A70EE9C
:104D3000211A21EE211ABDEEC11A11EE100A01B29C
:104D4000069801800898B0F9000001EE100AB8EE4C
:104D5000C11AF7EE001A71EEE01A21EE211ABDEE2B
:104D6000C11A11EE100A01B2089801800A98B0F930
:104D7000000001EE100A29E008010020250A0220A7
:104D8000DC010020700100203401002000606A4531
:104D90002401002022010020200100201E0100200B
:104DA000FC000020000000460AD7A3BD2601002019
:104DB000FE0000203001002028010020000000003B
:104DC000DB0F4940D8B30008F8000020B8EEC11A44
:104DD000F7EE001A71EEC01A21EE211ABDEEC11ACB
:104DE00011EE100A01B20A98018000BFD5E06D48AB
:104DF00080686C49C98A6C4A128811FB020000B2B3
:104E00006A4908806748406869490988694A128880
:104E100011FB020000B268490880624800686749D7
:104E20000988644A128811FB020000B264490880B4
:104E300061480088C0EB001000B2624908806048F9
:104E40000088C0EB001000B25F4908805748008816
:104E5000800000B25D4908805249C98B01F02000F2
:104E600005F0B1FD41EC1C0B9FED590B53EC102BE1
:104E700005F0C0FD41EC1B0B9FED570B53EC102BC5
:104E800005F0B6FE41EC190B4649C98B01F0100044
:104E900005F099FD41EC1C0B9FED4D0B53EC102BD5
:104EA00005F0A8FD41EC1B0B9FED4B0B53EC102BB9
:104EB00005F05AFB41EC1A0B53EC192B05F09AFD47
:104EC00041EC180B05F01EFB454908603D48B0F960
:104ED000000000EE100AB8EEC00A0846D0ED000A45
:104EE00020EE200ABDEEC00A10EE100A00B23D49C5
:104EF00008803548B0F9000000EE100AB8EEC00A8C
:104F00003748D0ED000A20EE200ABDEEC00A10EEB0
:104F1000100A00B2344908802C48B0F9000000EEB5
:104F2000100AB8EEC00A2E48D0ED000A20EE200A82
:104F3000BDEEC00A10EE100A00B22C4908802948C4
:104F4000008829490988084428490988084400B28A
:104F5000274908802348008840422349098808449B
:104F600022490988084400B2224908801D48008867
:104F700040421D490988401A1C490988084400B26A
:104F80001D4908801748008817490988401A1749A1
:104F90000988084400B2194908800BB0BDEC0C8B9D
:104FA00030BD0000250A022000010020060100207B
:104FB00028010020FE000020020100202601002020
:104FC0000401002010010020120100201401002023
:104FD000000000000000E03F000000000000F03F83
:104FE0002C0100200A0100200C0100200E010020ED
:104FF0001E010020200100202201002024010020A9
:1050000008484088084908800848408808490880BE
:1050100008484088084908800848408808490880AE
:1050200070470000380100201601002040010020D8
:1050300018010020480100201A0100205001002022
:105040001C01002010B5094890ED002A0848D0ED59
:10505000001A084890ED001A0748D0ED000A0748EA
:1050600090ED000A064800F095F810BDEC00002015
:10507000E8000020E4000020F4000020F000002000
:1050800030080220B0EE401A10B99FED400A704778
:1050900080ED041AC0ED030A70EEC11AC0ED051AC6
:1050A00090ED000A90ED052A20EE020A80ED080A34
:1050B00090ED090A90ED012AD0ED052A02EE220AB0
:1050C00080ED090A90ED050A314A02EB810292ED6A
:1050D000002A30EE420A90ED022A20EE020A80ED0C
:1050E0000A0A90ED090A90ED072AB4EEC20AF1EE21
:1050F00010FA04DD90ED070A80ED090A10E090ED4A
:10510000090A90ED072AB1EE422AB4EEC20AF1EE86
:1051100010FA05D290ED070AB1EE400A80ED090AB7
:1051200090ED080A90ED092A30EE020A90ED0A2A65
:1051300030EE020A80ED0B0A90ED0B0A90ED062A84
:10514000B4EEC20AF1EE10FA04DD90ED060A80ED2D
:105150000B0A10E090ED0B0A90ED062AB1EE422A00
:10516000B4EEC20AF1EE10FA05D290ED060AB1EEE5
:10517000400A80ED0B0A90ED050A054A02EB810218
:1051800082ED000A90ED0B0A81E7000000000000AC
:105190006008022000B9704780ED001AC0ED011AC6
:1051A00080ED022ADFED062AC0ED052ADFED042A94
:1051B000C0ED042AC0ED070A80ED060A00BFEAE749
:1051C000000000002DE9FC4107460C4615461E462E
:1051D000380A8DF80000F8B28DF80100200A8DF829
:1051E0000200E0B28DF80300280A8DF80400E8B24E
:1051F0008DF80500300A8DF80600F0B28DF8070032
:10520000082269469001FBF737FDBDE8FC810000EC
:1052100010B501213848B0F9000000EE100AF8EE90
:10522000C00A3648B0F9000000EE100AB8EEC00A15
:105230003348FFF727FFBDEEC00A10EE100A00B298
:105240002D49088002212F48B0F9000000EE100A15
:10525000F8EEC00A2C48B0F9000000EE100AB8EED3
:10526000C00A2748FFF70EFFBDEEC00A10EE100A75
:1052700000B22449088003212448B0F9000000EE60
:10528000100AF8EEC00A2248B0F9000000EE100A39
:10529000B8EEC00A1A48FFF7F5FEBDEEC00A10EEE0
:1052A000100A00B21949088004211A48B0F9000018
:1052B00000EE100AF8EEC00A1748B0F9000000EE40
:1052C000100AB8EEC00A0E48FFF7DCFEBDEEC00AB9
:1052D00010EE100A00B20F4908800846B0F90030FD
:1052E0000A48B0F900200748B0F900100248B0F9A8
:1052F0000000FFF767FF10BD1E010020160100200F
:105300003008022020010020180100202201002086
:105310001A010020240100201C01002010B5FFF715
:1053200025FBFFF76DFEFFF773FF10BD10B50446B8
:10533000012C02D0022C58D12BE0B2EE040A2C48EA
:1053400080ED000A9FED2B0A2B4880ED000A9FEDAF
:10535000290A2A4880ED000A9FED290A294880ED94
:10536000000A9FED290A294880ED000A234890EDA4
:10537000002A2148D0ED001A1D4890ED001A23485C
:10538000D0ED000A1F4890ED000A2148FFF702FF08
:105390002BE0B2EE040A164880ED000A9FED150AD4
:1053A000154880ED000A9FED130A144880ED000AAD
:1053B0009FED130A134880ED000A9FED130A13486E
:1053C00080ED000A0D4890ED002A0B48D0ED001A40
:1053D000074890ED001A0D48D0ED000A094890EDFD
:1053E000000A0B48FFF7D6FE00BF00BF10BD00004B
:1053F000E400002000000000E8000020EC00002095
:1054000000409C45F000002000803B45F400002057
:1054100030080220FFF716FE04E0FFF77FFF0F20A1
:1054200004F02AF8F9E700002DE9F0410446E0789D
:1054300000F0C006E07800F03F05607800F0010061
:1054400098B1EF102846E91705EB5171C910A5EB8B
:10545000C101491C01F0FF080B48006820B10A484F
:10546000414602683846904700BF607800F0080067
:1054700030B10548406818B1B011034A51688847F7
:105480000020BDE8F0810000840C022070B50446C5
:105490000025681FFDF7C2F9134800681349B0FBE7
:1054A000F1F013490870104800684FF4FA51B0FB4E
:1054B000F1F0104908600CB94FF47A740A4800689A
:1054C000B0FBF4F0C5086D1E4FF0E020006940F01D
:1054D00002004FF0E021086108464561006940F094
:1054E0000100086170BD00000000002000127A0079
:1054F000A0020020A402002070B503460024002171
:105500000020002200254FF0E02675690D4E366818
:1055100003FB06F44FF0E026B16910E04FF0E026FF
:10552000B06988420BD0884202D20E1A324402E09F
:105530002E1A0E4432440146A24200D300E0EDE7A9
:1055400000BF70BDA402002038B5044664B120201D
:105550008DF8000028208DF8010030208DF8020021
:1055600038208DF8030004E0A32204216846FBF7ED
:1055700058F86A46042140F69E2002F015FB01F01F
:1055800037FF38BD3EB5044602208DF80000CA2022
:105590008DF80100E3208DF8020009208DF803004A
:1055A0006A460421682002F0FFFAA3208DF800006B
:1055B00004F0400048B1C0208DF80100C8208DF8EB
:1055C0000200C2208DF8030006E0A3208DF8010040
:1055D0008DF802008DF8030004F4C07048B1C420B7
:1055E0008DF80400CC208DF80500C6208DF806004B
:1055F00006E0A3208DF804008DF805008DF8060064
:10560000A3208DF807008DF808008DF809006A4680
:105610000A2140F6A72002F0C7FA04F0030018B1EF
:1056200020208DF8000002E0D8208DF800006A46A6
:10563000012140F6B62002F0B7FA04F0200018B1BC
:10564000012000F0ADF802E0002000F0A9F804F419
:10565000C07008B304F4807060B1B2208DF800000F
:105660008B208DF80100B6208DF802009B208DF86C
:1056700003000BE0B0208DF8000080208DF80100C1
:10568000B4208DF8020090208DF803006A460421B2
:1056900040F6A22002F088FA04F0010020B3F820BE
:1056A0008DF800006A4601214FF40B6002F07CFA8D
:1056B000FA21072000F02CFC072000F0F3FB01206A
:1056C00000F013FC642000F003FD4FF4FA7000F0CA
:1056D00012FDC821304800F0A3FB282000F0BCFBDD
:1056E0000A2000F0CCFB08E0D8208DF800006A46C4
:1056F00001214FF40B6002F057FA04F0020018B1D8
:10570000D9208DF8000002E0D8208DF800006A460C
:10571000012140F23D7002F047FA04F0040018B194
:10572000012000F069F802E0002000F065F804F0C4
:10573000100018B10120FFF707FF02E00020FFF77B
:1057400003FF44F008001549488101F051FE002094
:105750001249887304F0400018B10846807B801D10
:10576000887304F4C07020B10C48807B801D0B4905
:10577000887304F0140020B10848807B103007497A
:10578000887304F0030020B10448807B001D0349A6
:10579000887300203EBD000009E3CA02840C022089
:1057A0003EB504466CB10EA1D1E900208968CDE96F
:1057B000002002916A4609214FF4976002F0F4F943
:1057C0003EBD0AA2D2E900109268CDE90102009123
:1057D0006A4609214FF4976002F0E6F9F0E700000D
:1057E000B8AAB38DB4980D355D000000B8AAAAAA76
:1057F000B088C3C5C700000038B5044664B1C020F6
:105800008DF80000C2208DF80100C4208DF8020040
:10581000C6208DF8030004E08B2204216846FAF7C5
:1058200000FF6A46042140F6982002F0BDF901F01D
:10583000DFFD38BD10B5C8234FF48062024940F641
:10584000F63001F043FC10BD4CB400082DE9F04FD8
:105850008DB00746884615469946DDE9166B00244B
:10586000002030806B49887B5A4605A901F020FD55
:1058700018B1601E0DB0BDE8F08F6648807A00F068
:105880001400002867D09DF8140000069DF815103C
:1058900040EA01409DF8161040EA01209DF81710DB
:1058A000084328609DF8180000069DF8191040EA8A
:1058B00001409DF81A1040EA01209DF81B10084392
:1058C00068609DF81C0000069DF81D1040EA01402C
:1058D0009DF81E1040EA01209DF81F100843A860A3
:1058E0009DF8200000069DF8211040EA01409DF837
:1058F000221040EA01209DF823100843E86004F1DB
:105900001000C4B228680014019068680014029066
:10591000A86800140390E8680014049001984043BC
:10592000029901FB0100039901FB0100049901FBAD
:10593000010ABAF1706F02DBBAF1885F05DD01F090
:1059400057FD00203080401E94E7B6F9000040F477
:105950008070308000BF2F48807A00F0400020B374
:1059600005A9601C085C095D40EA012000B2A8F8A6
:10597000000005A9E01C095C05AAA01C105C41EA16
:10598000002000B2A8F8020005A9601D095C201DD6
:10599000105C41EA002000B2A8F80400A01DC4B2C7
:1059A000B6F9000040F0080030801A48408900F441
:1059B000C07008B305A9601C085C095D40EA0120BD
:1059C00000B2388005A9E01C095C05AAA01C105C87
:1059D00041EA002000B2788005A9601D095C201D05
:1059E000105C41EA002000B2B880A01DC4B2B6F934
:1059F000000040F0700030800648807A00F003001C
:105A000018B105A90819FFF70FFD484601F040F845
:105A100000202FE7840C022070B588B0064601A84C
:105A200001F0F4F9BDF804000021C90341EA504532
:105A3000C4034448007A00F0030056F820000590A3
:105A40004048007A00F0040010B1059840420590EB
:105A50003C48007AC0F3C10056F82000069039484F
:105A6000007A00F0200010B10698404206903548B8
:105A7000007AC0F3811056F8200007903148008961
:105A800000F4807010B10798404207900598C11744
:105A9000A0FB042301FB043100FB0510810041EA57
:105AA000927005900698C117A0FB042301FB0431F6
:105AB00000FB0510810041EA927006900798C1171B
:105AC000A0FB042301FB043100FB0510810041EA27
:105AD000927007900598000E8DF808000598000C4C
